:020000040000fa
:080000000001040000000000f3
:020000040000fa
:100008009a0100009a0100009a0100009a0100007c
:100018009a0100009a0100009a0100009a0100006c
:100028009a0100009a0100009a0100009a0100005c
:100038009a0100009a0100009a0100009a0100004c
:100048009a0100009a0100009a0100002e0f00009a
:100058009a0100009a0100009a0100009a0100002c
:100068009a0100009a0100009a0100009a0100001c
:100078009a0100009a0100009a0100009a0100000c
:100088009a0100009a0100009a010000ca070000c6
:100098009a0100009a0100009a0100009a010000ec
:1000a8009a0100009a0100009a0100009a010000dc
:1000b8009a0100009a0100009a0100009a010000cc
:1000c8009a0100009a0100009a0100009a010000bc
:1000d8009a0100009a0100009a0100009a010000ac
:1000e8009a0100009a0100009a0100009a0100009c
:0800f8009a0100009a010000ca
:020000040000fa
:100108009a0100009a0100009a0100009a0100007b
:100118009a0100009a0100009a0100009a0100006b
:100128009a0100009a0100009a0100009a0100005b
:100138009a0100009a0100009a0100009a0100004b
:100148009a0100009a0100009a0100002e0f000099
:100158009a0100009a0100009a0100009a0100002b
:100168009a0100009a0100009a0100009a0100001b
:100178009a0100009a0100009a0100009a0100000b
:100188009a0100009a0100009a010000ca070000c5
:100198009a0100009a0100009a0100009a010000eb
:1001a8009a0100009a0100009a0100009a010000db
:1001b8009a0100009a0100009a0100009a010000cb
:1001c8009a0100009a0100009a0100009a010000bb
:1001d8009a0100009a0100009a0100009a010000ab
:1001e8009a0100009a0100009a0100009a0100009b
:0801f8009a0100009a010000c9
:020000040000fa
:100200000faf20000e7f22000e01880000000000ca
:10021000000020000000e000020032000001200089
:10022000200288000c00070060d32100010020009c
:1002300011000700000020000000e0000200320072
:1002400000000200000000001e0d0200000000007f
:100250000040da000000fe004440a9000000200039
:100260000000e0000300320000002000a001880030
:100270004440a8000000060091018800800078003a
:100280000000eb0015003700e280400032a0b4000f
:100290009101ba00e280400032a0b4009102ba009d
:1002a000e280400032a0b4000002eb00472bde00e9
:1002b000f507b200602ce10004003a000059eb00a1
:1002c0008301e900fdff3e00040037006128e100e2
:1002d000010032000082eb00040007001101ba00a7
:1002e0000200e000e8ff3a00000006003159ba00c1
:1002f0008301e9000c0032002159ba008301e900b2
:10030000080032000400e00003003a00e2804000f0
:1003100032a0b400f5ff370011d9ba008301e9001b
:10032000faff3a008100e800e180400032a0b4000a
:10033000000006000040da000000fe006022b80065
:10034000060220000000d0008180d2000482d2008a
:100350008582d2000000a0000202520083825a006f
:10036000030031000202420083824a000000a10023
:0c0370000603e900f3ff3a00000006005d
:020000040000fa
:10037c000000fa002e000700a6010700bb000700d2
:10038c001c000700044e8000d44a8800d54a800027
:10039c00d44d800004824200d44a8800d54a8000a3
:1003ac00e44d800004824200d44a8800d54a800083
:1003bc00f44d800004824200d44a8800d54a800063
:1003cc00b44d800004824200d44a8800d54a800093
:1003dc00a44d800004824200d44a8800d54a800093
:1003ec00944d800004824200d44a88000080fa00b8
:1003fc00000006000000fa0025048000040820001c
:10040c0004826200e00f52000700320084e0a90071
:10041c00044e80000402e800044e8800044e800064
:10042c00145788008629a8000080fa0000000600f6
:10043c000a00fa002c0037008e00780000802000a3
:10044c00400c07009e0278008407200004826200a2
:10045c00e80f520004003200b44d80000402e800a2
:10046c00b44d8800200037009e027800844821009b
:10047c00848f520003003a000e0078008a000700b7
:10048c00190037009e02780084582100848f520096
:10049c0003003a000e0078003f00070012003700fe
:1004ac009e02780084602100848f520003003a0081
:1004bc000e007800b60007000b0037009e02780093
:1004cc00c4c721008482620084002100848f520002
:1004dc0005003a000e0078002f000700944d8000b4
:1004ec000402e800944d880000802000c70b070030
:1004fc0000027800e00f5200cfff3a0074458000f4
:10050c00d44d880034408000e44d88000080fa000f
:10051c00000006000400fa00000f78001107980094
:10052c001e027800940278001e02900004037800ea
:10053c0005037300860278001e027800050a780015
:10054c000080fa00000006000400fa00000f78009a
:10055c00110798001e027800940278001e02900089
:10056c000482ea00848262001e027800050a780088
:10057c000080fa00000006000400fa00000f78006a
:10058c00110798001e0290001e0262000400780001
:10059c000080fa00000006000400fa001007980022
:1005ac001e029000c4029000050f780004002f007a
:1005bc009e02620004002100848f5200040032006d
:1005cc00a44d80000402e800a44d880025003700eb
:1005dc00f4ff20009e026200f40f2000848f520072
:1005ec0004003e00a44d80000402e800a44d8800e5
:1005fc001c003700f4ff20009e026200f42f200044
:10060c00848f520003003e001e009000b90c0700be
:10061c0014003700f4ff20009e026200f43f20001b
:10062c00848f520004003e00a44d80000402e800b8
:10063c00a44d88000b003700f4ff20009e026200de
:10064c00f44f2000848f520003003e001e009000e7
:10065c008400070003003700a44d80000402e8006a
:10066c00a44d88000080fa00000006000000fa008b
:10067c00544e8000e00f520005003a00344c8000cc
:10068c0061026200e00f5200010032007d000700a1
:10069c00344c8000614262000482fb00544e88009e
:1006ac000080fa00000006000400fa001007980011
:1006bc001e029000c4029000050f780004002f0069
:1006cc009e02620004002100848f5200040032005c
:1006dc00a44d80000402e800a44d880013003700ec
:1006ec00f4ff20009e026200f4072000848f520069
:1006fc0003003e001e0090000e0007000b003700a8
:10070c00f4ff20009e026200f40f2000848f520040
:10071c0003003e001e009000800c07000300370011
:10072c00a44d80000402e800a44d88000080fa006b
:10073c00000006000400fa00100798001e0290004a
:10074c00c4029000050f7800f4ff20001e0f620019
:10075c001e027800e10f520003003200e30f52003a
:10076c0008003200020037000000fe0006003700cf
:10077c00a44d80000402e800a44d88000000000095
:10078c0001003700000000000080fa0000000600a5
:10079c000400fa00100798001e029000c40290009a
:1007ac00050f780004002f009e0262000400210057
:1007bc00848f520004003200a44d80000402e80033
:1007cc00a44d880025003700f4ff20009e02620033
:1007dc00f40f2000848f520004003e00a44d8000d2
:1007ec000402e800a44d88001c003700f4ff200030
:1007fc009e026200f42f2000848f520003003e0002
:10080c001e0090004f0c070014003700f4ff20006e
:10081c009e026200f43f2000848f520004003e00d0
:10082c00a44d80000402e800a44d88000b003700a2
:10083c00f4ff20009e026200f44f2000848f5200cf
:10084c0003003e001e0090000a0007000300370062
:10085c00a44d80000402e800a44d88000080fa003a
:10086c00000006000200fa00000f78000080fa0079
:10087c00000006000200fa00000f78000080fa0069
:10088c00000006000a00fa00c4802a00040f780059
:10089c0064982000140278001407980084982000b3
:1008ac001402780024079800040a2a0034079800e0
:1008bc00040b2b0044079800e13520000e00780053
:1008cc004f0b0700344d80000402e800344d8800c3
:1008dc000080fa00000006000200fa00000f780009
:1008ec00249c20009e02780095029000050a780056
:1008fc001e027800a4029000249c2000150298008f
:10090c001e027800b4029000249c2000250298005e
:10091c001e027800c4029000249c2000350298002e
:10092c000060fe008629a9000002eb005408880034
:10093c000080fa00000006001400fa00500798002e
:10094c006107980072079800030f9800140f980025
:10095c005e0290006f026200540798005e029000e5
:10096c000440a000540798005e029000040242006c
:10097c0054079800de02900004602000050272000b
:10098c00540798005e0290004222dd005407980044
:10099c005e029000040f78009e02780004f02f0095
:1009ac0004826200040f78001e0278004322dd00ee
:1009bc00040f78009e0278005e039000f40f200074
:1009cc000402630005027200040f78001e0a9000f6
:1009dc00140798000e0a9000240798007e029000dd
:1009ec00340798006e029000440798008e0078003f
:1009fc00808a2000bb0a0700741b8000680262001a
:100a0c00e00f520001003a008760a8000080fa0055
:100a1c00000006000000fa002504800004042000f9
:100a2c0004826200e00f52009f00320084c0a900d3
:100a3c00644e80000402e800644e8800644e80001e
:100a4c006f026200644e88008eff0700644e8000c7
:100a5c0005002000f600200007002000860f520041
:100a6c00878f5a0090003e00046001000f00370091
:100a7c0018003700200037002900370032003700fb
:100a8c003b003700440037004d003700560037005c
:100a9c005f00370068003700710037007a003700bc
:100aac007b0037007c0037007d003700e44a800073
:100abc00d74a8000c64a8000b54a8000870178007a
:100acc0006017800850078000000eb009aff070013
:100adc0075003700064b8000f54a80000002eb00e1
:100aec008001eb00060178008500780010002000e2
:100afc0091ff07006c003700644b8000574b80005f
:100b0c00464b8000354b8000870178000601780049
:100b1c00850078002000200087ff07006200370066
:100b2c00a44b8000974b8000864b8000754b800057
:100b3c0087017800060178008500780030002000dd
:100b4c007dff070058003700e44b8000d74b800036
:100b5c00c64b8000b54b80008701780006017800f9
:100b6c00850078004000200073ff07004e0037001e
:100b7c00244c8000174c8000064c8000f54b800004
:100b8c00870178000601780085007800500020006d
:100b9c0069ff070044003700444d8000374d80004a
:100bac00264d8000154d80008701780006017800e5
:100bbc0085007800800020005fff07003a003700b6
:100bcc00844d8000774d8000664d8000554d80002f
:100bdc0087017800060178008500780090002000dd
:100bec0055ff070030003700c44d8000b74d800022
:100bfc00a64d8000954d8000870178000601780095
:100c0c0085007800a00020004bff0700260037006d
:100c1c00044e8000f74d8000e64d8000d54d8000dd
:100c2c00870178000601780085007800b00020006c
:100c3c0041ff07001c003700c44c8000b74c8000fb
:100c4c00a64c8000954c8000870178000601780046
:100c5c00850078006000200037ff07001200370085
:100c6c00044d8000f74c8000e64c8000d54c800091
:100c7c00870178000601780085007800700020005c
:100c8c002dff0700080037003f0b07000600370058
:100c9c00400b070004003700410b0700020037002f
:100cac00420b0700000000000080fa000000060064
:100cbc000e00fa0050079800610798000002eb0044
:100ccc00040f78006e029000240798005e029000da
:100cdc0014079800e13420000e007800480a070041
:100cec00444d80000402e800444d88000080fa0066
:100cfc00000006001000fa005007980061079800e9
:100d0c0072079800c4002a00040f78007e0290003d
:100d1c00140798005e029000240798006e02900061
:100d2c00e10f520003003a0004102e004407980013
:100d3c000200370014102e0044079800e134200004
:100d4c000e0078002e0a0700444d80000402e800d3
:100d5c00444d88000080fa00000006000000fa00f4
:100d6c00043a800061026200e00f520004003a0075
:100d7c00043a800062026200e00f5200050032006b
:100d8c000002eb00045788000002eb0014578800a7
:100d9c0003003700045780000402e8000457880061
:100dac00249c20008002eb00050a7800249c200083
:100dbc001500200015029800249c2000250020001e
:100dcc0025029800249c2000350020003502980054
:100ddc004007a9004027a90040c7a90040e7a90087
:100dec0041e7a9004087a90041c7a900045780002a
:100dfc00f44a880014578000044e88008f60a900c4
:100e0c008760a9000405800004c0a10004d0a100e3
:100e1c0004e0a000040588000002eb00b41c88006c
:100e2c009803a8009823a8009843a80098a3a800aa
:100e3c0000802000fc090700808a2000fa090700c6
:100e4c0004402000841c880000000000851c8000e9
:100e5c00040e20008482620004082000848f52005b
:100e6c00faff3a0014002000941c8800143920006a
:100e7c00a41c88001480210084198800d4872100c8
:100e8c00c41988000002eb000418880004802000bc
:100e9c00441888008400210084188800c47f210035
:100eac00c4188800c47f210004198800c47f210065
:100ebc004419880014002000741b880024002000b2
:100ecc00f41a880034002000741a8800040c2000e6
:100edc00241b8800040c2000a41a8800040c200099
:100eec00241a88000002eb00741c88000002eb003e
:100efc00f41b88000002eb00841c8800000000003a
:100f0c00851c8000040e200004826200e00f520059
:100f1c00fbff3a008f60a80054fb25008408880072
:100f2c0024f42000640888000002eb0034088800d8
:100f3c0084c0a9008cc0a90011e1a800d4fb250035
:100f4c0094088800546222007408880084e0a90088
:100f5c008ce0a90013e1a8000002eb00944c88007f
:100f6c0014e42800a44c88000002eb00b44c880068
:100f7c0014042000c44c880044062000d44c880083
:100f8c000080fa00000006003600f800809fbe00ca
:100f9c00829fbe00849fbe00869fbe000a00fa009e
:100fac008760a900844d80000402e800844d88000d
:100fbc00751c80000408200004826200e00f5200bf
:100fcc0018003200741c800061026200e00f5200b5
:100fdc000b003a00544d80000402e800544d880088
:100fec00e13820000e0078002a0907003e0290002c
:100ffc00844a88004e029000944a8800080037000a
:10100c00644d80000402e800644d8800e138200043
:10101c000e0078001f0907000e0078002efe070056
:10102c009603a900f51b80000408200004826200ce
:10103c00e00f520007003200744d80000402e800fb
:10104c00744d8800e137200000802000f408070070
:10105c009623a900741b800068026200e00f520006
:10106c000c003a00808a2000e80807000002780093
:10107c00e00f520007003200e1362000808a200089
:10108c00490907009643a900c44d80000402e800fa
:10109c00c44d8800b51c800004022000048262004c
:1010ac00e00f520005003200244d80000402e800dd
:1010bc00244d880096a3a90008003700451780002e
:1010cc000400220004826200e00f52000200320091
:1010dc00e9a2a90001003700e9a2a800d41c8000f5
:1010ec00144d88000080fa004f03be004f02be0072
:1010fc004f01be004f00be003600f9000040060054
:10110c000e00fa00000f7800214798003247980033
:10111c002307980034079800450798005607980055
:10112c00670798001e027800ae429000054a7800ce
:10113c001e027800be429000154298001e027800f4
:10114c00ae029000150298001e0278001440900028
:10115c006033b8003e029000ce0290005e01900019
:10116c00ee01900001022b002c0707000080fa0012
:10117c00000006000e00fa00400798005107980086
:10118c00620798004e029000140290008402d10075
:10119c005e029000848f5200530036006e02900065
:1011ac004822de00044f78006e029000144798002d
:1011bc005e02900004024200140798001e02900088
:1011cc004822de00444798001e02900054479800c5
:1011dc004e02900014429000044078004d07070026
:1011ec0000027800340798004e02900014429000e0
:1011fc00044078006807070000027800be029000e7
:10120c0005027200340798004e0290009442900040
:10121c004e0290001442780085407800044078001b
:10122c009f07070000027800be02900005027200c2
:10123c00340798004e0290001442900084407800cd
:10124c004e4090009607070000027800be02900006
:10125c0005027200340798004e0290001442900070
:10126c00844078005e4090008d07070000027800f3
:10127c00be02900005027200340798004e029000e6
:10128c0014429000844078001e40900084070700b0
:10129c0000027800be02900005027200340798002c
:1012ac004e02900014429000844078001e4078005a
:1012bc007b07070000027800be0290000502720056
:1012cc00340798004e0290001442900004407800bd
:1012dc00e307070000027800be02900005027200ce
:1012ec0034079800020037000082eb0034079800a6
:1012fc000080fa00000006000c00fa00400798007d
:10130c00510798004e029000140290008402d10004
:10131c005e029000848f52006c0036005e029000da
:10132c0004024200140798001e0290004822de00be
:10133c00444798001e029000544798004e029000bb
:10134c001442900004407800f20607000002780076
:10135c00340798004e02900014429000044078002c
:10136c000d07070000027800be0290000502720013
:10137c00340798004e029000944290004e02900068
:10138c001442780085407800044078004407070038
:10139c0000027800be02900005027200340798002b
:1013ac004e02900014429000844078004e40900011
:1013bc003b07070000027800be0290000502720095
:1013cc00340798004e02900014429000844078003c
:1013dc005e4090003207070000027800be029000c9
:1013ec0005027200340798004e02900014429000df
:1013fc00044078000907070000027800be02900044
:10140c0005027200340798004e029000944290003e
:10141c004e029000144278000404a000854078002d
:10142c00044078001e07070000027800be029000fe
:10143c0005027200340798004e029000144290008e
:10144c00044078004d07070000027800044f780034
:10145c004e0290001442900004407800a10707004f
:10146c0000027800be02900005027200340798005a
:10147c004e02900014429000044078003f07070091
:10148c0000027800144798004e029000144290001d
:10149c0004407800b507070000027800be029000f7
:1014ac0005027200340798004e029000144290001e
:1014bc00044078006a07070000027800be02900022
:1014cc000502720034079800060037000082eb001a
:1014dc00340798000042eb00044f78000042eb0008
:1014ec00144798001e4290000482fb0014079800d9
:1014fc001e0290004822dd00140798009e427800de
:10150c000582fb009e0290000482420014079800a2
:10151c001e029000040078000080fa000000060013
:10152c001200fa00500798006107980072079800a3
:10153c00030f98007e029000e00f5200640032000e
:10154c007e029000f00f52000200360004012000d1
:10155c00740798005e02900014029000c522de0011
:10156c006e029000848f5200570036006e0290007d
:10157c004522dd00240798002e0290004822de0050
:10158c00644798002e029000744798005e02900009
:10159c0014429000044078005e06070000027800b8
:1015ac00040f78005e029000144290000440780012
:1015bc0079060700000278001e0f72005e02900090
:1015cc00944290005e0290001442780085407800ae
:1015dc0004407800b2060700000278001e0f72006b
:1015ec005e02900014429000844078006e4090009f
:1015fc00ab060700000278001e0f72005e0290001e
:10160c0014429000844078007e409000a4060700ad
:10161c00000278001e0f72000002eb001407980005
:10162c001e0037001e029000040242008e0a900039
:10163c0004824200140278004822de00044f980015
:10164c001e029000040242008e0a900004824200a6
:10165c0014027800144f98005e029000144290001f
:10166c00844078001e4890008d0607000002780028
:10167c001e0f72005e0290001442900084407800ad
:10168c000e48900086060700000278001e0f7200bc
:10169c001e0290000402e800140798009e029000bd
:1016ac007e029000848f5200deff39005e029000b3
:1016bc001442900004407800e9060700000278000c
:1016cc001e0f7200020037000082eb00040f78003e
:1016dc000080fa00000006001200fa005007980083
:1016ec006107980072079800030f98007e02900023
:1016fc00e00f5200cc0032007e029000f00f52003e
:10170c000200360004012000740798005e0290006d
:10171c0014029000c522de006e029000848f5200ed
:10172c00bb0036006e0290004522dd0024079800b5
:10173c002e0290004822de00644798002e02900092
:10174c00744798005e0290001442900004407800a8
:10175c00f005070000027800040f78005e0290008c
:10176c0014429000044078000b0607000002780039
:10177c001e0f72005e029000944290005e02900078
:10178c001442780085407800044078004406070035
:10179c00000278001e0f72005e029000144290004e
:1017ac00844078006e4090003d06070000027800ef
:1017bc001e0f72005e02900014429000844078006c
:1017cc007e40900036060700000278001e0f720063
:1017dc005e02900014429000044078000f0607004f
:1017ec00000278001e0f72005e029000944290007e
:1017fc005e029000144278000404a000854078003a
:10180c000440780026060700000278001e0f7200c4
:10181c000002eb00140798003a0037005e029000bb
:10182c00144290000440780054060700000278002f
:10183c00044f98005e02900014429000044078001f
:10184c00a8060700000278001e0f72005e029000ce
:10185c00144290000440780048060700000278000b
:10186c00144f98005e0290001442900004407800df
:10187c009c060700000278001e0f72001e029000ea
:10188c00040242008e0a9000848242001e4a90009c
:10189c000482fb00840a78001e02900004024200bd
:1018ac008e0a9000848242001e02900004024200c4
:1018bc000e0b900004024300140278004822dd0055
:1018cc00840a78001e029000040242008e0a9000e6
:1018dc00848242001e029000040242000e0b900013
:1018ec0004024300140378000e4a90000482fb00ab
:1018fc0004024300840a78001e0290000402e800ef
:10190c00140798007e0290008402e9001e029000e9
:10191c00848f5200c1ff3e005e0290001442900082
:10192c00044078001506070000027800044f980068
:10193c005e02900014429000044078006906070093
:10194c00000278001e0f72005e029000144290009c
:10195c00044078000906070000027800144f980034
:10196c005e02900014429000044078007f0607004d
:10197c00000278001e0f72001e029000040242004a
:10198c008e0a9000848242001e4a90000482fb0062
:10199c00840a78001e029000040242008e0a900015
:1019ac00848242001e029000040242000e0b900042
:1019bc0004024300140278004822dd00840a7800f7
:1019cc001e029000040242008e0a900084824200a3
:1019dc001e029000040242000e0b90000402430011
:1019ec00140378000e4a90000482fb0004024300aa
:1019fc00840a78005e029000144290000440780043
:101a0c0017060700000278001e0f72000600370050
:101a1c000082eb00040f78000042eb00044f9800aa
:101a2c000042eb00144f98000080fa000000060002
:101a3c000000fa0004012000344f88000100070068
:101a4c00feff37000000fa00344f8000f00f520008
:101a5c000400320005032000850f520005003200ff
:101a6c00070037004100070004032000344f8800b2
:101a7c0006003700070007003dfa07000300370097
:101a8c0004012000344f8800000000000080fa00a0
:101a9c00000006000200fa000002eb00040f7800c0
:101aac00350480000404200004826200e00f520020
:101abc002c00320086c0a900c0a020006c020700d8
:101acc0000a320006a02070040a52000680207005e
:101adc0080a7200066020700c0a92000640207004e
:101aec0074578000e00f520008003200344b800025
:101afc000402e800344b8800849820008002eb003c
:101b0c00050a78000002eb0074578800c0a0200082
:101b1c00a402070000027800e00f5200010032001e
:101b2c008829a800809e20009002070000027800ff
:101b3c00e00f5200010032008829a800c0a020004c
:101b4c008a02070000027800e00f52000100320008
:101b5c008829a8001e01780001002100e09c2000cb
:101b6c00db0607000080fa00000006000000fa0007
:101b7c0044002000a5002000744e8800854e88008b
:101b8c0084002000a5002000944e8800a54e8800fb
:101b9c0014c0b30004007800d6e9b700f453200059
:101bac00c44e88000002eb00d44e880004002a00ca
:101bbc00e44e880004242400f5002000f44e880034
:101bcc00054f88000468290085092000144f8800ff
:101bdc00254f8800e09c2000980607003405800003
:101bec000400a0000410a0000420a000340588000c
:101bfc008220a900c404800004c0a10004d0a0006d
:101c0c0004e0a000c404880004002c000416880022
:101c1c00b44f2000341688000002eb0064168800d4
:101c2c000002eb0094168800f4142000f4168800cf
:101c3c000002eb0024178800d4f92d000409880059
:101c4c000002eb00c408880086c0a900440d2300e4
:101c5c00e4088800f4cf270004158800e4fd200078
:101c6c001415880084442e0024158800242e2e0080
:101c7c003415880074302e004415880084cf210060
:101c8c00541588008560a9008d60a800a1e2a80009
:101c9c0004002100844f88000002eb00944f880060
:101cac0004002800a44f88000002eb00b44f880009
:101cbc0004002800c44f88000002eb00d44f8800b9
:101ccc00b4222000e44f880044802000a4508800f7
:101cdc000002eb00b450880004002800c4508800b7
:101cec000002eb00d450880004002800e450880067
:101cfc000002eb00f4508800b4222000145188003c
:101d0c0004002100c45188000002eb00d45188006b
:101d1c0004002800e45188000002eb00f451880014
:101d2c0004002800045288000002eb0014528800c2
:101d3c00b42220002452880004002100e4528800c0
:101d4c000002eb00f45288000400280004538800c1
:101d5c000002eb0014538800040028002453880070
:101d6c000002eb0034538800040021000454880066
:101d7c000002eb001454880004002800245488004e
:101d8c000002eb00345488000400280044548800fe
:101d9c000002eb00545488000400210024558800f4
:101dac000002eb00345588000400280044558800dc
:101dbc000002eb005455880004002800645588008c
:101dcc000002eb0074558800040021006456880062
:101ddc000002eb007456880004002800845688002a
:101dec000002eb009456880004002800a4568800da
:101dfc000002eb00b45688000002eb000456880089
:101e0c001400200024568800d4fb07000024240072
:101e1c00f1002000280707000060fe00c4e2a800c3
:101e2c0000242400f1002000230707000060fe00be
:101e3c00e982a80000242400f10020001e070700fe
:101e4c000060fe00e9a2a8000080fa000000060075
:101e5c00801f7800849fbe00869fbe000000fa00a1
:101e6c008560a9001515800004082000048262001a
:101e7c00e00f520031003200464f8000574f800077
:101e8c0004148000050020000602420087824a00ec
:101e9c00444f8800554f8800665080007750800072
:101eac0014148000050020000602420087824a00bc
:101ebc006450880075508800a6528000b75280008c
:101ecc0024148000050020000602420087824a008c
:101edc00a4528800b5528800c6538000d7538000a6
:101eec0034148000050020000602420087824a005c
:101efc00c4538800d5538800e6548000f754800002
:101f0c0044148000050020000602420087824a002b
:101f1c00e4548800f5548800865180009751800065
:101f2c0054148000050020000602420087824a00fb
:101f3c00845188009551880030003700464f80004e
:101f4c00574f8000841480000500200006024200d8
:101f5c0087824a00444f8800554f880066508000a5
:101f6c007750800094148000050020000602420087
:101f7c0087824a006450880075508800a652800001
:101f8c00b7528000a4148000050020000602420015
:101f9c0087824a00a4528800b5528800c65380003c
:101fac00d7538000b41480000500200006024200c4
:101fbc0087824a00c4538800d5538800e6548000b9
:101fcc00f7548000c4148000050020000602420073
:101fdc0087824a00e4548800f554880086518000ba
:101fec0097518000d41480000500200006024200a6
:101ffc0087824a008451880095518800c45680001d
:10200c000402e800c4568800c5568000f40720007e
:10201c00848f52005c003600444f8000554f800086
:10202c004d2bdd004322de0004027300c32ade00c8
:10203c00444f8800554f8800444f8000554f800016
:10204c0004027800644f88006022b800444f880076
:10205c00554f880064508000755080004d2bdd007a
:10206c004322de0004027300c32ade0064508800a1
:10207c007550880064508000755080000402780010
:10208c00845088006022b800645088007550880025
:10209c0084518000955180004d2bdd004322de00e1
:1020ac0004027300c32ade00845188009551880015
:1020bc00845180009551800004027800a45188005e
:1020cc006022b8008451880095518800a452800089
:1020dc00b55280004d2bdd004322de00040273005c
:1020ec00c32ade00a4528800b5528800a452800096
:1020fc00b552800004027800c45288006022b800f7
:10210c00a4528800b5528800c4538000d553800077
:10211c004d2bdd004322de0004027300c32ade00d7
:10212c00c4538800d5538800c4538000d553800015
:10213c0004027800e45388006022b800c45388007d
:10214c00d5538800e4548000f55480004d2bdd00fd
:10215c004322de0004027300c32ade00e45488002c
:10216c00f5548800e4548000f55480000402780093
:10217c00045588006022b800e4548800f5548800a7
:10218c000002eb00c45688000080fa004f03be002a
:10219c004f02be004f007800004006001200fa000b
:1021ac00100798002107980032079800034f9800f9
:1021bc00540798006507980076079800070f980059
:1021cc000002eb00040f78001e0390006022b800a0
:1021dc00048bbe001e0290008002eb0025029800ca
:1021ec001e0290008002eb00350298001e02900047
:1021fc00ae029000450298001e029000be029000b4
:10220c00550298000e4a9000e14f42000d003a0032
:10221c001e02900005002800650298001e02900026
:10222c008002eb00750298001e0290000500280049
:10223c00050a98001e0290008002eb00150a980017
:10224c000c0037001e029000050028006502980063
:10225c001e0290008002eb00750298001e02900096
:10226c0005002800050a98001e0290008002eb0071
:10227c00150a98001e029000de029000250a9800b4
:10228c001e029000ee029000350a98001e0290008b
:10229c00fe029000550a98001e0290008e0a9000d3
:1022ac00650a98001e0290008002eb00750a9800e7
:1022bc001e0290008002eb00051298001e02900096
:1022cc00ceba9700151298000080fa0000000600a4
:1022dc001000fa00100798002107980032079800a8
:1022ec00034f9800540798006507980076079800ec
:1022fc000002eb00040f78001e0290008002eb003d
:10230c00250298001e029000de0290003502980013
:10231c001e029000ee029000450298001e029000f2
:10232c00fe029000550298001e029000ae02900032
:10233c00650298001e029000be0290007502980083
:10234c000e4a9000e14f42000d003a001e02900030
:10235c0005002800050a98001e0290008002eb0080
:10236c00150a98001e02900005002800250a980006
:10237c001e0290008002eb00350a98000c0037001a
:10238c001e02900005002800050a98001e0290000d
:10239c008002eb00150a98001e0290000500280030
:1023ac00250a98001e0290008002eb00350a980066
:1023bc000080fa00000006000400fa0010079800e4
:1023cc001e029000740390001e029000e402900024
:1023dc001e02900014027800060178008500780037
:1023ec00040078008905070000027800040f7800cb
:1023fc001e029000940a90001e029000040a9000a5
:10240c0005017800840078001e0078006a0507003a
:10241c0000027800040f78001e029000b40a9000ad
:10242c001e029000240a90000501780084007800b8
:10243c001e0078006005070000027800040f780089
:10244c001e02900024029000e00f520003003a009c
:10245c001e029000d4029000050f78001e0290001e
:10246c009e027800150298000080fa000000060019
:10247c000400fa00100798001e029000140b900044
:10248c001e029000840a90001e029000240290000c
:10249c0006017800850078000400780046050700e6
:1024ac0000027800040f78001e029000f4029000e5
:1024bc001e029000640290000501780084007800f0
:1024cc001e0078003c05070000027800040f78001d
:1024dc001e029000d40290001e0290004402900054
:1024ec0005017800840078001e007800470507007d
:1024fc0000027800040f78001e0290009e02780003
:10250c00350298000080fa00000006000400fa0072
:10251c00000f7800110798001e027800b40290009a
:10252c001e029000848f5200030031001e027800be
:10253c00b4029000150798001e027800c4029000a7
:10254c001e029000848f5200030036001e02780099
:10255c00c4029000150798001e0278009e0290009d
:10256c00050a78000080fa00000006000200fa005c
:10257c00000f78001e027800b40290001e02780052
:10258c00240a9000848f52000200360014002000b0
:10259c00010037000002eb00040078000080fa0014
:1025ac00000006000200fa00000f78001e027800fe
:1025bc00b40290001e027800340a9000848f5200fe
:1025cc000200310014002000010037000002eb0073
:1025dc00040078000080fa00000006000400fa00f5
:1025ec00100798001e029000d40a90001e02900062
:1025fc00440a90000001eb0085007800040078008c
:10260c00ed04070000027800040f78001e02900011
:10261c00640a90009e0f5200030036001e029000c8
:10262c00e40a9000050f780004f02f009e0252007f
:10263c001e029000440a9000848f52000400360061
:10264c001e029000440a90001e0f42000200370048
:10265c0004f02f00040f78001e029000340290004a
:10266c009e0f5200060036001e029000740a900065
:10267c008402e8001e029000750a980009003700d9
:10268c001e029000740a9000e00f52000500320008
:10269c001e029000740a90008402e9001e02900051
:1026ac00750a98001e029000f40a90001e02900019
:1026bc0014129000848f52000f0039001e029000fb
:1026cc00f40a90001e0290001412900004024200c2
:1026dc00848f5200060039001e02900014129000e4
:1026ec0004024200840278001e029000750a9800d1
:1026fc0014002000010037000002eb0004007800f9
:10270c000080fa00000006000400fa001007980090
:10271c001e029000d40a90001e029000440a900001
:10272c000001eb008500780004007800a20407008b
:10273c0000027800040f78001e029000640a9000da
:10274c009e0f5200030036001e029000e40a900017
:10275c00050f78001e029000440a90009e0f520054
:10276c00040036001e029000440a90001e0f520016
:10277c00020037000002eb00040f78001e029000ec
:10278c00340290009e0f5200060031001e02900091
:10279c00041290008402e8001e02900005129800ba
:1027ac00090037001e02900004129000e00f520046
:1027bc00050032001e029000041290008402e90011
:1027cc001e029000051298001e02900084129000c8
:1027dc001e02900014129000848f52000f003900da
:1027ec001e029000841290001e02900014129000a1
:1027fc0004024200848f5200060039001e02900031
:10280c001412900004024200840278001e02900010
:10281c000512980014002000010037000002eb00a4
:10282c00040078000080fa00000006001400fa0092
:10283c0040479800310798004207980053079800ca
:10284c006407980075079800060f9800170f9800fa
:10285c003e029000f401b300340798000e0b900078
:10286c009e0b9000463add00ca32de0085027200f3
:10287c004632dd006e019000fe0190000400be00a7
:10288c00abf607000002be00048fbe00042020003f
:10289c00050020001e03be00840f5300858f5b00d3
:1028ac0003003e0014002000d4568800320037008c
:1028bc0034802000050020001e03be00840f53004e
:1028cc00858f5b000d003e0044002000d45688002c
:1028dc001e02be004e2bdd004222de0004027300fd
:1028ec00c22ade00048fbe00be029000e4ff2f005f
:1028fc0004826200340798001f003700f4002200a5
:10290c00050020001e03be00840f5300858f5b0062
:10291c000d003e0004012000d45688001e02be00ab
:10292c004c2bdd004422de0004027300c42ade00be
:10293c00048fbe00be029000d4ff2f000482620000
:10294c00340798000c00370004042000d45688008b
:10295c001e02be004a2bdd004622de00040273007c
:10296c00c62ade00048fbe00be029000c4ff2f00fa
:10297c000482620034079800041c2000050020002b
:10298c001e03be00840f5300858f5b0008003600c9
:10299c00d45680004322dd00d4568800be0290003d
:1029ac0034fe2f0004826200340798005700370071
:1029bc0004182000050020001e03be00840f5300e5
:1029cc00858f5b0009003600d45680006722b90061
:1029dc0004027800d4568800be02900074fe2f00ca
:1029ec000482620034079800480037000414200069
:1029fc00050020001e03be00840f5300858f5b0072
:102a0c0009003600d45680006622b9000402780012
:102a1c00d4568800be029000b4fe2f0004826200df
:102a2c0034079800390037000410200005002000fe
:102a3c001e03be00840f5300858f5b000900360017
:102a4c00d45680006522b90004027800d456880060
:102a5c00be029000f4fe2f0004826200340798003e
:102a6c002a003700040c2000050020001e03be00c5
:102a7c00840f5300858f5b0008003600d45680000d
:102a8c004222dd00d4568800be02900034ff2f0095
:102a9c0004826200340798001c00370004082000f0
:102aac00050020001e03be00840f5300858f5b00c1
:102abc0009003600d45680006322b9000402780065
:102acc00d4568800be02900074ff2f00048262006e
:102adc00340798000d003700040420000500200086
:102aec001e03be00840f5300858f5b000700360069
:102afc00d456800004024200d4568800be029000d6
:102b0c00b4ff2f000482620034079800d456800072
:102b1c004222dd00d45688004e429000e14f520014
:102b2c0004003a003e029000141188005e039000ed
:102b3c00061188004e429000e24f520004003a0009
:102b4c003e029000441188005e039000361188000c
:102b5c000080fa00000006000c00fa004007980004
:102b6c00214f98000042eb00044f78002e4a900051
:102b7c00e14f520054003a008500a9004e0290002b
:102b8c00241188000002eb0034079800180037006d
:102b9c003e0290000402e80034079800d4568000ee
:102bac00be029000848f52000300360034c0b30084
:102bbc00044f78000e00370005118000040420003b
:102bcc0004826200e00f52000300320044c0b300e4
:102bdc00044f780006003700041180006202620086
:102bec00e00f520002003a0014c0b300044f78000a
:102bfc001e427800e04f5200e5ff32002000370003
:102c0c003e0290000402e80034079800d45680007d
:102c1c00be029000848f52000300360034c0b30013
:102c2c00044f7800160037000511800004042000c2
:102c3c0004826200e00f52000300320044c0b30073
:102c4c00044f78000e00370025048000041020008b
:102c5c0004826200e00f52000300320024c0b30073
:102c6c00044f7800060037000411800061026200f6
:102c7c00e00f52000200320024c0b300044f780071
:102c8c001e427800e14f5200ddff32001e427800f8
:102c9c00e24f520005003a0024118000050020008c
:102cac00140798002507980007003700040020003f
:102cbc00151121001407980025079800e456800090
:102ccc000402e800e45688002e4a9000e24f5200bd
:102cdc004d003a008740a9004e0290005411880024
:102cec000002eb0034079800180037003e029000f9
:102cfc000402e80034079800d4568000be0290000d
:102d0c00848f52000300360034c0b300044f7800a7
:102d1c000e0037003511800004042000048262008c
:102d2c00e00f52000300320044c0b300044f78009f
:102d3c00060037003411800062026200e00f52007e
:102d4c0002003a0014c0b300044f78001e42780011
:102d5c00e04f5200e5ff3200190037003e029000b0
:102d6c000402e80034079800d4568000be0290009c
:102d7c00848f52000300360034c0b300044f780037
:102d8c000f0037003511800004042000048262001b
:102d9c00e00f52000300320044c0b300044f78002f
:102dac0007003700350480000440200004826200d4
:102dbc00e00f52000200320024c0b300044f780030
:102dcc001e427800e14f5200e4ff32001e427800b0
:102ddc00e24f520005003a0054118000050020001b
:102dec0014079800250798000700370004002000fe
:102dfc00151121001407980025079800f45680003f
:102e0c000402e800f45688001e029000ae02900006
:102e1c000400be000080fa00000006001400fa0056
:102e2c0040479800310798004207980053079800d4
:102e3c006407980075079800060f9800170f980004
:102e4c004e019000de0190006e009000fe0090009c
:102e5c0037f507000002be00048fbe001e0278008a
:102e6c004422dd00545788006e029000fe02900050
:102e7c0052cd2d00230320000400be002cf50700ca
:102e8c000002be001e1f12001e971a000082eb00eb
:102e9c008082eb001e0f42005e974a001e03be00ac
:102eac001400200005002000840f5300858f5b0068
:102ebc0003003e002400200005002000048fbe000b
:102ecc00f4ff2f00050020001e03be00840f5300ea
:102edc00858f5b00030036002400200005002000d5
:102eec00048fbe004e429000e04f520003003200af
:102efc004e429000e14f520004003a00be02900096
:102f0c00351088001e027800241088000080fa001a
:102f1c00000006000600fa00404798000002eb0093
:102f2c00140798004e429000e04f5200030032000c
:102f3c004e429000e14f520013003a000002eb00a9
:102f4c00040f78000b0037001e0fe8005457800068
:102f5c009e027800848f52000600360004a02f00d9
:102f6c0014079800445780000402e8004457880076
:102f7c000500370045108000040024000482620024
:102f8c00e00f5200f0ff3a001e029000040078009f
:102f9c000080fa00000006000600fa004047980086
:102fac000002eb00140798004e429000e04f5200d4
:102fbc00030032004e429000e14f520013003a00e1
:102fcc000602a8000002eb00040f78000b0037008b
:102fdc001e0fe800545780009e027800848f520028
:102fec000600360004a02f001407980044578000f8
:102ffc000402e800445788000400370034108000b5
:10300c0061026200e00f5200f1ff3a001e029000d4
:10301c00040078000080fa00000006000600fa00a8
:10302c00404798000002eb00140798004e429000b5
:10303c00e04f5200030032004e429000e14f52002c
:10304c0013003a000622a8000002eb00040f7800df
:10305c000b0037001e0fe800545780009e027800ca
:10306c00848f52000600360004a02f00140798002d
:10307c00445780000402e8004457880004003700dd
:10308c003410800062026200e00f5200f1ff3a003f
:10309c001e029000040078000080fa000000060078
:1030ac000600fa0040479800514798000002eb00d8
:1030bc00140798005e429000e04f5200030032006b
:1030cc005e429000e14f520028003a004e429000c0
:1030dc000482fb00141088000002eb00040f78003f
:1030ec000c0037001e0fe800545780009e02780039
:1030fc00848f52000700360004a02f00140798009c
:10310c00445780000402e800445788000000000087
:10311c001100370045108000040024000482620076
:10312c00e00f5200efff32000b0037001e0fe800db
:10313c00545780009e027800848f5200060036009f
:10314c0004a02f0014079800445780000402e800e4
:10315c004457880005003700451080000400240007
:10316c0004826200e00f5200f0ff3a001e02900051
:10317c00040078000080fa00000006000600fa0047
:10318c00404798000002eb00140798004e42900054
:10319c00e04f5200030032004e429000e14f5200cb
:1031ac002b003a000662a8000002eb00040f780026
:1031bc000c0037001e0fe800545780009e02780068
:1031cc00848f52000700360004a02f0014079800cb
:1031dc00445780000402e8004457880000000000b7
:1031ec00100037003410800068026200e00f5200bb
:1031fc00f0ff3a000b0037001e0fe8005457800018
:10320c009e027800848f52000600360004a02f0026
:10321c0014079800445780000402e80044578800c3
:10322c00040037004410800062026200e00f52007c
:10323c00f1ff32001e029000e00f520004003a0031
:10324c0005108000f40f200004826200140798001f
:10325c001e029000040078000080fa0000000600b6
:10326c000600fa00404798000002eb001407980093
:10327c004e429000e04f5200030032004e4290004c
:10328c00e14f520013003a000642a8000002eb0086
:10329c00040f78000b0037001e0fe8005457800015
:1032ac009e027800848f52000600360004a02f0086
:1032bc0014079800445780000402e8004457880023
:1032cc00040037003410800064026200e00f5200ea
:1032dc00f1ff3a001e029000040078000080fa0012
:1032ec00000006000600fa00404798000002eb00c0
:1032fc00040f78000002eb00140798004e42900077
:10330c00e04f5200030032004e429000e14f520059
:10331c0012003a0006a2a9000682a8000b00370092
:10332c001e0fe800545780009e027800848f5200d4
:10333c000600360004a02f001407980044578000a4
:10334c000402e80044578800040037003410800061
:10335c0070026200e00f5200f1ff3a001e02900072
:10336c00040078000080fa00000006000600fa0055
:10337c00404798000002eb00040f78000002eb00bd
:10338c00140798004e429000e04f520003003200a8
:10339c004e429000e14f520012003a0006a2a800e3
:1033ac000682a8000b0037001e0fe800545780005f
:1033bc009e027800848f52000600360004a02f0075
:1033cc0014079800445780000402e8004457880012
:1033dc00040037003410800070026200e00f5200cd
:1033ec00f1ff3a001e029000040078000080fa0001
:1033fc0000000600100190009000780001005100c0
:10340c000000e900f000b20000000600100190007e
:10341c009000780002805000f000b200000006001e
:10342c001170a6001a003700e40140009309e8006f
:10343c00900190001001e800f200b2000310e100ce
:10344c0010003200100178006a11b800e801400049
:10345c00828141006e815000921978006601410012
:10346c00b2197800b2197800b2197800b219780044
:10347c001001e800f200b20002087800e6014000fa
:10348c009309e900e60140009309e8001170a100de
:10349c00000006001170a600090037006e81500074
:1034ac001218780066014100321878003218780042
:1034bc0032187800321878001170a100080037001b
:1034cc00827f210002187800020020000218780088
:1034dc0002187800021878000218780031003700c2
:1034ec0000000600e40140009309e8009001900000
:1034fc001001e800f200b2000310e1000e003200ef
:10350c00100178006a11b800e80140008281410086
:10351c00b1197800b1197800b1197800b119780097
:10352c00b11978001001e800f200b200020878002e
:10353c00e60140009309e900e60140009309e80028
:10354c000000060010019000900178000310e100cb
:10355c0008003a00837f21008318780003002000c4
:10356c008318780083187800831878008318780003
:10357c000c0037006a11b8006801410000014100dd
:10358c00b2187800b2187800b2187800b218780027
:10359c00b2187800100190000201e800f200b200ad
:1035ac0012009800000006001130a700130037002d
:1035bc0010019000900178000310e1000f00320020
:1035cc006a11b8006801410000014100ee81500011
:1035dc00b2097800e6814100b2197800b21978007e
:1035ec00b2197800b21978001130a00010019000c7
:1035fc000201e800f200b200120098000000060080
:10360c001130a1006e815000300978006601410034
:10361c00301978003019780030197800301978009a
:10362c001130a000000006000018eb000018eb00a1
:10363c000018eb000008eb00000006000200fa0086
:10364c00000f78001e027800b40290002402900053
:10365c000400be00610007001e0278001402be00c8
:10366c000400be005d0007001e027800b40290004a
:10367c00240290000400be008c0007001e0278009b
:10368c001402be000400be00880007001e02780071
:10369c00240b9000b40b90001e027800940a90004a
:1036ac00040a90001e007800f00190001e007800c3
:1036bc00600190001e007800d00090001e00780081
:1036cc000048900059fc07000080fa00000006003a
:1036dc000c00fa0030079800410798005207980038
:1036ec00de029000f4ff2000048262005407980070
:1036fc00ce02900004002f00048262004407980060
:10370c00ce0290005e029000050272004407980001
:10371c000042eb00044f78003e0290001402be0001
:10372c000400be003e0007003e029000044a9000d8
:10373c00844078004e00900007fd07000002be0098
:10374c0014079800250798001e039000ae03900004
:10375c000400200015112100840f5300858f5b009d
:10376c0002003a0014c0b300044f78003e029000ef
:10377c001402be000400be00180007003e029000b8
:10378c00b4029000240290000400be002400070044
:10379c00000000000000000000000000000000001d
:1037ac003e029000b4029000240290000400be007f
:1037bc000a0007001e427800e04f5200030032005e
:1037cc00645780000402e800645788001e427800a9
:1037dc00044078000080fa0000000600016001003f
:1037ec00c422b70000000600ca22b7000000060081
:1037fc00d022b70000000600d622b7000000060059
:10380c000000000000000600e222b70000000600e5
:10381c00e822b700000006000000000000000600cf
:10382c000080ea0001600100c422b600000006001e
:10383c00ca22b60000000600d022b6000000060026
:10384c00d622b600000006000000000000000600b2
:10385c00e222b60000000600e822b60000000600d6
:10386c00000000000000060001600100c022b7004b
:10387c0000000600c622b70000000600cc22b700ec
:10388c0000000600d222b700000006000000000075
:10389c0000000600de22b70000000600e422b7009c
:1038ac000000060000000000000006000080ea0096
:1038bc0001600100c022b60000000600c622b6005e
:1038cc0000000600cc22b60000000600d222b60092
:1038dc00000006000000000000000600de22b6001a
:1038ec0000000600e422b600000006000000000004
:1038fc00000006000400fa00100798001e02900059
:10390c00c4029000050f7800a44d80000402e8006a
:10391c00a44d88000080fa00000006000400fa00a4
:10392c00100798001e029000c4029000050f78004a
:10393c00a44d80000402e800a44d88000080fa0029
:10394c00000006000400fa00100798001e02900008
:10395c00c4029000050f7800f4ff20001e0f6200d7
:10396c00a44d80000402e800a44d88000080fa00f9
:10397c00000006000000fa001400200074578800b4
:10398c000080fa00000006000000fa000080fa0037
:10399c00000006000000fa000080fa00000006009b
:1039ac000000fa000080fa00000006000000fa0097
:1039bc000080fa00000006000200e00005003b0059
:1039cc00020040000800310000002000e42aec0056
:1039dc00050037000200400003003900f0ff2f0003
:1039ec00e42aec00000037000101b8006218b800ae
:1039fc000100e00002003200f0ff2f00e42aec008e
:103a0c00cf10de0001007000000006000200e00094
:103a1c0005003b00020040000800310000002000bf
:103a2c00e62aec00050037000200400003003900d4
:103a3c00f0ff2f00e62aec00000037000101b8006f
:103a4c007018b8000100e00002003200f0ff2f00f7
:103a5c00e62aec00cc10de0001007000000006002d
:020000040000fa
:103a6c00ce0900000c01000000000000ec0a000070
:103a7c00020000000000000000080000ce01000061
:103a8c0000000000ee0a0000020000000000000030
:103a9c00e40a00000400000000000000e80a000036
:103aac000400000000000000da0a0000060000001c
:083abc00000000000000000002
:020000040000fa
:103ac400f03fb1000180b10006003500ee030900ab
:103ad40000000000403fb1000180b100fbff3d0049
:103ae4001000b000203fb000020035000080090043
:083af4000000000000000600c4
:020000040000fa
:0200000401f009
:04000000ecbb000055
:020000040000fa
:0200000401f009
:04000400e7ff000012
:020000040000fa
:0200000401f009
:040008004cff0000a9
:020000040000fa
:0200000401f009
:04000c00ffff0000f2
:020000040000fa
:0200000401f009
:04001000ffff0000ee
:020000040000fa
:0200000401f009
:04001400ffff0000ea
:020000040000fa
:0200000401f009
:04001800ffff0000e6
:00000001FF
