:020000040000fa
:080000000001040000000000f3
:020000040000fa
:100008009a0100009a0100009a0100009a0100007c
:100018009a0100009a0100009a0100009a0100006c
:100028009a0100009a0100009a0100009a0100005c
:100038009a0100009a0100009a0100009a0100004c
:100048009a0100009a0100009a010000741500004e
:100058009a0100009a0100009a0100009a0100002c
:100068009a0100009a0100009a0100009a0100001c
:100078009a0100009a0100009a0100009a0100000c
:100088009a0100009a0100009a010000800d00000a
:100098009a0100009a0100009a0100009a010000ec
:1000a8009a0100009a0100009a0100009a010000dc
:1000b800441500009a010000b20d00009a010000ea
:1000c8009a0100009a0100009a0100009a010000bc
:1000d8009a0100009a0100009a0100009a010000ac
:1000e8009a0100009a0100009a0100009a0100009c
:0800f8009a0100009a010000ca
:020000040000fa
:100108009a0100009a0100009a0100009a0100007b
:100118009a0100009a0100009a0100009a0100006b
:100128009a0100009a0100009a0100009a0100005b
:100138009a0100009a0100009a0100009a0100004b
:100148009a0100009a0100009a010000741500004d
:100158009a0100009a0100009a0100009a0100002b
:100168009a0100009a0100009a0100009a0100001b
:100178009a0100009a0100009a0100009a0100000b
:100188009a0100009a0100009a010000800d000009
:100198009a0100009a0100009a0100009a010000eb
:1001a8009a0100009a0100009a0100009a010000db
:1001b800441500009a010000b20d00009a010000e9
:1001c8009a0100009a0100009a0100009a010000bb
:1001d8009a0100009a0100009a0100009a010000ab
:1001e8009a0100009a0100009a0100009a0100009b
:0801f8009a0100009a010000c9
:020000040000fa
:10020000cfba20000e7f22000e01880000000000ff
:10021000000020000000e000020032000001200089
:10022000200288000c000700c0aa22000100200064
:1002300011000700000020000000e0000200320072
:100240000000020000000000221002000000000078
:100250000040da000000fe004440a9000004200035
:100260000000e0000300320000002000a001880030
:100270004440a8000000060091018800800078003a
:100280000000eb0015003700e280400032a0b4000f
:100290009101ba00e280400032a0b4009102ba009d
:1002a000e280400032a0b4000002eb00472bde00e9
:1002b000f507b200602ce10004003a000059eb00a1
:1002c0008301e900fdff3e00040037006128e100e2
:1002d000010032000082eb00040007001101ba00a7
:1002e0000200e000e8ff3a00000006003159ba00c1
:1002f0008301e9000c0032002159ba008301e900b2
:10030000080032000400e00003003a00e2804000f0
:1003100032a0b400f5ff370011d9ba008301e9001b
:10032000faff3a008100e800e180400032a0b4000a
:10033000000006000040da000000fe0003f0a2000a
:10034000889fbe008a9fbe008c1f7800b500070002
:10035000bc0033006450e1004f0032006420e10033
:100360005200320003826c0007003b000905d000f8
:100370000306d000820f54000c065d000200390015
:10038000020032008901780003067800858255005a
:1003900004003d000003fd008103fd008502ea002a
:1003a0008b854200840f720002003b006000100049
:1003b000e08018006011b8000005eb007a28e10029
:1003c0000a00390006007800c75ddd00f707b200bb
:1003d000878075002d003700828171000a01780046
:1003e000610560008180d1000080d3008502e900b2
:1003f000f9ff3b00060440008784480002003b00f0
:1004000060041400e0841c000988a3000700320087
:100410008a81710082817100610164008904d100c8
:100420000884d3008b05e800170037000978a30083
:1004300013003a000b00e000130034008b05e900c4
:100440000804440089844c000a4474000978a3001d
:100450000d003a000b00e000070034008b05e900b6
:100460000804440089844c0001003a000b0020007d
:100470000978a300f7ff32000001eb00020037000b
:10048000828171000a0178002b0007000cf0a700a0
:1004900001f0a000740037006420e10002003a007f
:1004a000838f6c00740033000801be000200be00a0
:1004b0006d00370014002000b6003700f4ff2f0055
:1004c000b40037000001be00410007000470a7001f
:1004d00003f0a10003f8a30013003a006509b1007e
:1004e00010003200090035006928e10002003500e3
:1004f0000100280000000500000040008180480045
:100500008502e900fcff3a0000000600f88f420077
:10051000050035008100d1000080d3008502e8008d
:10052000fcff3a00000006008000eb000000050020
:100530006011b800b20037008100200061805500d2
:100540000b003d000b00200061fe2f000100e100c8
:100550001d00340082817100610164008904d100b2
:100560000884d3000000e800faff3a007100200080
:1005700061006400030070000200600009003200a6
:1005800061044400e0844c000988a50005003200a5
:100590008b05e8006808e10002003a008904d100f8
:1005a0000884d300f20f20000258e10005003d004e
:1005b000c75ddd00f907b20089807500080078008a
:1005c000000006000bf827008b00780000000500f3
:1005d000c70ade00f107b200f50fb20008003200d2
:1005e000e1cf4200020032000170a00024000500ab
:1005f000810f70000100320004080500440005006e
:10060000810f700002003a00140005008502e90025
:100610000000400081c04800fcff3b000170a000ca
:10062000240005000004be00e9ff07000003be002f
:100630000405be000200be00e5ff0700844f750000
:10064000000006000200be006450e1000500360014
:100650006420e100020036000968a30001003a00ae
:100660000800be000160a0004f0678004f05be00e4
:100670004f04be0000000600f0ff2f00f1ff27002e
:10068000f9ff3700889fbe008a9fbe008c1f78004c
:10069000e4ff0700ebff330003866c006450e100c9
:1006a000240032006420e100270032006150e100a4
:1006b000220032006120e100210032008b854200df
:1006c000eb07b1000134b800003ab800080442005a
:1006d00089844a00013ab8000030b80088804000a0
:1006e00009014a00040033000000400081804800f6
:1006f000020149008b05e900c909dd008301700092
:100700000100320013002000c814de004814dd0090
:100710004709de001200b200c808de00088470003d
:1007200085ff070001f0a1000cf0a70001f0a00078
:10073000cdff37006120e100cfff32000801be008d
:100740000200be00f7ff37006150e100fcff3a00f5
:10075000c9ff37006022b800060220000000d00068
:100760008180d2000482d2008582d2000000a000e5
:100770000202520083825a0003003100020242004a
:1007800083824a000000a1000603e900f3ff3a005b
:1007900000000600889fbe008a9fbe00841f78006c
:1007a000a0ff07004f00780011003300f0ff2f007a
:1007b000838f6c0006003b00040565000a00a7005b
:1007c0000800370009f0a6001000200008003700dc
:1007d000820f5400838f5c0003003900100020005a
:1007e00001003e000000200009f0a7000000ea0020
:1007f0004f05be004f04be000000e00000000600f0
:10080000889fbe008a9fbe000082700004027100b3
:1008100004827100260032000004be000200be0007
:100820006011b8006b092000950220000182cf0002
:100830000a0039000541b1000082cf0007003900ed
:100840000541b1000982cf00040039000541b10023
:100850000882cf00010039000541b1000542520075
:10086000120032000a003b008281710061016400c5
:100870008100d1000080d3008984d3000884d30094
:100880008b05e8000442e800f7ff3a000700370054
:100890000804440089844c0000004800818048001e
:1008a0008b05e9000442e900f9ff3a0022ff070046
:0c08b0004f05be004f04be000000060013
:020000040000fa
:1008bc00000000000080000000000000008000002c
:1008cc00000000000080000000000000008000001c
:1008dc00000000000080000000000000008000000c
:1008ec0000000000008000000000000000800000fc
:1008fc0000000000000000000000000000000000ec
:10090c0000000000000000000000000000000000db
:10091c0000000000000000000000000000000000cb
:10092c0000000000000000000000000000000000bb
:020000040000fa
:10093c001200fa002007980032079800430798002d
:10094c00510798006407980075079800060f9800e7
:10095c000e0a9000e70f52000200360074002000cf
:10096c00040f98005e029000b45088006e02900054
:10097c00fe029000c4508800d5508800d45c8000e2
:10098c000402e800d45c8800848b20008002eb0019
:10099c00050a7800848b20008002eb001502980079
:1009ac00848b20008002eb0025029800848b2000b1
:1009bc008002eb00350298000002eb0064428800d4
:1009cc00d45c800044458800e45c80003445880099
:1009dc00e3030700008c2000ee1107008096200036
:1009ec00ec1107003e029000ce029000048fbe0076
:1009fc001e02be00482bdd004822de0004027300fc
:100a0c00c82ade00048fbe001e02be00a200200019
:100a1c00030020000400be004bff07000002be00d4
:100a2c00048fbe00f4ff2f00050020001e03be0043
:100a3c00840f5300858f5b0003003600f4ff2f00fa
:100a4c0005002000048fbe0054fb2500f40888002c
:100a5c001e027800d40888000002eb00a40888006d
:100a6c0086a0a9008ea0a9001fe1a8003e0290005c
:100a7c00ce029000048fbe001e02be00482bdd008b
:100a8c004822de0004027300c82ade00048fbe0078
:100a9c001e02be004e2bdd004222de00040273005b
:100aac00c22ade00048fbe00f4ff2f0005002000d8
:100abc001e03be00840f5300858f5b0003003600bd
:100acc00f4ff2f0005002000048fbe00d4fb25008e
:100adc00040988001e027800e408880086c0a9007a
:100aec008ec0a90021e1a800c4508000d550800020
:100afc000400be00481207002e029000e20f5200c4
:100b0c0071003200a4392000e450880064392000c0
:100b1c00f4508800e438200004518800e4372000a9
:100b2c0014518800e436200024518800e43520005c
:100b3c0034518800e4342000445188008f60a900af
:100b4c008760a9000e0a9000044278006742620098
:100b5c000482fb00670262004c22dd000605800067
:100b6c00f5ff280085026300050272000405880069
:100b7c000002eb00b41c88009803a8009823a8007e
:100b8c009843a80098a3a80004402000841c880067
:100b9c0000000000851c8000040e2000848262008e
:100bac0004082000848f5200faff3a003e039000a4
:100bbc00ce03900004842700d5172000840f530027
:100bcc00858f5b0003003a0044002000941c8800d1
:100bdc00130037003e039000ce03900004d0220097
:100bec0015132000840f5300858f5b0003003a001f
:100bfc0034002000941c8800090037003e0390004c
:100c0c00ce0390000468290085092000840f53004e
:100c1c00858f5b0002003a0014002000941c8800b1
:100c2c00a4392000a41c8800c4ff2100841988006a
:100c3c00c4ff2100c41988000002eb0004188800ce
:100c4c000410200044188800b4508000c222dd003b
:100c5c0004c02000050272008418880014002000d3
:100c6c00741b880024002000f41a88003400200033
:100c7c00741a8800040c2000241b8800040c20002b
:100c8c00a41a8800040c2000241a88000002eb002f
:100c9c00741c88000002eb00f41b88000002eb00bf
:100cac00841c880000000000851c8000040e2000bd
:100cbc0004826200e00f5200fbff3a008f60a80034
:100ccc0090c0a9006d003700a4452000e4508800b6
:100cdc0064452000f4508800e4442000045188004e
:100cec00e443200014518800e44220002451880081
:100cfc00e441200034518800e44020004451880035
:100d0c0090c0a90088c0a9000e0a90000442780087
:100d1c00674262000482fb00670262004822dd0029
:100d2c0036058000f58f2f008502630005027200e6
:100d3c00340588000002eb00b42288005804a80097
:100d4c005824a8005844a80058a4a8000440200027
:100d5c00842288000000000085228000040e200000
:100d6c008482620004082000848f5200faff3a004b
:100d7c003e039000ce03900004842700d51720007a
:100d8c00840f5300858f5b0003003a004400200061
:100d9c0094228800130037003e039000ce0390008d
:100dac0004d0220015132000840f5300858f5b00a4
:100dbc0003003a0034002000942288000900370018
:100dcc003e039000ce0390000468290085092000a2
:100ddc00840f5300858f5b0002003a001400200042
:100dec0094228800a4392000a4228800c4ff21008a
:100dfc00841f8800c4ff2100c41f88000002eb0080
:100e0c00041e880004102000441e880004c020002a
:100e1c00841e880014002000742188002400200007
:100e2c00f42088003400200074208800040c20007a
:100e3c0024218800040c2000a4208800040c20002d
:100e4c00242088000002eb00742288000002eb00d2
:100e5c00f42188000002eb008422880000000000ce
:100e6c0085228000040e200004826200e00f5200f4
:100e7c00fbff3a0090c0a8008f60a9000080fa0028
:100e8c00000006001000fa00008fbe002207980038
:100e9c003307980044079800550798006607980098
:100eac00770798001e027800d44188001e02be000d
:100ebc00402ade0005002000048fbe001e027800d0
:100ecc00c44188002e029000e44188003e0290004c
:100edc00f44188004e029000144288005e0290009b
:100eec00244288006e029000344288007e029000fa
:100efc00044288000080fa00000006000000fa009e
:100f0c0048000700eb0007005102070060020700d1
:100f1c00043a800054458800e45080009402780024
:100f2c0004f02f00848262007644800004f02f00cd
:100f3c0004026300848f52000b003600754480005d
:100f4c00f40f200004826200744488007544800011
:100f5c00e45080001403780004f02f0004026300b6
:100f6c000482420074448800e450800094027800ab
:100f7c00f40f20008482620076448000f40f20007d
:100f8c0004026300848f52000b003600754480000d
:100f9c0004f02f00048262007444880075448000c1
:100fac00e450800014037800f40f20000402630066
:100fbc0004824200744488000080fa00000006009d
:100fcc000e00fa005007980061079800b45080009a
:100fdc004222dd00040f78006e0290001407980086
:100fec005e029000e00f5200030032000082eb0022
:100ffc0024079800020037000002eb002407980039
:10100c0044518000840078000e00780057100700cf
:10101c00644480000402e800644488000080fa0004
:10102c00000006000a00fa00050037008e00780068
:10103c00008c20001e1007000e0078000b0007002b
:10104c00008c2000cc0f070000027800e00f52004b
:10105c00f6ff3a00744b800004458800344680004b
:10106c00144588000080fa00000006000400fa0015
:10107c00100798001e029000c4029000050f780023
:10108c0004002f009e026200b45080004c22dd0050
:10109c00848f520004003200d44480000402e80023
:1010ac00d444880025003700f4ff20001e0f620096
:1010bc00f40f20009e027800848f520003003e0043
:1010cc001e0090001f0007001c003700f41f2000ba
:1010dc009e027800848f520003003e001e00900098
:1010ec002f00070015003700f43f20009e02780007
:1010fc00848f520003003e001e0090006c07070016
:10110c000e003700f48f20009e027800848f52006e
:10111c0007003600f49f20009e027800848f520056
:10112c0003003e001e009000310007000300370052
:10113c00d44480000402e800d44488000080fa0003
:10114c00000006000400fa00100798001e02900030
:10115c00c4029000050f7800f4ff20001e0f6200ff
:10116c001e027800e10f520003003200e30f520020
:10117c0003003200040037000000fe0006003700b8
:10118c005f0c070004003700d44480000402e80020
:10119c00d4448800000000000080fa000000060023
:1011ac000400fa00100798001e029000c402900080
:1011bc00050f7800f4ff20001e0f62001e02900045
:1011cc0014029000840078001e0078005707070076
:1011dc001e029000a40290001e02e8008500780018
:1011ec0004007800510707000080fa000000060098
:1011fc000e00fa00600798006e029000c402900086
:10120c00050f7800f4ff20001e0f620004802f00f1
:10121c001e0f4200b4508000c222dd0004002100e9
:10122c0005027200140798006e029000c402900030
:10123c0004802f0004824200540798000002eb0047
:10124c00440798001e02e80004007800bc07070061
:10125c0000027800340798001e007800b8070700d9
:10126c0000027800240798000e82e80084007800c1
:10127c0080962000760f070024518000140278001d
:10128c0068026200e00f520008003a00750480000a
:10129c000480200004826200e00f52000200320041
:1012ac008760a8000100370088c0a8000080fa0001
:1012bc00000006000000fa00350480000402200043
:1012cc0004826200e00f5200f500320086a0a900f3
:1012dc00845080000402e800845088008450800010
:1012ec00e90f5200080036000002eb008450880021
:1012fc00945080000402e8009450880094508000c0
:10130c006302620094508800e7000700845080005c
:10131c00050020009600200007002000860f5200d8
:10132c00878f5a00de003e00046001000900370080
:10133c00120037001b003700240037002d00370047
:10134c00360037003f003700580037007100370077
:10135c00a100370044408000574080006640800068
:10136c0075408000870178000601780085007800c0
:10137c0000042000fc000700c900370084408000f6
:10138c0097408000a6408000b5408000870178001f
:10139c00060178008500780000052000f2000700a7
:1013ac00bf003700c4408000d7408000e64080007a
:1013bc00f5408000870178000601780085007800f0
:1013cc0000062000e8000700b5003700044180004b
:1013dc00174180002641800035418000870178004c
:1013ec00060178008500780000072000de00070069
:1013fc00ab003700444180005741800066418000bb
:10140c00754180008701780006017800850078001e
:10141c0000082000d4000700a100370084418000a0
:10142c0097418000a6418000b5418000870178007b
:10143c00060178008500780000092000ca0007002a
:10144c009700370094508000e00f520003003200e8
:10145c0094508000e20f52000a003a00744380005e
:10146c006743800056438000454380008701780025
:10147c00060178008500780000102000ba000700f3
:10148c0087003700b4438000a74380009643800058
:10149c00854380008701780006017800850078007c
:1014ac0000112000b00007007d0037009450800030
:1014bc00e00f52000300320094508000e20f520003
:1014cc000a003a00f4438000e7438000d6438000d2
:1014dc00c5438000870178000601780085007800fc
:1014ec0000122000a00007006d003700344480007b
:1014fc002744800016448000054480008701780052
:10150c000601780085007800001320009600070083
:10151c006300370094508000e00f52000a003a003c
:10152c007444800067448000564480004544800029
:10153c0087017800060178008500780000202000e3
:10154c00890007005600370094508000e10f5200cc
:10155c000a003a00b4448000a744800096448000fe
:10156c0085448000870178000601780085007800aa
:10157c00002120007c0007004900370094508000b7
:10158c00e20f52000a003a00f4448000e744800065
:10159c00d6448000c544800087017800060178009d
:1015ac0085007800002220006f0007003c00370007
:1015bc003445800027458000164580000545800095
:1015cc008701780006017800850078000023200050
:1015dc00650007003200370094508000e00f520085
:1015ec000a003a00f4418000e7418000d6418000b7
:1015fc00c5418000870178000601780085007800dd
:10160c00000e200058000700250037009450800081
:10161c00e10f52000a003a00344280002742800059
:10162c001642800005428000870178000601780090
:10163c0085007800000f20004b00070018003700d1
:10164c0094508000e20f52000a003a00744580006a
:10165c00674580005645800045458000870178002d
:10166c000601780085007800002820003e00070065
:10167c000b003700648b200014027800a745800013
:10168c00964580008545800087017800060178002a
:10169c0085007800002920003300070000000000be
:1016ac000080fa00000006000a00fa00b450800026
:1016bc00c222dd000404210005027200040f780030
:1016cc000480200014027800140798002480200065
:1016dc00140278002407980044802000140278003b
:1016ec00340798000002eb00440798003451800046
:1016fc00840078000e0078009c0e07005444800093
:10170c000402e800544488000108a9000128a9003b
:10171c000148a9000168a9000188a90001a8a90035
:10172c0001c8a90001e8a9000080fa000000060029
:10173c000a00fa00000f78001107980022079800a1
:10174c0033079800440798004e029000be019000a9
:10175c002e0190009e0090001e00780002000700f1
:10176c000080fa00000006001400fa0050079800f0
:10177c006107980072079800030f9800140f9800e7
:10178c00b4508000de0290000502720054079800ed
:10179c00de029000044020000502720054079800fd
:1017ac005e0290004222dd00540798005e02900019
:1017bc00040f78009e02780004f02f00048262006f
:1017cc00040f78001e0278004322dd00040f78001d
:1017dc009e0278005e039000f40f20000402630068
:1017ec0005027200040f78001e0a9000140798007e
:1017fc000e0a9000240798007e029000340798008f
:10180c006e029000440798008e00780080962000ad
:10181c000f0e070024518000140278006802620049
:10182c00e00f520008003a0075048000048020008c
:10183c0004826200e00f5200020032008760a800b0
:10184c000100370088c0a8000080fa0000000600e4
:10185c000000fa00350480000404200004826200b9
:10186c00e00f52000800320086c0a9003445800009
:10187c000402e8003445880034458000e45c8800ac
:10188c0014002000644288000080fa00000006006a
:10189c000000fa00a4508000e00f520005003a004e
:1018ac000440800061026200e00f5200010032002f
:1018bc007dff070004408000614262000482fb004f
:1018cc00a45088000080fa00000006000200fa0014
:1018dc00000f7800848b20009e0278009502900007
:1018ec00050a78001e027800a4029000848b200068
:1018fc00150298001e027800b4029000848b200020
:10190c00250298001e027800c4029000848b2000ef
:10191c0035029800848b2000140278005451880002
:10192c00848b20001402900064518800848b20006a
:10193c002402900074518800848b200034029000a3
:10194c00845188000060fe000002eb0064428800b5
:10195c000002eb00c40888000080fa0000000600ba
:10196c000000fa000002eb00444388000002eb0088
:10197c00544388000002eb00644388000002eb0033
:10198c00744388000002eb00844388000002eb00e3
:10199c00944388000002eb00a44388000002eb0093
:1019ac00b44388000002eb00c44388000002eb0043
:1019bc00d44388000002eb00e44388000002eb00f3
:1019cc00f44388000002eb00044488000002eb00a2
:1019dc00144488000002eb00244488000002eb0051
:1019ec00344488000002eb00444488000002eb0001
:1019fc00544488000002eb00644488000002eb00b1
:101a0c00744488000002eb00844488000002eb0060
:101a1c00944488000002eb00a44488000002eb0010
:101a2c00b44488000002eb00c44488000002eb00c0
:101a3c00d44488000002eb00e44488000002eb0070
:101a4c00f44488000002eb00044588000002eb001f
:101a5c00144588000002eb00244588000002eb00ce
:101a6c00344588000002eb00444588000002eb007e
:101a7c00544588000002eb00644588000002eb002e
:101a8c00744588000002eb00844588000002eb00de
:101a9c00944588000002eb00a44588000002eb008e
:101aac00744b88000002eb00344688000002eb0007
:101abc00d45c88000002eb00e45c880041e7a900dc
:101acc0041c7a90040e7a9004087a9004067a900c9
:101adc004047a9004027a9004007a90040c7a9001a
:101aec00f45080008002eb00050a78000080fa00b8
:101afc00000006003600f800809fbe00829fbe00ea
:101b0c00849fbe00869fbe00889fbe004400f800e4
:101b1c004200f8000000fa008760a900280280004b
:101b2c00190280002500070019028800280288008d
:101b3c000080fa004200f9004400f9004f04be0096
:101b4c004f03be004f02be004f01be004f00be004f
:101b5c003600f900004006003600f800809fbe00f9
:101b6c00829fbe00849fbe00869fbe00889fbe00e1
:101b7c004400f8004200f8000000fa0088c0a900f8
:101b8c0028028000190280000c000700190288004e
:101b9c00280288000080fa004200f9004400f90095
:101bac004f04be004f03be004f02be004f01be00eb
:101bbc004f00be003600f900004006000a00fa0093
:101bcc00b5448000f45080001402780005027200c5
:101bdc00b44488000451800094027800040820006a
:101bec0004826200e00f5200200032000451800099
:101bfc001402780061026200e00f52000c003a00ff
:101c0c00844480000402e80084448800045180006d
:101c1c00840078000e007800f90c07002e0290006a
:101c2c00444288001e02900054428800090037008c
:101c3c00944480000402e80094448800045180001d
:101c4c00840078000e007800ed0c07000e00780080
:101c5c001eff0700f4508000f5508000150378003b
:101c6c00e5ff2f0085026300050a780014518000ff
:101c7c00940278000408200004826200e00f5200f5
:101c8c000d003200a44480000402e800a444880043
:101c9c001451800084007800008c2000bb0c0700dd
:101cac00f4508000f550800015037800d5ff2f000c
:101cbc0085026300050a7800245180001402780024
:101ccc0068026200e00f520012003a008096200079
:101cdc00a90c070000027800e00f52000d00320042
:101cec00245180008400780080962000090d0700a4
:101cfc00f4508000f550800015037800b5ff2f00dc
:101d0c0085026300050a7800444480000402e80060
:101d1c0044448800f45080009402780004022000af
:101d2c0004826200e00f52000f003200b5448000c4
:101d3c00f45080001402780005027200b44488004c
:101d4c00f44480000402e800f4448800f45080005d
:101d5c00f550800015037800f5fd2f008502630017
:101d6c00050a780010003700c4508000d550800060
:101d7c000400be00ba0d070000027800e00f52000c
:101d8c0005003200c4508000d55080000400be0015
:101d9c007e0d070004003700c4508000d550800031
:101dac000400be00680d07000080fa000000060069
:101dbc000400fa00000f7800110798001e0278004a
:101dcc00ef0f520007003e001e0278008402420012
:101ddc0084862000048242009e029000050a78004e
:101dec0001003700000000000080fa00000006002f
:101dfc000000fa0044428000040078000080fa00e1
:101e0c00000006000000fa00544280000400780034
:101e1c000080fa00000006000000fa006442800016
:101e2c00040078000080fa00000006000000fa00b0
:101e3c00848b20001402780061026200e00f5200d3
:101e4c00020032000082eb00010037000002eb00c0
:101e5c00040078000080fa00000006000000fa0080
:101e6c00848b20001402780062026200e00f5200a2
:101e7c00020032000082eb00010037000002eb0090
:101e8c00040078000080fa00000006000000fa0050
:101e9c00848b20001402780064026200e00f520070
:101eac00020032000082eb00010037000002eb0060
:101ebc00040078000080fa00000006000000fa0020
:101ecc00848b20001402780068026200e00f52003c
:101edc00020032000082eb00010037000002eb0030
:101eec00040078000080fa00000006000000fa00f0
:101efc00848b20001402780070026200e00f520004
:101f0c00020032000082eb00010037000002eb00ff
:101f1c00040078000080fa00000006000000fa00bf
:101f2c00848b200094027800040028000482620054
:101f3c00e00f5200020032000082eb00010037007b
:101f4c000002eb00040078000080fa00000006009c
:101f5c000000fa00848b20009402780004402000da
:101f6c0004826200e00f5200020032000082eb009b
:101f7c00010037000002eb00040078000080fa003a
:101f8c00000006000000fa00848b20009402780008
:101f9c000480200004826200e00f52000200320034
:101fac000082eb00010037000002eb000400780017
:101fbc000080fa00000006000000fa00848b20006c
:101fcc00940278000400210004826200e00f5200a9
:101fdc00020032000082eb00010037000002eb002f
:101fec00040078000080fa00000006000000fa00ef
:101ffc00848b20009402780004002200048262008a
:10200c00e00f5200020032000082eb0001003700aa
:10201c000002eb00040078000080fa0000000600cb
:10202c000000fa00848b2000140290000400780059
:10203c000080fa00000006000000fa0004012000f5
:10204c005452880001000700feff37000000fa0020
:10205c005452800005022000850f52000900320006
:10206c0005032000850f520009003200f00f5200ca
:10207c000a003a0080010700040220005452880034
:10208c00090037009dfb07004501070006003700db
:10209c000700070099fb070003003700040120002c
:1020ac0054528800000000000080fa000000060076
:1020bc000200fa00889fbe00745c8000e00f5200a2
:1020cc00020032000002eb00745c880080ac20003f
:1020dc006307070074568000545c880074568000b7
:1020ec00545c8800250480000408200004826200ef
:1020fc00e00f52007b00320084e0a900e0a9200030
:10210c005707070040a720005507070080ac2000a8
:10211c005307070020af200051070700c0b1200073
:10212c004f07070060b420004d07070024558000be
:10213c00040f78001e027800050020000400be0089
:10214c00f8f807000004be001e027800050020000d
:10215c000400be00f3f807000002be000401be003c
:10216c0000002800b153240071f807000002be00e3
:10217c000403be000802be000601be0080a52000bc
:10218c005b0007000002be000400be00caf8070096
:10219c000002be0004027800645288006452800081
:1021ac00840078008000200001ff07006552800049
:1021bc00044b2000848f520002003600044b200098
:1021cc006452880064528000840078007000200003
:1021dc00f7fe0700e0a92000600707000002780066
:1021ec00e00f5200020032000248a8000100370044
:1021fc000248a900e0a9200082070700000278002d
:10220c00e00f5200020032000268a8000100370003
:10221c000248a900645280000401780001002100ea
:10222c0020a32000050c0700c45780008400780010
:10223c0010002000defe0700145980008400780096
:10224c0020002000dafe0700645a80008400780029
:10225c0030002000d6fe0700f4fe070000027800d4
:10226c00e00f520003003200248020008002eb00bb
:10227c00050a7800e0a92000620707000002780038
:10228c00e00f5200020032000268a8000100370083
:10229c000268a90040a72000300707000002780060
:1022ac00e00f5200020032000228a80001003700a3
:1022bc000248a9002480200014027800e00f52008c
:1022cc00020032000008a800010037000008a90035
:1022dc0064528000040178000100210020a320003a
:1022ec00d60b07004f04be000080fa000000060069
:1022fc001600fa00889fbe006007980072079800cd
:10230c00030f9800140f9800250f98006e02900090
:10231c00b40a9000240a90007e0190008e0990006f
:10232c000400be00d4f807000002be00048fbe00fb
:10233c006e029000b4029000240290007e01900086
:10234c008e0990000400be00faf707000002be00e0
:10235c006e03900024039800350398006e029000e1
:10236c0024039000b40390006e029000d4029000fd
:10237c004402900018c0b3000401be000600be0069
:10238c004bf8070000027800e00f520001003c00ff
:10239c000044eb00e04f5400070032006e02900046
:1023ac00d4029000440290006e0390002403980025
:1023bc0035039800160037006e029000240390003d
:1023cc00b40390006e029000f4029000640290003e
:1023dc0018c0b3000401be000600be0032f80700ae
:1023ec0000027800e00f5200010035000044eb00c1
:1023fc00e04f5400060032006e029000f402900090
:10240c00640290006e03900024039800350398003a
:10241c006e029000040b9000940b90006e029000e2
:10242c00b4029000240290000401be000600be001d
:10243c0091f807000002be002407980035079800a9
:10244c006e029000440c9000d40c90006e02900030
:10245c001402be000401be001e089000ae089000dd
:10246c00b3f707000002be000401be000800be0066
:10247c0081f807000002be00440798005507980039
:10248c006e0290001e0b9000ae0b9000068abe00f0
:10249c007e0090008e08900007f807000002be0036
:1024ac0004027800840078009000200040fe0700b1
:1024bc001e00be0000f807000002be0004027800f7
:1024cc0084007800a000200039fe07002e00900048
:1024dc00be009000f8f707000002be00040278006e
:1024ec0084007800b000200031fe07004e00900000
:1024fc00de009000f0f707000002be000402780036
:10250c0084007800c000200029fe07002e019000f6
:10251c00be0190001e00be0086f707000002be0040
:10252c004e019000de0190000400be0080f7070011
:10253c000002be0018c0b3006011b8000400be0059
:10254c00d9f7070000027800e00f520001003500b7
:10255c000044eb00e04f5400030032000400200064
:10256c0005f823000a0037002e019000be019000f0
:10257c001e00be006ff707000002be004e01900067
:10258c00de0190000400be0069f707000002be00e7
:10259c000400be004f04be000080fa0000000600dc
:1025ac000800fa000002eb00040f780025048000fc
:1025bc000408200004826200e00f52002c0032005c
:1025cc0084e0a90020af200025060700c0b1200040
:1025dc002306070060b4200021060700c4578000c2
:1025ec00140798001459800024079800645a80003e
:1025fc00340798009e02900004962000848f5200ad
:10260c00170036009e02900074a22000848f5200a6
:10261c0013003e00ae02900004962000848f5200fe
:10262c000f003600ae02900074a22000848f52007e
:10263c000b003e00be02900024622000848f5200ea
:10264c0007003600be029000946e2000848f52006a
:10265c0003003e000403200054528800040037009d
:10266c001e027800e40f5200010034000048a8005c
:10267c000080fa00000006000000fa002480200010
:10268c008002eb00050a7800048020008002eb0039
:10269c00050a7800448020008002eb00050a7800cf
:1026ac00648020008002eb00050a7800340580006d
:1026bc000400a0000410a0000420a0003405880031
:1026cc008260a9008880a9009080a800c4048000c2
:1026dc0004c0a10004d0a00004e0a000c404880041
:1026ec0004002c0004168800b44f20003416880017
:1026fc000002eb00641688000002eb0094168800c0
:10270c00f4142000f41688000002eb002417880053
:10271c000002eb00845288000002eb007452880027
:10272c0044002000a500200094518800a551880089
:10273c0084002000a5002000b4518800c5518800f9
:10274c0014c0b300040078003aeab700f453200038
:10275c00e45188000002eb00f451880004002a00c8
:10276c000452880004242400f50020001452880030
:10277c0025528800046829008509200034528800fd
:10278c004552880020a32000870a07000048a900b2
:10279c00d4f92d00940888000002eb00540888003e
:1027ac0084e0a900440d230074088800f4cf2700ae
:1027bc0004158800e4fd20001415880034472e0011
:1027cc0024158800242e2e003415880074302e0019
:1027dc004415880084cf2100541588008560a90019
:1027ec008d60a800a1e2a800f4282c0055d7230086
:1027fc0084538800955388006022b800c452880026
:10280c00d55288006022b800e4528800f552880046
:10281c00d4cc2c00c5d423004453880055538800d5
:10282c00d4cc2c00c5d42300645388007553880085
:10283c0004002500357424000453880015538800c7
:10284c006022b80024538800355388000002eb0046
:10285c006452880064528000040178000100210059
:10286c0020a32000750a070014272000e4538800d9
:10287c000002eb00f4538800040028000454880084
:10288c000002eb0014548800040028002454880033
:10289c000002eb0034548800047721004454880073
:1028ac0084132000345588000002eb004455880046
:1028bc0004002800545588000002eb006455880081
:1028cc0004002800745588000002eb008455880031
:1028dc0044b52000a455880044ce200094558800af
:1028ec00e4032000845688000002eb009456880014
:1028fc0004002800a45688000002eb00b45688009f
:10290c0004002800c45688000002eb00d45688004e
:10291c00b4222000e456880084132000d457880089
:10292c000002eb00e457880004002800f4578800ec
:10293c000002eb000458880004002800145888009a
:10294c000002eb00245888008413200024598800ce
:10295c000002eb0034598800040028004459880018
:10296c000002eb00545988000400280064598800c8
:10297c000002eb007459880084132000745a8800fc
:10298c000002eb00845a880004002800945a880046
:10299c000002eb00a45a880004002800b45a8800f6
:1029ac000002eb00c45a880004002100e45b88009c
:1029bc000002eb00f45b880004002800045c880033
:1029cc000002eb00145c880004002800245c8800e2
:1029dc000002eb00345c88000002eb00845b880092
:1029ec0014002000a45b8800441780004d22de00f8
:1029fc00614262000482fb000500200046002000ba
:102a0c00110020000268290083092000100020001a
:102a1c00c7f7070047062000a60020008002eb0045
:102a2c0014002000a30020000001eb0010e428009b
:102a3c000100200013f9070000242400f1002000fd
:102a4c00d80a07000060fe00c4e2a800002424009d
:102a5c00f1002000d30a07000060fe00e982a80004
:102a6c0000242400f1002000ce0a07000060fe00c4
:102a7c00e9a2a8000080fa00000006003600f80069
:102a8c00809fbe00829fbe00849fbe00869fbe00ba
:102a9c000000fa008880a90014002000745c8800f3
:102aac00d8fc070000027800945c8800d0fc07007a
:102abc0000027800845c88001400200074528800a6
:102acc000080fa004f03be004f02be004f01be0053
:102adc004f00be003600f900004006003600f8003a
:102aec00809fbe00829fbe00849fbe00869fbe005a
:102afc000000fa008560a90015158000040820006c
:102b0c0004826200e00f52003c003200f654800058
:102b1c0007558000041480000500200006024200c6
:102b2c0087824a00f454880005558800a65380001b
:102b3c00b7538000141480000500200006024200e8
:102b4c0087824a00a4538800b553880096578000aa
:102b5c00a7578000241480000500200006024200c4
:102b6c0087824a0094578800a5578800e658800051
:102b7c00f758800034148000050020000602420043
:102b8c0087824a00e4588800f5588800365a80003d
:102b9c00475a8000441480000500200006024200c1
:102bac0087824a00345a8800455a88007452800043
:102bbc00e00f52000200320054148000645688006a
:102bcc0046568000575680005414800005002000a3
:102bdc000602420087824a004456880055568800f7
:102bec009552800054148000848f52003e003100b6
:102bfc0054148000945288003b003700f654800037
:102c0c000755800084148000050020000602420055
:102c1c0087824a00f454880005558800a65380002a
:102c2c00b753800094148000050020000602420077
:102c3c0087824a00a4538800b553880096578000b9
:102c4c00a7578000a4148000050020000602420053
:102c5c0087824a0094578800a5578800e658800060
:102c6c00f7588000b41480000500200006024200d2
:102c7c0087824a00e4588800f5588800365a80004c
:102c8c00475a8000c4148000050020000602420050
:102c9c0087824a00345a8800455a88007452800052
:102cac00e00f520002003200d414800064568800f9
:102cbc004656800057568000d41480000500200032
:102ccc000602420087824a00445688005556880006
:102cdc009552800054148000848f52000200310001
:102cec00d414800094528800445c80000402e800f4
:102cfc00445c8800455c8000f4032000848f520003
:102d0c0058003600a4538000b55380004e2bdd00d4
:102d1c004222de0004027300c22ade00a4538800a3
:102d2c00b5538800a4538000b5538000040278008a
:102d3c00c45388006022b800a4538800b55388009f
:102d4c00f4548000055580004e2bdd004222de003d
:102d5c0004027300c22ade00f45488000555880072
:102d6c00f454800005558000040278001455880046
:102d7c006022b800f45488000555880094578000f0
:102d8c00a55780004e2bdd004222de0004027300aa
:102d9c00c22ade0094578800a557880094578000fb
:102dac00a557800004027800b45788006022b80050
:102dbc0094578800a5578800e4588000f558800087
:102dcc004e2bdd004222de0004027300c22ade001c
:102ddc00e4588800f5588800e4588000f5588000c5
:102dec0004027800045988006022b800e458880076
:102dfc00f5588800345a8000455a80004e2bdd006f
:102e0c004222de0004027300c22ade00345a88001b
:102e1c00455a8800345a8000455a800004027800d4
:102e2c00545a88006022b800345a8800455a8800e9
:102e3c0044568000555680004e2bdd004222de00a9
:102e4c0004027300c22ade004456880055568800de
:102e5c006022b80044568800555688000002eb00ea
:102e6c00445c8800145580008400780040002000e9
:102e7c00cffb0700c4538000840078005000200072
:102e8c00cbfb0700645680008400780060002000b3
:102e9c00c7fb07000080fa004f03be004f02be00c4
:102eac004f01be004f00be003600f9000040060086
:102ebc000400fa00100798001e029000c402900053
:102ecc00050f78000080fa00000006000c00fa00e4
:102edc00000f780012079800230798003407980019
:102eec0045079800214f9800364f98002e489000c7
:102efc009eebb7003e4890009febb7001e02780097
:102f0c00045d88009fcbbf006033b8001e029000a8
:102f1c00ae0290003e019000ce01900001022b0009
:102f2c00990607000080fa00000006001000fa0065
:102f3c006007980071079800045d80008402d1003e
:102f4c006e029000848f5200790036007e02900051
:102f5c004822de00644798007e0290007447980077
:102f6c006e02900004024200440798004e0290004a
:102f7c004822de00244f98004e029000344f9800f7
:102f8c0014002000040f7800f4b9200014427800db
:102f9c0004407800ba06070000027800040f78009d
:102fac00f4b920001442780004407800d5060700dc
:102fbc00000278001e0f7200f5b9200095427800cf
:102fcc00e4b9200014427800854078000440780071
:102fdc000e070700000278001e0f720044108000dc
:102fec004f22de00044278000482fb002407980084
:102ffc000002eb001407980023003700f4b92000fe
:10300c001442780004407800700707000002780032
:10301c001e0f7200f4b920001442780004407800ae
:10302c009706070000027800040f7800f4b920001e
:10303c001442780004407800b206070000027800c1
:10304c001e0f7200f5b9200095427800e4b92000fb
:10305c00144278008540780004407800eb060700a5
:10306c00000278001e0f7200441080004f22de0018
:10307c00044278000482fb00240798001e02900092
:10308c000402e800140798002e029000e00f520092
:10309c00040032009e029000840c2000848f5200a9
:1030ac00d6ff3600f4b92000144278008440780032
:1030bc002e489000d5060700000278001e0f720003
:1030cc00f4b9200014427800844078003e48900007
:1030dc00ce060700000278001e0f7200f4b9200023
:1030ec0014427800844078007e409000c7060700a8
:1030fc00000278001e0f7200f4b920001442780010
:10310c00844078006e409000c006070000027800f2
:10311c001e0f7200f4b920001442780004407800ad
:10312c002a070700000278001e0f72000200370009
:10313c000082eb00040f78000080fa00000006000b
:10314c000e00fa0060079800045d80008402d10034
:10315c006e029000848f52008c0036006e0290003c
:10316c0004024200440798004e0290004822de0000
:10317c00244f98004e029000344f9800f4b9200070
:10318c0014427800044078003d06070000027800e5
:10319c00040f7800f4b92000144278000440780041
:1031ac0058060700000278001e0f7200f5b92000c7
:1031bc0095427800e4b920001442780085407800ec
:1031cc000440780091060700000278001e0f720080
:1031dc00441080004f22de00044278000482fb0081
:1031ec00340798000002eb002407980023003700f6
:1031fc00f4b920001442780004407800f30607006c
:10320c00000278001e0f7200f4b9200014427800fe
:10321c00044078001a06070000027800040f7800ba
:10322c00f4b92000144278000440780035060700f9
:10323c00000278001e0f7200f5b92000954278004c
:10324c00e4b92000144278008540780004407800ee
:10325c006e060700000278001e0f720044108000fa
:10326c004f22de00044278000482fb0034079800f1
:10327c002e0290000402e800240798003e02900001
:10328c00e00f520004003200ae029000840c2000cb
:10329c00848f5200d6ff3600f4b920001442780017
:1032ac00844078002e4890005806070000027800f1
:1032bc001e0f7200f4b9200014427800844078008c
:1032cc003e48900051060700000278001e0f720065
:1032dc00f4b9200014427800044078002a06070054
:1032ec00000278001e0f7200f5b92000954278009c
:1032fc00e4b92000144278000404a0008540780052
:10330c000440780041060700000278001e0f72008e
:10331c00f4b92000144278000440780072060700cb
:10332c000002780024479800f4b920001442780079
:10333c0004407800c6060700000278001e0f7200d9
:10334c00f4b92000144278000440780066060700a7
:10335c000002780034479800f4b920001442780039
:10336c0004407800dc060700000278001e0f720093
:10337c00f4b920001442780004407800930607004a
:10338c00000278001e0f7200060037000082eb006e
:10339c00040f78000042eb00244798000042eb0039
:1033ac00344798003e4290000482fb00440798008a
:1033bc004e0290004822dd00440798002e429000f7
:1033cc000482fb00ce029000048242004407980065
:1033dc004e029000040078000080fa000000060005
:1033ec001400fa0070079800010f9800120f980053
:1033fc000e0a9000e00f5200950032000e0a900069
:10340c00f00f52000200360004012000040f980057
:10341c00045d8000c522de007e029000848f520085
:10342c00890036007e0290004522dd00440798009a
:10343c004e0290004822de00244f98004e0290006d
:10344c00344f9800f4b920001442780004407800fe
:10345c008b05070000027800040f7800f4b92000f7
:10346c001442780004407800a6050700000278009a
:10347c001e0f7200f5b9200095427800e4b92000c7
:10348c00144278008540780004407800df0507007e
:10349c00000278001e0f7200441080004f22de00e4
:1034ac00044278000482fb00340798000002eb0011
:1034bc002407980023003700f4b920001442780048
:1034cc000440780041060700000278001e0f7200cd
:1034dc00f4b9200014427800044078006805070015
:1034ec0000027800040f7800f4b920001442780030
:1034fc000440780083050700000278001e0f72005c
:10350c00f5b9200095427800e4b920001442780007
:10351c008540780004407800bc0507000002780064
:10352c001e0f7200441080004f22de00044278000f
:10353c000482fb00340798002e0290000402e8007d
:10354c00240798003e029000e00f52000400320065
:10355c00ae029000840c2000848f5200d6ff3600ff
:10356c00f4b9200014427800844078002e48900072
:10357c00a6050700000278001e0f7200f4b92000a7
:10358c0014427800844078003e4890009f05070064
:10359c00000278001e0f72000002eb001407980066
:1035ac001e0037001e029000040242009e0a90008a
:1035bc0004824200140278004822de00444f980036
:1035cc001e029000040242009e0a900004824200f7
:1035dc0014027800544f9800f4b92000144278007b
:1035ec00844078005e48900088050700000278004f
:1035fc001e0f7200f4b92000144278008440780049
:10360c004e48900081050700000278001e0f7200e2
:10361c001e0290000402e800140798009e0290001d
:10362c000e0a9000848f5200deff3900f4b920009e
:10363c001442780004407800e4050700000278008a
:10364c001e0f7200020037000082eb00040f78009e
:10365c000080fa00000006001400fa0070079800c1
:10366c00010f9800120f98000e0a9000e00f520004
:10367c00fd0032000e0a9000f00f520002003600de
:10368c0004012000040f9800045d8000c522de00b8
:10369c007e029000848f5200ed0036007e02900076
:1036ac004522dd00440798004e0290004822de00bf
:1036bc00244f98004e029000344f9800f4b920002b
:1036cc001442780004407800ed04070000027800f2
:1036dc00040f7800f4b920001442780004407800fc
:1036ec0008050700000278001e0f7200f5b92000d3
:1036fc0095427800e4b920001442780085407800a7
:10370c000440780041050700000278001e0f72008b
:10371c00441080004f22de00044278000482fb003b
:10372c00340798000002eb002407980023003700b0
:10373c00f4b920001442780004407800a305070077
:10374c00000278001e0f7200f4b9200014427800b9
:10375c0004407800ca04070000027800040f7800c7
:10376c00f4b920001442780004407800e504070006
:10377c00000278001e0f7200f5b920009542780007
:10378c00e4b92000144278008540780004407800a9
:10379c001e050700000278001e0f72004410800006
:1037ac004f22de00044278000482fb0034079800ac
:1037bc002e0290000402e800240798003e029000bc
:1037cc00e00f520004003200ae029000840c200086
:1037dc00848f5200d6ff3600f4b9200014427800d2
:1037ec00844078002e4890000805070000027800fd
:1037fc001e0f7200f4b92000144278008440780047
:10380c003e48900001050700000278001e0f720070
:10381c00f4b920001442780004407800da04070060
:10382c00000278001e0f7200f5b920009542780056
:10383c00e4b92000144278000404a000854078000c
:10384c0004407800f1040700000278001e0f72009b
:10385c000002eb00140798003a003700f4b920007e
:10386c0014427800044078001f050700000278001d
:10387c00444f9800f4b920001442780004407800ba
:10388c0073050700000278001e0f7200f4b92000c7
:10389c0014427800044078001305070000027800f9
:1038ac00544f9800f4b9200014427800044078007a
:1038bc0067050700000278001e0f72001e029000c0
:1038cc00040242009e0a9000848242005e4a9000ec
:1038dc000482fb00840a78001e029000040242005d
:1038ec009e0a9000848242001e0290000402420054
:1038fc001e0b900004024300140278004822dd00e5
:10390c00840a78001e029000040242009e0a900075
:10391c00848242001e029000040242001e0b9000a2
:10392c0004024300140378004e4a90000482fb000a
:10393c0004024300840a78001e0290000402e8008e
:10394c00140798000e0a90008402e9001e029000f1
:10395c00848f5200c1ff3e00f4b92000144278005d
:10396c0004407800e004070000027800444f9800ff
:10397c00f4b92000144278000440780034050700a4
:10398c00000278001e0f7200f4b920001442780077
:10399c0004407800d404070000027800544f9800cb
:1039ac00f4b9200014427800044078004a0507005e
:1039bc00000278001e0f72001e02900004024200ea
:1039cc009e0a9000848242005e4a90000482fb00b2
:1039dc00840a78001e029000040242009e0a9000a5
:1039ec00848242001e029000040242001e0b9000d2
:1039fc0004024300140278004822dd00840a780097
:103a0c001e029000040242009e0a90008482420032
:103a1c001e029000040242001e0b900004024300a0
:103a2c00140378004e4a90000482fb000402430009
:103a3c00840a7800f4b9200014427800044078001d
:103a4c00e2040700000278001e0f72000600370027
:103a5c000082eb00040f78000042eb00444f98000a
:103a6c000042eb00544f98000080fa000000060062
:103a7c001200fa00100798002107980032079800ee
:103a8c00034f980054079800650798007607980034
:103a9c00070f98003eba9700e00f520002003d005d
:103aac00f4ff270034bf9f004eba9700e00f52007e
:103abc0002003d00f4ff270044bf9f000002eb0012
:103acc00040f78001e0390006022b800048bbe0027
:103adc001e0290008002eb00250298001e0290004e
:103aec008002eb00350298001e029000ae0290009e
:103afc00450298001e029000be02900055029800ec
:103b0c000e4a9000ef4f52000d0036001e0290003e
:103b1c0005002800650298001e0290008002eb0050
:103b2c00750298001e02900005002800050a9800f6
:103b3c001e0290008002eb00150a98001f0037004f
:103b4c000e4a90000482fb000404b0004222dd0007
:103b5c00040f78001e00780079fd07000002780041
:103b6c00840278001e029000750298001e02e80084
:103b7c000400780072fd0700000278009e0290009d
:103b8c00e40298001e82e800040078006cfd070037
:103b9c0000027800840278001e029000150a98003a
:103bac009e027800638242000400780064fd0700e6
:103bbc00000278009e029000840a98001e02900079
:103bcc00de029000250a98001e029000ee02900082
:103bdc00350a98001e029000fe029000550a9800cb
:103bec001e0290008e0a9000650a98001e0290003a
:103bfc008002eb00750a98001e0290008002eb0018
:103c0c00051298001e029000ceba9700151298006b
:103c1c001e029000beba9700451298000080fa0070
:103c2c00000006001000fa00100798002107980009
:103c3c0032079800034f98005407980065079800c6
:103c4c00760798000002eb00040f78001e0290002b
:103c5c008002eb00250298001e029000de0290000c
:103c6c00350298001e029000ee029000450298006a
:103c7c001e029000fe029000550298001e02900059
:103c8c00ae029000650298001e029000be029000e9
:103c9c00750298000e4a9000e74f52000d00360056
:103cac001e02900005002800050a98001e029000d4
:103cbc008002eb00150a98001e02900005002800f7
:103ccc00250a98001e0290008002eb00350a98002d
:103cdc001f0037000e4a90000482fb000405b00060
:103cec004222dd00040f78001e00780014fd07004e
:103cfc0000027800840278001e029000150a9800d9
:103d0c001e02e800040078000dfd07000002780098
:103d1c009e029000840a98001e82e800040078003d
:103d2c0007fd070000027800840278001e02900054
:103d3c00350a98009e0278006382420004007800e5
:103d4c00fffc0700000278009e029000a40a980075
:103d5c000080fa00000006000400fa00100798002a
:103d6c001e029000940278001e0290003402900013
:103d7c00848f5200040036001e029000b4029000a2
:103d8c001e029000050a78001e0290009402780032
:103d9c001e02900044029000848f520004003100f7
:103dac001e029000c40290001e029000050a7800ca
:103dbc001e029000740390001e029000e40290001a
:103dcc001e0290001402780006017800850078002d
:103ddc0004007800c805070000027800040f780082
:103dec001e029000940a90001e029000040a90009b
:103dfc0005017800840078001e007800a9050700f2
:103e0c0000027800040f78001e029000b40a9000a3
:103e1c001e029000240a90000501780084007800ae
:103e2c001e0078009f05070000027800040f780040
:103e3c001e02900024029000e00f520003003a0092
:103e4c001e029000d4029000050f78001e02900014
:103e5c009e027800150298000080fa00000006000f
:103e6c000400fa00100798001e029000140b90003a
:103e7c001e029000840a90001e0290002402900002
:103e8c00060178008500780004007800850507009d
:103e9c0000027800040f78001e029000f4029000db
:103eac001e029000640290000501780084007800e6
:103ebc001e0078007b05070000027800040f7800d4
:103ecc001e029000d40290001e029000440290004a
:103edc0005017800840078001e0078008605070034
:103eec0000027800040f78001e0290009e027800f9
:103efc00350298000080fa00000006000400fa0069
:103f0c00000f7800110798001e027800b402900090
:103f1c001e029000848f5200030031001e027800b4
:103f2c00b4029000150798001e027800c40290009d
:103f3c001e029000848f5200030036001e0278008f
:103f4c00c4029000150798001e0278009e02900093
:103f5c00050a78000080fa00000006000200fa0052
:103f6c00000f78001e027800b40290001e02780048
:103f7c00240a9000848f52000d0036001e02780037
:103f8c00a41290001e027800441290000402420019
:103f9c00848f52000f003e001e0278002412900005
:103fac008402e8001e0278002512980009003700f0
:103fbc001e02780024129000e00f5200050032001f
:103fcc001e027800241290008402e9001e02780080
:103fdc00251298001e027800a41290001e02780090
:103fec0044129000848f520002003600140020000e
:103ffc00010037000002eb00040078000080fa009a
:10400c00000006000200fa00000f78001e02780083
:10401c00b40290001e027800340a9000848f520083
:10402c000d0031001e027800b41290001e027800c0
:10403c004412900004024200848f52000f003e0094
:10404c001e027800341290008402e8001e027800f0
:10405c0035129800090037001e02780034129000c7
:10406c00e00f5200050032001e027800341290005e
:10407c008402e9001e027800351298001e027800b6
:10408c00b41290001e02780044129000848f5200eb
:10409c000200360014002000010037000002eb0083
:1040ac00040078000080fa00000006000400fa000a
:1040bc00100798001e029000d40a90001e02900077
:1040cc00440a90000001eb008500780004007800a1
:1040dc00f404070000027800040f78001e02900020
:1040ec00640a90009e0f5200030036001e029000de
:1040fc00e40a9000050f780004f02f009e02520095
:10410c001e029000440a9000848f52000400360076
:10411c001e029000440a90001e0f4200020037005d
:10412c0004f02f00040f78001e029000340290005f
:10413c009e0f52000d0036001e029000f40a9000f3
:10414c001e0290001412900004024200848f520050
:10415c000f003e001e029000740a90008402e800da
:10416c001e029000750a9800090037001e0290008c
:10417c00740a9000e00f5200050032001e029000fd
:10418c00740a90008402e9001e029000750a9800df
:10419c001e029000f40a90001e029000141290006f
:1041ac00848f5200020039001400200001003700f7
:1041bc000002eb00040078000080fa00000006000a
:1041cc000400fa00100798001e029000d40a900018
:1041dc001e029000440a90000001eb00850078005c
:1041ec0004007800af04070000027800040f780088
:1041fc001e029000640a90009e0f520003003600cd
:10420c001e029000e40a9000050f78001e02900038
:10421c00440a90009e0f5200040036001e029000cb
:10422c00440a90001e0f5200020037000002eb00ff
:10423c00040f78001e029000340290009e0f520072
:10424c000d0031001e029000841290001e0290009e
:10425c001412900004024200848f52000f003e00a2
:10426c001e029000041290008402e8001e029000ce
:10427c0005129800090037001e02900004129000ed
:10428c00e00f5200050032001e0290000412900054
:10429c008402e9001e029000051298001e02900094
:1042ac00841290001e02900014129000848f520011
:1042bc000200390014002000010037000002eb005e
:1042cc00040078000080fa00000006000000fa00ec
:1042dc00f01f20009afb070000027800a5aa2a0014
:1042ec00850f520002003a00140020000100370034
:1042fc000002eb00040078000080fa0000000600c9
:10430c000000fa00e2452800010120000001200015
:10431c0033fc0700e24528000101200010012000b9
:10432c002ffc0700e245280001012000200120009d
:10433c002bfc0700e2452800010120003001200081
:10434c0027fc0700e2452800010120004001200065
:10435c0023fc0700e2452800010120005001200049
:10436c001ffc0700e247280001012000600120002b
:10437c001bfc0700e247280001012000700120000f
:10438c0017fc0700a1aa2a00f01f2000e7fa07007b
:10439c000080fa00000006001400fa004047980064
:1043ac00310798004207980053079800640798005b
:1043bc0075079800060f9800170f98003e029000a2
:1043cc00f401b300340798000e0b90009e0b900084
:1043dc00463add00ca32de00850272004632dd004c
:1043ec006e019000fe0190000400be00d6f00700a4
:1043fc000002be00048fbe00042020000500200037
:10440c001e03be00840f5300858f5b0003003e002b
:10441c0014002000a45c8800320037003480200097
:10442c00050020001e03be00840f5300858f5b0027
:10443c000d003e0044002000a45c88001e02be005b
:10444c004e2bdd004222de0004027300c22ade0085
:10445c00048fbe00be029000e4ff2f0004826200b5
:10446c00340798001f003700f400220005002000dc
:10447c001e03be00840f5300858f5b000d003e00b1
:10448c0004012000a45c88001e02be004c2bdd0041
:10449c004422de0004027300c42ade00048fbe0036
:1044ac00be029000d4ff2f000482620034079800f3
:1044bc000c00370004042000a45c88001e02be001f
:1044cc004a2bdd004622de0004027300c62ade0001
:1044dc00048fbe00be029000c4ff2f000482620055
:1044ec0034079800041c2000050020001e03be00a9
:1044fc00840f5300858f5b0008003600a45c80009d
:10450c004322dd00a45c8800be02900034fe2f0024
:10451c00048262003407980057003700041820000a
:10452c00050020001e03be00840f5300858f5b0026
:10453c0009003600a45c80006722b90004027800f0
:10454c00a45c8800be02900074fe2f0004826200fe
:10455c0034079800480037000414200005002000a0
:10456c001e03be00840f5300858f5b0009003600cc
:10457c00a45c80006622b90004027800a45c880068
:10458c00be029000b4fe2f00048262003407980033
:10459c003900370004102000050020001e03be0067
:1045ac00840f5300858f5b0009003600a45c8000eb
:1045bc006522b90004027800a45c8800be02900059
:1045cc00f4fe2f0004826200340798002a003700a2
:1045dc00040c2000050020001e03be00840f5300b5
:1045ec00858f5b0008003600a45c80004222dd0051
:1045fc00a45c8800be02900034ff2f00048262008d
:10460c00340798001c003700040820000500200027
:10461c001e03be00840f5300858f5b00090036001b
:10462c00a45c80006322b90004027800a45c8800ba
:10463c00be02900074ff2f000482620034079800c1
:10464c000d00370004042000050020001e03be00ee
:10465c00840f5300858f5b0007003600a45c80003c
:10466c0004024200a45c8800be029000b4ff2f003c
:10467c000482620034079800a45c80004222dd00b2
:10468c00a45c88004e429000e14f520004003a00b6
:10469c003e029000141188005e0390000611880001
:1046ac004e429000e24f520004003a003e0290004d
:1046bc00441188005e039000361188000080fa00d7
:1046cc00000006000c00fa0040079800214f9800eb
:1046dc000042eb00044f78002e4a9000e14f52004c
:1046ec0054003a008500a9004e0290002411880065
:1046fc000002eb0034079800180037003e029000cf
:10470c000402e80034079800a45c8000be0290000c
:10471c00848f52000300360034c0b300044f78007d
:10472c000e00370005118000040420000482620092
:10473c00e00f52000300320044c0b300044f780075
:10474c00060037000411800062026200e00f520084
:10475c0002003a0014c0b300044f78001e427800e7
:10476c00e04f5200e5ff3200200037003e0290007f
:10477c000402e80034079800a45c8000be0290009c
:10478c00848f52000300360034c0b300044f78000d
:10479c00160037000511800004042000048262001a
:1047ac00e00f52000300320044c0b300044f780005
:1047bc000e003700250480000410200004826200e3
:1047cc00e00f52000300320024c0b300044f780005
:1047dc00060037000411800061026200e00f5200f5
:1047ec000200320024c0b300044f78001e4278004f
:1047fc00e14f5200ddff32001e427800e24f5200c2
:10480c0005003a00241180000500200014079800d0
:10481c00250798000700370004002000151121001f
:10482c001407980025079800b45c80000402e80087
:10483c00b45c88002e4a9000e24f52004d003a00c2
:10484c008740a9004e029000541188000002eb0032
:10485c0034079800180037003e0290000402e8006c
:10486c0034079800a45c8000be029000848f520034
:10487c000300360034c0b300044f78000e0037003c
:10488c00351180000404200004826200e00f520005
:10489c000300320044c0b300044f78000600370018
:1048ac003411800062026200e00f520002003a00f4
:1048bc0014c0b300044f78001e427800e04f520041
:1048cc00e5ff3200190037003e0290000402e800b8
:1048dc0034079800a45c8000be029000848f5200c4
:1048ec000300360034c0b300044f78000f003700cb
:1048fc00351180000404200004826200e00f520095
:10490c000300320044c0b300044f780007003700a6
:10491c00350480000440200004826200e00f520045
:10492c000200320024c0b300044f78001e4278000d
:10493c00e14f5200e4ff32001e427800e24f520079
:10494c0005003a005411800005002000140798005f
:10495c0025079800070037000400200015112100de
:10496c001407980025079800c45c80000402e80036
:10497c00c45c88001e029000ae0290000400be00d1
:10498c000080fa00000006001400fa00404798006e
:10499c003107980042079800530798006407980065
:1049ac0075079800060f9800170f98004e0190009d
:1049bc00de0190006e009000fe00900062ef070098
:1049cc000002be00048fbe001e0278004422dd00ef
:1049dc00245d88006e029000fe02900052cd2d00e6
:1049ec00230320000400be0057ef07000002be00a6
:1049fc001e1f12001e971a000082eb008082eb0033
:104a0c001e0f42005e974a001e03be0014002000d9
:104a1c0005002000840f5300858f5b0003003e00cf
:104a2c002400200005002000048fbe00f4ff2f009e
:104a3c00050020001e03be00840f5300858f5b0011
:104a4c00030036002400200005002000048fbe0067
:104a5c004e429000e04f5200030032004e42900054
:104a6c00e14f520004003a00be029000351088005d
:104a7c001e027800241088000080fa000000060056
:104a8c000600fa00404798000002eb00140798005b
:104a9c004e429000e04f5200030032004e42900014
:104aac00e14f520013003a000002eb00040f7800b3
:104abc000b0037001e0fe800245d80009e0278007a
:104acc00848f520006003600041020001407980052
:104adc00145d80000402e800145d880005003700b6
:104aec00451080000400240004826200e00f520094
:104afc00f0ff3a001e029000040078000080fa00db
:104b0c00000006000600fa00404798000002eb0087
:104b1c00140798004e429000e04f52000300320000
:104b2c004e429000e14f520013003a000602a800da
:104b3c000002eb00040f78000b0037001e0fe8009a
:104b4c00245d80009e027800848f5200060036009f
:104b5c000420200014079800145d80000402e80073
:104b6c00145d88000400370034108000610262007c
:104b7c00e00f5200f1ff3a001e0290000400780092
:104b8c000080fa00000006000600fa00404798007a
:104b9c000002eb00140798004e429000e04f5200c8
:104bac00030032004e429000e14f520013003a00d5
:104bbc000622a8000002eb00040f78000b0037005f
:104bcc001e0fe800245d80009e027800848f520046
:104bdc00060036000440200014079800145d800085
:104bec000402e800145d88000400370034108000d3
:104bfc0062026200e00f5200f1ff3a001e029000c8
:104c0c00040078000080fa00000006000600fa009c
:104c1c0040479800514798000002eb001407980099
:104c2c005e429000e04f5200030032005e42900062
:104c3c00e14f520028003a004e4290000482fb00e3
:104c4c00141088000002eb00040f78000c003700f1
:104c5c001e0fe800245d80009e027800848f5200b5
:104c6c00070036000480200014079800145d8000b3
:104c7c000402e800145d88000000000011003700f9
:104c8c00451080000400240004826200e00f5200f2
:104c9c00efff32000b0037001e0fe800245d800090
:104cac009e027800848f520006003600048020009b
:104cbc0014079800145d80000402e800145d88005d
:104ccc0005003700451080000400240004826200b7
:104cdc00e00f5200f0ff3a001e0290000400780032
:104cec000080fa00000006000600fa004047980019
:104cfc000002eb00140798004e429000e04f520067
:104d0c00030032004e429000e14f52002b003a005b
:104d1c000662a8000002eb00040f78000c003700bc
:104d2c001e0fe800245d80009e027800848f5200e4
:104d3c00070036000400210014079800145d800061
:104d4c000402e800145d8800000000001000370029
:104d5c003410800068026200e00f5200f0ff3a004d
:104d6c000b0037001e0fe800245d80009e027800c7
:104d7c00848f5200060036000400210014079800ae
:104d8c00145d80000402e800145d88000400370004
:104d9c004410800062026200e00f5200f1ff32000a
:104dac001e029000e00f520004003a000510800033
:104dbc00f40f200004826200140798001e02900079
:104dcc00040078000080fa00000006000600fa00db
:104ddc00404798000002eb00140798004e429000e8
:104dec00e04f5200030032004e429000e14f52005f
:104dfc0013003a000642a8000002eb00040f7800f2
:104e0c000b0037001e0fe800245d80009e02780026
:104e1c00848f52000600360004002200140798000c
:104e2c00145d80000402e800145d88000400370063
:104e3c003410800064026200e00f5200f1ff3a006f
:104e4c001e029000040078000080fa0000000600aa
:104e5c000600fa00404798000002eb00040f7800af
:104e6c000002eb00140798004e429000e04f5200f5
:104e7c00030032004e429000e14f520012003a0003
:104e8c0006a2a9000682a8000b0037001e0fe8003e
:104e9c00245d80009e027800848f5200060036004c
:104eac000400240014079800145d80000402e8003c
:104ebc00145d88000400370034108000700262001a
:104ecc00e00f5200f1ff3a001e029000040078003f
:104edc000080fa00000006000600fa004047980027
:104eec000002eb00040f78000002eb00140798009e
:104efc004e429000e04f5200030032004e429000b0
:104f0c00e14f520012003a0006a2a8000682a80047
:104f1c000b0037001e0fe800245d80009e02780015
:104f2c00848f5200060036000400280014079800f5
:104f3c00145d80000402e800145d88000400370052
:104f4c003410800070026200e00f5200f1ff3a0052
:104f5c001e029000040078000080fa000000060099
:104f6c001001900090007800010051000000e90051
:104f7c00f000b200000006001001900090007800d4
:104f8c0002805000f000b200000006001170a60074
:104f9c001a003700e40140009309e80090019000ea
:104fac001001e800f200b2000310e1001000320022
:104fbc00100178006a11b800e801400082814100bc
:104fcc006e8150009219780066014100b219780088
:104fdc00b2197800b2197800b21978001001e80003
:104fec00f200b20002087800e60140009309e900e3
:104ffc00e60140009309e8001170a10000000600d2
:10500c001170a600090037006e815000121878004c
:10501c006601410032187800321878003218780096
:10502c00321878001170a10008003700827f21002f
:10503c00021878000200200002187800021878008c
:10504c0002187800021878003100370000000600c2
:10505c00e40140009309e800900190001001e80081
:10506c00f200b2000310e1000e00320010017800d3
:10507c006a11b800e801400082814100b119780042
:10508c00b1197800b1197800b1197800b11978000c
:10509c001001e800f200b20002087800e6014000be
:1050ac009309e900e60140009309e80000000600be
:1050bc0010019000900178000310e10008003a0004
:1050cc00837f210083187800030020008318780068
:1050dc008318780083187800831878000c00370048
:1050ec006a11b8006801410000014100b218780053
:1050fc00b2187800b2187800b2187800b21878009c
:10510c00100190000201e800f200b20012009800b9
:10511c00000006001130a7001300370010019000aa
:10512c00900178000310e1000f0032006a11b80002
:10513c006801410000014100ee815000b209780085
:10514c00e6814100b2197800b2197800b2197800e2
:10515c00b21978001130a000100190000201e80093
:10516c00f200b20012009800000006001130a100fd
:10517c006e815000300978006601410030197800ca
:10518c003019780030197800301978001130a000ef
:10519c00000006000018eb000018eb000018eb00f4
:1051ac000008eb00000006000200fa00000f780077
:1051bc001e027800b4029000240290000400be008d
:1051cc00610007001e0278001402be000400be003d
:1051dc005d0007001e027800b402900024029000cb
:1051ec000400be008c0007001e0278001402be00f2
:1051fc000400be00880007001e027800240b9000fb
:10520c00b40b90001e027800940a9000040a9000df
:10521c001e007800f00190001e00780060019000e4
:10522c001e007800d00090001e007800004890000e
:10523c0059fc07000080fa00000006000c00fa0080
:10524c00300798004107980052079800de02900042
:10525c00f4ff20000482620054079800ce029000f4
:10526c0004002f000482620044079800ce029000d4
:10527c005e02900005027200440798000042eb00a9
:10528c00044f78003e0290001402be000400be00e1
:10529c003e0007003e029000044a900084407800d3
:1052ac004e00900007fd07000002be001407980096
:1052bc00250798001e039000ae0390000400200008
:1052cc0015112100840f5300858f5b0002003a00fa
:1052dc0014c0b300044f78003e0290001402be00cc
:1052ec000400be00180007003e029000b4029000bb
:1052fc00240290000400be002400070000000000ff
:10530c000000000000000000000000003e029000c1
:10531c00b4029000240290000400be000a000700b2
:10532c001e427800e04f520003003200545d8000b2
:10533c000402e800545d88001e42780004407800a6
:10534c000080fa000000060001600100c422b700d2
:10535c0000000600ca22b70000000600d022b700e9
:10536c0000000600d622b700000006000000000076
:10537c0000000600e222b70000000600e822b70099
:10538c000000060000000000000006000080ea009b
:10539c0001600100c422b60000000600ca22b6005b
:1053ac0000000600d022b60000000600d622b6008f
:1053bc00000006000000000000000600e222b6001b
:1053cc0000000600e822b600000006000000000005
:1053dc000000060001600100c022b70000000600ba
:1053ec00c622b70000000600cc22b7000000060061
:1053fc00d222b700000006000000000000000600ea
:10540c00de22b70000000600e422b7000000060010
:10541c0000000000000006000080ea0001600100ae
:10542c00c022b60000000600c622b600000006002e
:10543c00cc22b60000000600d222b6000000060006
:10544c000000000000000600de22b600000006008e
:10545c00e422b60000000600000000000000060078
:10546c0001600100c402b60000000600ca02b600ca
:10547c0000000600d002b60000000600d602b600fe
:10548c00000006000000000000000600e202b6006a
:10549c0000000600e802b600000006000000ef0065
:1054ac00000006000200e00005003b000200400086
:1054bc000800310000002000a62bec00050037008e
:1054cc000200400003003900f0ff2f00a62bec0077
:1054dc00000037000101b8006218b8000100e000bc
:1054ec0002003200f0ff2f00a62bec00cf10de00e4
:1054fc0001007000000006000200e00005003b0007
:10550c00020040000800310000002000a82bec0035
:10551c00050037000200400003003900f0ff2f00a7
:10552c00a82bec00000037000101b8007018b8007f
:10553c000100e00002003200f0ff2f00a82bec006d
:0c554c00cc10de00010070000000060022
:020000040000fa
:10555800320a00006201000000000000000800009c
:1055680032020000000000009e0b00000400000052
:1055780000000000a20b0000040000000000000072
:10558800a60b00000400000000000000aa0b0000a9
:105598000200000000000000940b0000060000005c
:0855a8000000000000000000fb
:020000040000fa
:1055b000f03fb1000180b10006003500ee030900a4
:1055c00000000000403fb1000180b100fbff3d0042
:1055d0001000b000203fb00002003500008009003c
:0855e0000000000000000600bd
:020000040000fa
:0200000401f009
:04000000ecbb000055
:020000040000fa
:0200000401f009
:04000400f7ff000002
:020000040000fa
:0200000401f009
:040008004cff0000a9
:020000040000fa
:0200000401f009
:04000c00ffff0000f2
:020000040000fa
:0200000401f009
:04001000ffff0000ee
:020000040000fa
:0200000401f009
:04001400ffff0000ea
:020000040000fa
:0200000401f009
:04001800ffff0000e6
:00000001FF
