:020000040000fa
:080000000001040000000000f3
:020000040000fa
:100008009a0100009a0100009a0100009a0100007c
:100018009a0100009a0100009a0100009a0100006c
:100028009a0100009a0100009a0100009a0100005c
:100038009a0100009a0100009a0100009a0100004c
:100048009a0100009a0100009a010000c80f000000
:100058009a0100009a0100009a0100009a0100002c
:100068009a0100009a0100009a0100009a0100001c
:100078009a0100009a0100009a0100009a0100000c
:100088009a0100009a0100009a0100006a0a000023
:100098009a0100009a0100009a0100009a010000ec
:1000a8009a0100009a0100009a0100009a010000dc
:1000b8009a0100009a0100009a0100009a010000cc
:1000c8009a0100009a0100009a0100009a010000bc
:1000d8009a0100009a0100009a0100009a010000ac
:1000e8009a0100009a0100009a0100009a0100009c
:0800f8009a0100009a010000ca
:020000040000fa
:100108009a0100009a0100009a0100009a0100007b
:100118009a0100009a0100009a0100009a0100006b
:100128009a0100009a0100009a0100009a0100005b
:100138009a0100009a0100009a0100009a0100004b
:100148009a0100009a0100009a010000c80f0000ff
:100158009a0100009a0100009a0100009a0100002b
:100168009a0100009a0100009a0100009a0100001b
:100178009a0100009a0100009a0100009a0100000b
:100188009a0100009a0100009a0100006a0a000022
:100198009a0100009a0100009a0100009a010000eb
:1001a8009a0100009a0100009a0100009a010000db
:1001b8009a0100009a0100009a0100009a010000cb
:1001c8009a0100009a0100009a0100009a010000bb
:1001d8009a0100009a0100009a0100009a010000ab
:1001e8009a0100009a0100009a0100009a0100009b
:0801f8009a0100009a010000c9
:020000040000fa
:10020000efb020000e7f22000e01880000000000e9
:10021000000020000000e000020032000001200089
:10022000200288000c000700602822000100200046
:1002300011000700000020000000e0000200320072
:100240000000020000000000260b02000000000079
:100250000040da000000fe004440a9000000200039
:100260000000e0000300320000002000a001880030
:100270004440a8000000060091018800800078003a
:100280000000eb0015003700e280400032a0b4000f
:100290009101ba00e280400032a0b4009102ba009d
:1002a000e280400032a0b4000002eb00472bde00e9
:1002b000f507b200602ce10004003a000059eb00a1
:1002c0008301e900fdff3e00040037006128e100e2
:1002d000010032000082eb00040007001101ba00a7
:1002e0000200e000e8ff3a00000006003159ba00c1
:1002f0008301e9000c0032002159ba008301e900b2
:10030000080032000400e00003003a00e2804000f0
:1003100032a0b400f5ff370011d9ba008301e9001b
:10032000faff3a008100e800e180400032a0b4000a
:10033000000006000040da000000fe0003f0a2000a
:10034000889fbe008a9fbe008c1f7800b500070002
:10035000bc0033006450e1004f0032006420e10033
:100360005200320003826c0007003b000905d000f8
:100370000306d000820f54000c065d000200390015
:10038000020032008901780003067800858255005a
:1003900004003d000003fd008103fd008502ea002a
:1003a0008b854200840f720002003b006000100049
:1003b000e08018006011b8000005eb007a28e10029
:1003c0000a00390006007800c75ddd00f707b200bb
:1003d000878075002d003700828171000a01780046
:1003e000610560008180d1000080d3008502e900b2
:1003f000f9ff3b00060440008784480002003b00f0
:1004000060041400e0841c000988a3000700320087
:100410008a81710082817100610164008904d100c8
:100420000884d3008b05e800170037000978a30083
:1004300013003a000b00e000130034008b05e900c4
:100440000804440089844c000a4474000978a3001d
:100450000d003a000b00e000070034008b05e900b6
:100460000804440089844c0001003a000b0020007d
:100470000978a300f7ff32000001eb00020037000b
:10048000828171000a0178002b0007000cf0a700a0
:1004900001f0a000740037006420e10002003a007f
:1004a000838f6c00740033000801be000200be00a0
:1004b0006d00370014002000b6003700f4ff2f0055
:1004c000b40037000001be00410007000470a7001f
:1004d00003f0a10003f8a30013003a006509b1007e
:1004e00010003200090035006928e10002003500e3
:1004f0000100280000000500000040008180480045
:100500008502e900fcff3a0000000600f88f420077
:10051000050035008100d1000080d3008502e8008d
:10052000fcff3a00000006008000eb000000050020
:100530006011b800b20037008100200061805500d2
:100540000b003d000b00200061fe2f000100e100c8
:100550001d00340082817100610164008904d100b2
:100560000884d3000000e800faff3a007100200080
:1005700061006400030070000200600009003200a6
:1005800061044400e0844c000988a50005003200a5
:100590008b05e8006808e10002003a008904d100f8
:1005a0000884d300f20f20000258e10005003d004e
:1005b000c75ddd00f907b20089807500080078008a
:1005c000000006000bf827008b00780000000500f3
:1005d000c70ade00f107b200f50fb20008003200d2
:1005e000e1cf4200020032000170a00024000500ab
:1005f000810f70000100320004080500440005006e
:10060000810f700002003a00140005008502e90025
:100610000000400081c04800fcff3b000170a000ca
:10062000240005000004be00e9ff07000003be002f
:100630000405be000200be00e5ff0700844f750000
:10064000000006000200be006450e1000500360014
:100650006420e100020036000968a30001003a00ae
:100660000800be000160a0004f0678004f05be00e4
:100670004f04be0000000600f0ff2f00f1ff27002e
:10068000f9ff3700889fbe008a9fbe008c1f78004c
:10069000e4ff0700ebff330003866c006450e100c9
:1006a000240032006420e100270032006150e100a4
:1006b000220032006120e100210032008b854200df
:1006c000eb07b1000134b800003ab800080442005a
:1006d00089844a00013ab8000030b80088804000a0
:1006e00009014a00040033000000400081804800f6
:1006f000020149008b05e900c909dd008301700092
:100700000100320013002000c814de004814dd0090
:100710004709de001200b200c808de00088470003d
:1007200085ff070001f0a1000cf0a70001f0a00078
:10073000cdff37006120e100cfff32000801be008d
:100740000200be00f7ff37006150e100fcff3a00f5
:10075000c9ff37006022b800060220000000d00068
:100760008180d2000482d2008582d2000000a000e5
:100770000202520083825a0003003100020242004a
:1007800083824a000000a1000603e900f3ff3a005b
:1007900000000600889fbe008a9fbe00841f78006c
:1007a000a0ff07004f00780011003300f0ff2f007a
:1007b000838f6c0006003b00040565000a00a7005b
:1007c0000800370009f0a6001000200008003700dc
:1007d000820f5400838f5c0003003900100020005a
:1007e00001003e000000200009f0a7000000ea0020
:1007f0004f05be004f04be000000e00000000600f0
:10080000889fbe008a9fbe000082700004027100b3
:1008100004827100260032000004be000200be0007
:100820006011b8006b092000950220000182cf0002
:100830000a0039000541b1000082cf0007003900ed
:100840000541b1000982cf00040039000541b10023
:100850000882cf00010039000541b1000542520075
:10086000120032000a003b008281710061016400c5
:100870008100d1000080d3008984d3000884d30094
:100880008b05e8000442e800f7ff3a000700370054
:100890000804440089844c0000004800818048001e
:1008a0008b05e9000442e900f9ff3a0022ff070046
:0c08b0004f05be004f04be000000060013
:020000040000fa
:1008bc000000fa002e000700a6010700bb0007008d
:1008cc001c000700044e8000d44a8800d54a8000e2
:1008dc00d44d800004824200d44a8800d54a80005e
:1008ec00e44d800004824200d44a8800d54a80003e
:1008fc00f44d800004824200d44a8800d54a80001e
:10090c00b44d800004824200d44a8800d54a80004d
:10091c00a44d800004824200d44a8800d54a80004d
:10092c00944d800004824200d44a88000080fa0072
:10093c00000006000000fa002504800004082000d6
:10094c0004826200e00f52000700320084e0a9002c
:10095c00044e80000402e800044e8800044e80001f
:10096c00045888008629a8000080fa0000000600c0
:10097c000a00fa002c0037008e007800008020005e
:10098c008f0d07009e02780084072000048262000d
:10099c00e80f520004003200b44d80000402e8005d
:1009ac00b44d8800200037009e0278008448210056
:1009bc00848f520003003a000e0078008a00070072
:1009cc00190037009e02780084582100848f520051
:1009dc0003003a000e0078003f00070012003700b9
:1009ec009e02780084602100848f520003003a003c
:1009fc000e007800b60007000b0037009e0278004e
:100a0c00c4c721008482620084002100848f5200bc
:100a1c0005003a000e0078002f000700944d80006e
:100a2c000402e800944d880000802000160d070099
:100a3c0000027800e00f5200cfff3a0074458000ae
:100a4c00d44d880034408000e44d88000080fa00ca
:100a5c00000006000400fa00000f7800110798004f
:100a6c001e027800940278001e02900004037800a5
:100a7c0005037300860278001e027800050a7800d0
:100a8c000080fa00000006000400fa00000f780055
:100a9c00110798001e027800940278001e02900044
:100aac000482ea00848262001e027800050a780043
:100abc000080fa00000006000400fa00000f780025
:100acc00110798001e0290001e02620004007800bc
:100adc000080fa00000006000400fa0010079800dd
:100aec001e029000c4029000050f780004002f0035
:100afc009e02620004002100848f52000400320028
:100b0c00a44d80000402e800a44d880025003700a5
:100b1c00f4ff20009e026200f40f2000848f52002c
:100b2c0004003e00a44d80000402e800a44d88009f
:100b3c001c003700f4ff20009e026200f42f2000fe
:100b4c00848f520003003e001e009000080e070028
:100b5c0014003700f4ff20009e026200f43f2000d6
:100b6c00848f520004003e00a44d80000402e80073
:100b7c00a44d88000b003700f4ff20009e02620099
:100b8c00f44f2000848f520003003e001e009000a2
:100b9c008400070003003700a44d80000402e80025
:100bac00a44d88000080fa00000006000000fa0046
:100bbc00544e8000e00f520005003a00344c800087
:100bcc0061026200e00f5200010032007d0007005c
:100bdc00344c8000614262000482fb00544e880059
:100bec000080fa00000006000400fa0010079800cc
:100bfc001e029000c4029000050f780004002f0024
:100c0c009e02620004002100848f52000400320016
:100c1c00a44d80000402e800a44d880013003700a6
:100c2c00f4ff20009e026200f4072000848f520023
:100c3c0003003e001e0090000e0007000b00370062
:100c4c00f4ff20009e026200f40f2000848f5200fb
:100c5c0003003e001e009000cf0d0700030037007c
:100c6c00a44d80000402e800a44d88000080fa0026
:100c7c00000006000400fa00100798001e02900005
:100c8c00c4029000050f7800f4ff20001e0f6200d4
:100c9c001e027800e10f520003003200e30f5200f5
:100cac0008003200020037000000fe00060037008a
:100cbc00a44d80000402e800a44d88000000000050
:100ccc0001003700000000000080fa000000060060
:100cdc000400fa00100798001e029000c402900055
:100cec00050f780004002f009e0262000400210012
:100cfc00848f520004003200a44d80000402e800ee
:100d0c00a44d880025003700f4ff20009e026200ed
:100d1c00f40f2000848f520004003e00a44d80008c
:100d2c000402e800a44d88001c003700f4ff2000ea
:100d3c009e026200f42f2000848f520003003e00bc
:100d4c001e0090009e0d070014003700f4ff2000d9
:100d5c009e026200f43f2000848f520004003e008b
:100d6c00a44d80000402e800a44d88000b0037005d
:100d7c00f4ff20009e026200f44f2000848f52008a
:100d8c0003003e001e0090000a000700030037001d
:100d9c00a44d80000402e800a44d88000080fa00f5
:100dac00000006000200fa00000f78000080fa0034
:100dbc00000006000200fa00000f78000080fa0024
:100dcc00000006000a00fa00c4802a00040f780014
:100ddc00649820001402780014079800849820006e
:100dec001402780024079800040a2a00340798009b
:100dfc00040b2b0044079800e13520000e0078000e
:100e0c009e0c0700344d80000402e800344d88002d
:100e1c000080fa00000006000200fa00000f7800c3
:100e2c00249c20009e02780095029000050a780010
:100e3c001e027800a4029000249c20001502980049
:100e4c001e027800b4029000249c20002502980019
:100e5c001e027800c4029000249c200035029800e9
:100e6c000060fe008629a9000002eb0054088800ef
:100e7c000080fa00000006001400fa0050079800e9
:100e8c006107980072079800030f9800140f9800e0
:100e9c005e0290006f026200540798005e029000a0
:100eac000440a000540798005e0290000402420027
:100ebc0054079800de0290000460200005027200c6
:100ecc00540798005e0290004222dd0054079800ff
:100edc005e029000040f78009e02780004f02f0050
:100eec0004826200040f78001e0278004322dd00a9
:100efc00040f78009e0278005e039000f40f20002f
:100f0c000402630005027200040f78001e0a9000b0
:100f1c00140798000e0a9000240798007e02900097
:100f2c00340798006e029000440798008e007800f9
:100f3c00808a20000a0c0700741b80006802620083
:100f4c00e00f520001003a008760a8000080fa0010
:100f5c00000006000000fa002504800004042000b4
:100f6c0004826200e00f52009f00320084c0a9008e
:100f7c00644e80000402e800644e8800644e8000d9
:100f8c006f026200644e88008eff0700644e800082
:100f9c0005002000f600200007002000860f5200fc
:100fac00878f5a0090003e00046001000f0037004c
:100fbc0018003700200037002900370032003700b6
:100fcc003b003700440037004d0037005600370017
:100fdc005f00370068003700710037007a00370077
:100fec007b0037007c0037007d003700e44a80002e
:100ffc00d74a8000c64a8000b54a80008701780035
:10100c0006017800850078000000eb009aff0700cd
:10101c0075003700064b8000f54a80000002eb009b
:10102c008001eb000601780085007800100020009c
:10103c0091ff07006c003700644b8000574b800019
:10104c00464b8000354b8000870178000601780004
:10105c00850078002000200087ff07006200370021
:10106c00a44b8000974b8000864b8000754b800012
:10107c008701780006017800850078003000200098
:10108c007dff070058003700e44b8000d74b8000f1
:10109c00c64b8000b54b80008701780006017800b4
:1010ac00850078004000200073ff07004e003700d9
:1010bc00244c8000174c8000064c8000f54b8000bf
:1010cc008701780006017800850078005000200028
:1010dc0069ff070044003700444d8000374d800005
:1010ec00264d8000154d80008701780006017800a0
:1010fc0085007800800020005fff07003a00370071
:10110c00844d8000774d8000664d8000554d8000e9
:10111c008701780006017800850078009000200097
:10112c0055ff070030003700c44d8000b74d8000dc
:10113c00a64d8000954d800087017800060178004f
:10114c0085007800a00020004bff07002600370028
:10115c00044e8000f74d8000e64d8000d54d800098
:10116c00870178000601780085007800b000200027
:10117c0041ff07001c003700c44c8000b74c8000b6
:10118c00a64c8000954c8000870178000601780001
:10119c00850078006000200037ff07001200370040
:1011ac00044d8000f74c8000e64c8000d54c80004c
:1011bc008701780006017800850078007000200017
:1011cc002dff0700080037008e0c070006003700c3
:1011dc00980c070004003700990c07000200370038
:1011ec009a0c0700000000000080fa0000000600c6
:1011fc000e00fa0050079800610798000002eb00ff
:10120c00040f78006e029000240798005e02900094
:10121c0014079800e13420000e007800970b0700ab
:10122c00444d80000402e800444d88000080fa0020
:10123c00000006001000fa005007980061079800a3
:10124c0072079800c4002a00040f78007e029000f8
:10125c00140798005e029000240798006e0290001c
:10126c00e10f520003003a0004102e0044079800ce
:10127c000200370014102e0044079800e1342000bf
:10128c000e0078007d0b0700444d80000402e8003e
:10129c00444d88000080fa00000006000000fa00af
:1012ac00043a800061026200e00f520004003a0030
:1012bc00043a800062026200e00f52000500320026
:1012cc000002eb00f45788000002eb000458880081
:1012dc0003003700f45780000402e800f45788003c
:1012ec00249c20008002eb00050a7800249c20003e
:1012fc001500200015029800249c200025002000d9
:10130c0025029800249c200035002000350298000e
:10131c004007a9004027a90040c7a90040e7a90041
:10132c0041e7a9004087a90041c7a900f4578000f4
:10133c00f44a880004588000044e88008f60a9008d
:10134c008760a9000405800004c0a10004d0a1009e
:10135c0004e0a000040588000002eb00b41c880027
:10136c009803a8009823a8009843a80098a3a80065
:10137c00008020004b0b0700808a2000490b0700df
:10138c0004402000841c880000000000851c8000a4
:10139c00040e20008482620004082000848f520016
:1013ac00faff3a0014002000941c88001439200025
:1013bc00a41c88001480210084198800d487210083
:1013cc00c41988000002eb00041888000480200077
:1013dc00441888008400210084188800c47f2100f0
:1013ec00c4188800c47f210004198800c47f210020
:1013fc004419880014002000741b8800240020006d
:10140c00f41a880034002000741a8800040c2000a0
:10141c00241b8800040c2000a41a8800040c200053
:10142c00241a88000002eb00741c88000002eb00f8
:10143c00f41b88000002eb00841c880000000000f4
:10144c00851c8000040e200004826200e00f520014
:10145c00fbff3a008f60a80054fb2500840888002d
:10146c0024f42000640888000002eb003408880093
:10147c0084c0a9008cc0a90011e1a800d4fb2500f0
:10148c0094088800546222007408880084e0a90043
:10149c008ce0a90013e1a8000002eb00944c88003a
:1014ac0014e42800a44c88000002eb00b44c880023
:1014bc0014042000c44c880054062000d44c88002e
:1014cc000080fa00000006003600f800809fbe0085
:1014dc00829fbe00849fbe00869fbe000a00fa0059
:1014ec008760a900844d80000402e800844d8800c8
:1014fc00751c80000408200004826200e00f52007a
:10150c0018003200741c800061026200e00f52006f
:10151c000b003a00544d80000402e800544d880042
:10152c00e13820000e007800790a07003e02900096
:10153c00844a88004e029000944a880008003700c4
:10154c00644d80000402e800644d8800e1382000fe
:10155c000e0078006e0a07000e0078002efe0700c1
:10156c009603a900f51b8000040820000482620089
:10157c00e00f520007003200744d80000402e800b6
:10158c00744d8800e137200000802000430a0700da
:10159c009623a900741b800068026200e00f5200c1
:1015ac000c003a00808a2000370a070000027800fd
:1015bc00e00f520007003200e1362000808a200044
:1015cc00980a07009643a900c44d80000402e80065
:1015dc00c44d8800b51c8000040220000482620007
:1015ec00e00f520005003200244d80000402e80098
:1015fc00244d880096a3a90008003700251680000a
:10160c000408200004826200e00f52000200320045
:10161c00c4e2a90001003700c4e2a800d41c800079
:10162c00144d88000080fa004f03be004f02be002c
:10163c004f01be004f00be003600f900004006000e
:10164c000000fa0004012000344f8800010007005c
:10165c00feff37000000fa00344f80000502200026
:10166c00850f52000900320005032000850f52003f
:10167c000a003200f00f52000c003a00680107001b
:10168c0004022000344f88000b0037002c010700a7
:10169c0004032000344f8800070037008769a90035
:1016ac000700070082fc070003003700040120003c
:1016bc00344f8800000000000080fa000000060093
:1016cc000200fa00889fbe0035048000040420004c
:1016dc0004826200e00f52007200320086c0a90042
:1016ec00a0a220000106070060a02000ff05070053
:1016fc00e0a42000fd05070020a72000fb05070043
:10170c0060a92000f9050700a0ab2000f705070031
:10171c0084518000040f78001e0278000500200020
:10172c000400be007ffb07000004be001e02780010
:10173c00050020000400be007afb07000002be007a
:10174c000401be0000002800b1532400f8fa070081
:10175c000002be000403be000802be000601be006b
:10176c00a09e2000520007000002be000400be0034
:10177c0051fb07000002be0004027800444f8800b1
:10178c00444f8000b44b880024262000444f88002e
:10179c00454f8000843e2000848f520002003600aa
:1017ac00843e2000444f8800444f8000a44b8800a6
:1017bc00a0a220000c06070000027800e00f5200e7
:1017cc00040032008849a8000002eb00444f880056
:1017dc00010037008849a900a0a2200010060700cc
:1017ec0000027800e00f5200020032008869a80065
:1017fc00010037008849a900444f8000040178009b
:10180c0001002100e09c2000500a0700c453800016
:10181c00444b8800e4548000544b880004568000ec
:10182c00644b880064588000e00f520008003200be
:10183c00344b80000402e800344b8800849820006c
:10184c008002eb00050a78000002eb006458880067
:10185c00a0a22000f205070000027800e00f520061
:10186c00020032008869a800010037008869a900cd
:10187c0060a02000dc05070000027800e00f520099
:10188c00020032008829a800010037008849a9000d
:10189c00444f80000401780001002100e09c2000ee
:1018ac002a0a07004f04be000080fa000000060060
:1018bc001600fa00889fbe00600798007207980017
:1018cc00030f9800140f9800250f98006e029000db
:1018dc00b40a9000240a90007e0190008e099000ba
:1018ec000400be0064fb07000002be00048fbe00b3
:1018fc006e029000b4029000240290007e019000d1
:10190c008e0990000400be008afa07000002be0097
:10191c006e03900024039800350398006e0290002b
:10192c0024039000b40390006e029000d402900047
:10193c004402900018c0b3000401be000600be00b3
:10194c00dbfa070000027800e00f520001003c00b7
:10195c000044eb00e04f5400070032006e02900090
:10196c00d4029000440290006e039000240398006f
:10197c0035039800160037006e0290002403900087
:10198c00b40390006e029000f40290006402900088
:10199c0018c0b3000401be000600be00c2fa070066
:1019ac0000027800e00f5200010035000044eb000b
:1019bc00e04f5400060032006e029000f4029000da
:1019cc00640290006e039000240398003503980085
:1019dc006e029000040b9000940b90006e0290002d
:1019ec00b4029000240290000401be000600be0068
:1019fc0021fb07000002be00240798003507980061
:101a0c006e029000440c9000d40c90006e0290007a
:101a1c001402be000401be001e089000ae08900027
:101a2c0043fa07000002be000401be000800be001d
:101a3c0011fb07000002be004407980055079800f0
:101a4c006e0290001e0b9000ae0b9000068abe003a
:101a5c007e0090008e08900097fa07000002be00ee
:101a6c0004027800c44b88001e00be0092fa0700e6
:101a7c000002be0004027800d44b88002e009000b7
:101a8c00be0090008cfa07000002be000402780031
:101a9c00e44b88004e009000de00900086fa0700b0
:101aac000002be0004027800f44b88002e01900066
:101abc00be0190001e00be001efa07000002be0010
:101acc004e019000de0190000400be0018fa0700e1
:101adc000002be0018c0b3006011b8000400be00c4
:101aec0071fa070000027800e00f52000100350087
:101afc000044eb00e04f54000300320004002000cf
:101b0c0005f823000a0037002e019000be0190005a
:101b1c001e00be0007fa07000002be004e01900036
:101b2c00de0190000400be0001fa07000002be00b6
:101b3c000400be004f04be000080fa000000060046
:101b4c000800fa000002eb00040f780003003700d5
:101b5c000000000001003700000000003504800088
:101b6c000404200004826200e00f5200f8ff3200ef
:101b7c0086c0a90020a72000dc04070060a9200073
:101b8c00da040700a0ab2000d8040700c45380007f
:101b9c0014079800e4548000240798000456800031
:101bac00340798009e02900004962000848f520007
:101bbc00140036009e02900074a22000848f520004
:101bcc0010003e00ae02900004962000848f52005c
:101bdc000c003600ae02900074a22000848f5200dc
:101bec0008003e00be02900024622000848f520048
:101bfc0004003600be029000946e2000848f5200c8
:101c0c00050036001e027800e40f5200d2ff3400ab
:101c1c008769a800d1ff37000080fa000000060099
:101c2c000000fa0044002000a5002000744e88003b
:101c3c00854e880084002000a5002000944e88006a
:101c4c00a54e880014c0b30004007800d6e9b70094
:101c5c00f4532000c44e88000002eb00d44e8800e0
:101c6c0004002a00e44e880004242400f50020001f
:101c7c00f44e8800054f880004682900850920006f
:101c8c00144f8800254f8800e09c20000a090700ab
:101c9c00340580000400a0000410a0000420a00063
:101cac00340588008220a900c404800004c0a1006f
:101cbc0004d0a00004e0a000c404880004002c00a0
:101ccc0004168800b44f2000341688000002eb0084
:101cdc00641688000002eb0094168800f4142000af
:101cec00f41688000002eb0024178800d4f92d00ac
:101cfc00040988000002eb00c408880086c0a90013
:101d0c00440d2300e4088800f4cf27000415880054
:101d1c00e4fd20001415880084042f00241588008d
:101d2c00242e2e003415880074302e0044158800a3
:101d3c0084cf2100541588008560a9008d60a8000f
:101d4c00a1e2a800a4702d0035d223001450880005
:101d5c00255088006022b800544f8800654f8800d9
:101d6c006022b800744f8800854f8800d4cc2c00ba
:101d7c00c5d42300d44f8800e54f8800d4cc2c0068
:101d8c00c5d42300f44f88000550880004002800b7
:101d9c00b5632400944f8800a54f88006022b800da
:101dac00b44f8800c54f88000002eb00444f8800f8
:101dbc00444f80000401780001002100e09c2000c9
:101dcc00e208070084132000745088000002eb0026
:101ddc008450880004002800945088000002eb0016
:101dec00a450880004002800b45088000002eb00c6
:101dfc00c4508800c4c12000d45088008413200033
:101e0c00945188000002eb00a451880004002800c3
:101e1c00b45188000002eb00c45188000400280073
:101e2c00d45188000002eb00e451880044b5200036
:101e3c000452880004002100b45288000002eb0018
:101e4c00c452880004002800d45288000002eb0021
:101e5c00e452880004002800f45288000002eb00d1
:101e6c0004538800b42220001453880084132000eb
:101e7c00d45388000002eb00e453880004002800cf
:101e8c00f45388000002eb0004548800040028007e
:101e9c00145488000002eb002454880084132000a2
:101eac00f45488000002eb0004558800040028005c
:101ebc00145588000002eb0024558800040028000b
:101ecc00345588000002eb00445588008413200030
:101edc00145688000002eb002456880004002800e9
:101eec00345688000002eb00445688000400280099
:101efc00545688000002eb00645688000400210050
:101f0c00545788000002eb00645788000400280036
:101f1c00745788000002eb008457880004002800e6
:101f2c00945788000002eb00a45788000002eb00d5
:101f3c00f45688001400200014578800d7fc0700c2
:101f4c0000242400f1002000830907000060fe003b
:101f5c00c4e2a80000242400f10020007e09070040
:101f6c000060fe00e982a80000242400f10020009b
:101f7c00790907000060fe00e9a2a8000080fa00c1
:101f8c0000000600801f7800849fbe00869fbe0064
:101f9c000000fa008560a9001515800004082000d7
:101fac0004826200e00f5200310032005651800072
:101fbc0067518000041480000500200006024200d6
:101fcc0087824a0054518800655188003650800041
:101fdc0047508000141480000500200006024200c7
:101fec0087824a0034508800455088009653800000
:101ffc00a753800024148000050020000602420034
:10200c0087824a0094538800a5538800b6548000f8
:10201c00c7548000341480000500200006024200e2
:10202c0087824a00b4548800c5548800d655800075
:10203c00e755800044148000050020000602420091
:10204c0087824a00d4558800e55588007652800076
:10205c0087528000541480000500200006024200c4
:10206c0087824a00745288008552880030003700fd
:10207c0056518000675180008414800005002000b8
:10208c000602420087824a0054518800655188003c
:10209c0036508000475080009414800005002000ca
:1020ac000602420087824a0034508800455088005e
:1020bc0096538000a7538000a414800005002000d4
:1020cc000602420087824a0094538800a553880078
:1020dc00b6548000c7548000b41480000500200062
:1020ec000602420087824a00b4548800c554880016
:1020fc00d6558000e7558000c414800005002000f0
:10210c000602420087824a00d4558800e5558800b3
:10211c007652800087528000d41480000500200085
:10212c000602420087824a00745288008552880059
:10213c00b45780000402e800b4578800b5578000fb
:10214c00f4072000848f52005c003600345080006d
:10215c00455080004d2bdd004322de00040273004d
:10216c00c32ade003450880045508800345080006b
:10217c004550800004027800545088006022b8005a
:10218c0034508800455088005451800065518000bf
:10219c004d2bdd004322de0004027300c32ade0057
:1021ac00545188006551880054518000655180005d
:1021bc0004027800745188006022b80054518800e1
:1021cc006551880074528000855280004d2bdd00d3
:1021dc004322de0004027300c32ade00745288001e
:1021ec008552880074528000855280000402780069
:1021fc00945288006022b80074528800855288007e
:10220c0094538000a55380004d2bdd004322de004b
:10221c0004027300c32ade0094538800a55388007f
:10222c0094538000a553800004027800b4538800b6
:10223c006022b80094538800a5538800b4548000e1
:10224c00c55480004d2bdd004322de0004027300d8
:10225c00c32ade00b4548800c5548800b4548000ee
:10226c00c554800004027800d45488006022b80061
:10227c00b4548800c5548800d4558000e5558000be
:10228c004d2bdd004322de0004027300c32ade0066
:10229c00d4558800e5558800d4558000e55580005c
:1022ac0004027800f45588006022b800d4558800e8
:1022bc00e55588000002eb00b4578800745180008b
:1022cc00744b880054508000844b880094528000da
:1022dc00944b88000080fa004f03be004f02be00f2
:1022ec004f007800004006000e00fa00000f780046
:1022fc00214798003247980023079800340798002c
:10230c004507980056079800670798001e0278004a
:10231c00ae429000054a78001e027800be42900042
:10232c00154298001e027800ae029000150298002b
:10233c001e027800144090006033b8003e029000fa
:10234c00ce0290005e019000ee01900001022b0085
:10235c00510507000080fa00000006000e00fa008c
:10236c004007980051079800620798004e029000b1
:10237c00140290008402d1005e029000848f5200ff
:10238c00530036006e0290004822de00044f7800a5
:10239c006e029000144798005e0290000402420006
:1023ac00140798001e0290004822de004447980053
:1023bc001e029000544798004e0290001442900068
:1023cc00044078007205070000027800340798007a
:1023dc004e02900014429000044078008d050700d6
:1023ec0000027800be0290000502720034079800cb
:1023fc004e029000944290004e02900014427800dd
:10240c008540780004407800c4050700000278007d
:10241c00be02900005027200340798004e02900034
:10242c0014429000844078004e409000bb05070099
:10243c0000027800be02900005027200340798007a
:10244c004e02900014429000844078005e40900050
:10245c00b205070000027800be029000050272006f
:10246c00340798004e02900014429000844078008b
:10247c001e409000a905070000027800be029000e3
:10248c0005027200340798004e029000144290002e
:10249c00844078001e407800a005070000027800f8
:1024ac00be02900005027200340798004e029000a4
:1024bc0014429000044078000806070000027800df
:1024cc00be0290000502720034079800020037002b
:1024dc000082eb00340798000080fa000000060030
:1024ec000c00fa0040079800510798004e0290002b
:1024fc00140290008402d1005e029000848f52007e
:10250c006c0036005e029000040242001407980032
:10251c001e0290004822de00444798001e029000e4
:10252c00544798004e0290001442900004407800ea
:10253c001705070000027800340798004e0290003f
:10254c001442900004407800320507000002780025
:10255c00be02900005027200340798004e029000f3
:10256c00944290004e02900014427800854078000e
:10257c00044078006905070000027800be02900054
:10258c0005027200340798004e029000144290002d
:10259c00844078004e4090006005070000027800ef
:1025ac00be02900005027200340798004e029000a3
:1025bc0014429000844078005e409000570507005c
:1025cc0000027800be0290000502720034079800e9
:1025dc004e02900014429000044078002e05070033
:1025ec0000027800be0290000502720034079800c9
:1025fc004e029000944290004e02900014427800db
:10260c000404a000854078000440780043050700ce
:10261c0000027800be029000050272003407980098
:10262c004e0290001442900004407800720507009e
:10263c0000027800044f78004e0290001442900083
:10264c0004407800c605070000027800be02900026
:10265c0005027200340798004e029000144290005c
:10266c0004407800640507000002780014479800c5
:10267c004e0290001442900004407800da050700e6
:10268c0000027800be029000050272003407980028
:10269c004e02900014429000044078008f05070011
:1026ac0000027800be029000050272003407980008
:1026bc00060037000082eb00340798000042eb0064
:1026cc00044f78000042eb00144798001e42900023
:1026dc000482fb00140798001e0290004822dd00c3
:1026ec00140798009e4278000582fb009e02900021
:1026fc0004824200140798001e0290000400780027
:10270c000080fa00000006001200fa005007980042
:10271c006107980072079800030f98007e029000e2
:10272c00e00f5200640032007e029000f00f520065
:10273c000200360004012000740798005e0290002d
:10274c0014029000c522de006e029000848f5200ad
:10275c00570036006e0290004522dd0024079800d9
:10276c002e0290004822de00644798002e02900052
:10277c00744798005e029000144290000440780068
:10278c008304070000027800040f78005e029000ba
:10279c0014429000044078009e0407000002780068
:1027ac001e0f72005e029000944290005e02900038
:1027bc00144278008540780004407800d704070064
:1027cc00000278001e0f72005e029000144290000e
:1027dc00844078006e409000d0040700000278001e
:1027ec001e0f72005e02900014429000844078002c
:1027fc007e409000c9040700000278001e0f720092
:10280c000002eb00140798001e0037001e02900017
:10281c00040242008e0a90000482420014027800e6
:10282c004822de00044f98001e0290000402420071
:10283c008e0a90000482420014027800144f980013
:10284c005e02900014429000844078001e48900074
:10285c00b2040700000278001e0f72005e029000a6
:10286c0014429000844078000e489000ab0407009e
:10287c00000278001e0f72001e0290000402e80095
:10288c00140798009e0290007e029000848f5200e4
:10289c00deff39005e029000144290000440780084
:1028ac000e050700000278001e0f720002003700b0
:1028bc000082eb00040f78000080fa000000060094
:1028cc001200fa00500798006107980072079800f0
:1028dc00030f98007e029000e00f5200cc003200f3
:1028ec007e029000f00f520002003600040120001e
:1028fc00740798005e02900014029000c522de005e
:10290c006e029000848f5200bb0036006e02900065
:10291c004522dd00240798002e0290004822de009c
:10292c00644798002e029000744798005e02900055
:10293c00144290000440780015040700000278004f
:10294c00040f78005e02900014429000044078005e
:10295c0030040700000278001e0f72005e02900027
:10296c00944290005e0290001442780085407800fa
:10297c000440780069040700000278001e0f720002
:10298c005e02900014429000844078006e409000eb
:10299c0062040700000278001e0f72005e029000b5
:1029ac0014429000844078007e4090005b04070045
:1029bc00000278001e0f72005e029000144290001c
:1029cc000440780034040700000278001e0f7200e7
:1029dc005e029000944290005e02900014427800d7
:1029ec000404a00085407800044078004b040700e4
:1029fc00000278001e0f72000002eb001407980012
:102a0c003a0037005e0290001442900004407800b7
:102a1c007904070000027800044f98005e029000d1
:102a2c001442900004407800cd04070000027800a6
:102a3c001e0f72005e029000144290000440780059
:102a4c006d04070000027800144f98005e0290009d
:102a5c001442900004407800c10407000002780082
:102a6c001e0f72001e029000040242008e0a90009b
:102a7c00848242001e4a90000482fb00840a780083
:102a8c001e029000040242008e0a900084824200d2
:102a9c001e029000040242000e0b90000402430040
:102aac00140278004822dd00840a78001e0290008f
:102abc00040242008e0a9000848242001e029000a2
:102acc00040242000e0b9000040243001403780031
:102adc000e4a90000482fb0004024300840a780032
:102aec001e0290000402e800140798007e02900079
:102afc008402e9001e029000848f5200c1ff3e0048
:102b0c005e02900014429000044078003a040700e2
:102b1c0000027800044f98005e029000144290006e
:102b2c00044078008e040700000278001e0f72002b
:102b3c005e02900014429000044078002e040700be
:102b4c0000027800144f98005e029000144290002e
:102b5c0004407800a4040700000278001e0f7200e5
:102b6c001e029000040242008e0a900084824200f1
:102b7c001e4a90000482fb00840a78001e0290001a
:102b8c00040242008e0a9000848242001e029000d1
:102b9c00040242000e0b9000040243001402780061
:102bac004822dd00840a78001e02900004024200d4
:102bbc008e0a9000848242001e02900004024200a1
:102bcc000e0b900004024300140378000e4a900090
:102bdc000482fb0004024300840a78005e02900029
:102bec0014429000044078003c0407000002780076
:102bfc001e0f7200060037000082eb00040f7800f5
:102c0c000042eb00044f98000042eb00144f980078
:102c1c000080fa00000006001200fa00100798006d
:102c2c002107980032079800034f9800540798002a
:102c3c006507980076079800070f98000002eb00d4
:102c4c00040f78001e0390006022b800048bbe00b5
:102c5c001e0290008002eb00250298001e029000dc
:102c6c008002eb00350298001e029000ae0290002c
:102c7c00450298001e029000be029000550298007a
:102c8c000e4a9000e14f42000d003a001e029000e7
:102c9c0005002800650298001e0290008002eb00df
:102cac00750298001e02900005002800050a980085
:102cbc001e0290008002eb00150a98000c003700f1
:102ccc001e02900005002800650298001e0290006c
:102cdc008002eb00750298001e029000050028008f
:102cec00050a98001e0290008002eb00150a98005d
:102cfc001e029000de029000250a98001e02900031
:102d0c00ee029000350a98001e029000fe02900020
:102d1c00550a98001e0290008e0a9000650a9800d1
:102d2c001e0290008002eb00750a98001e029000b3
:102d3c008002eb00051298001e029000ceba97009c
:102d4c00151298000080fa00000006001000fa002e
:102d5c00100798002107980032079800034f98003d
:102d6c005407980065079800760798000002eb005e
:102d7c00040f78001e0290008002eb0025029800e0
:102d8c001e029000de029000350298001e02900098
:102d9c00ee029000450298001e029000fe02900088
:102dac00550298001e029000ae0290006502980039
:102dbc001e029000be029000750298000e4a900010
:102dcc00e14f42000d003a001e0290000500280061
:102ddc00050a98001e0290008002eb00150a98006c
:102dec001e02900005002800250a98001e02900083
:102dfc008002eb00350a98000c0037001e02900090
:102e0c0005002800050a98001e0290008002eb00c5
:102e1c00150a98001e02900005002800250a98004b
:102e2c001e0290008002eb00350a98000080fa0028
:102e3c00000006000400fa00100798001e02900023
:102e4c00740390001e029000e40290001e02900099
:102e5c0014027800060178008500780004007800e0
:102e6c009205070000027800040f78001e02900003
:102e7c00940a90001e029000040a9000050178004c
:102e8c00840078001e0078007305070000027800ab
:102e9c00040f78001e029000b40a90001e029000ed
:102eac00240a900005017800840078001e00780048
:102ebc006905070000027800040f78001e029000dc
:102ecc0024029000e00f520003003a001e02900012
:102edc00d4029000050f78001e0290009e0278002c
:102eec00150298000080fa00000006000400fa00a9
:102efc00100798001e029000140b90001e02900008
:102f0c00840a90001e0290002402900006017800b2
:102f1c0085007800040078004f0507000002780057
:102f2c00040f78001e029000f40290001e02900024
:102f3c006402900005017800840078001e0078007f
:102f4c004505070000027800040f78001e0290006f
:102f5c00d40290001e0290004402900005017800fb
:102f6c00840078001e0078005005070000027800ed
:102f7c00040f78001e0290009e0278003502980023
:102f8c000080fa00000006000400fa00000f780030
:102f9c00110798001e027800b40290001e029000e7
:102fac00848f5200030031001e027800b40290009e
:102fbc00150798001e027800c40290001e029000b3
:102fcc00848f5200030036001e027800c402900069
:102fdc00150798001e0278009e029000050a7800e2
:102fec000080fa00000006000200fa00000f7800d2
:102ffc001e027800b40290001e027800240a900091
:10300c00848f5200020036001400200001003700ab
:10301c000002eb00040078000080fa0000000600bb
:10302c000200fa00000f78001e027800b402900033
:10303c001e027800340a9000848f52000200310086
:10304c0014002000010037000002eb00040078009f
:10305c000080fa00000006000400fa001007980037
:10306c001e029000d40a90001e029000440a9000a8
:10307c000001eb008500780004007800f6040700de
:10308c0000027800040f78001e029000640a900081
:10309c009e0f5200030036001e029000e40a9000be
:1030ac00050f780004f02f009e0252001e029000c3
:1030bc00440a9000848f5200040036001e029000d7
:1030cc00440a90001e0f42000200370004f02f004b
:1030dc00040f78001e029000340290009e0f5200e4
:1030ec00060036001e029000740a90008402e8006c
:1030fc001e029000750a9800090037001e0290000d
:10310c00740a9000e00f5200050032001e0290007d
:10311c00740a90008402e9001e029000750a98005f
:10312c001e029000f40a90001e02900014129000ef
:10313c00848f52000f0039001e029000f40a900098
:10314c001e0290001412900004024200848f520060
:10315c00060039001e029000141290000402420076
:10316c00840278001e029000750a9800140020005a
:10317c00010037000002eb00040078000080fa0028
:10318c00000006000400fa00100798001e029000d0
:10319c00d40a90001e029000440a90000001eb003b
:1031ac008500780004007800ab040700000278006a
:1031bc00040f78001e029000640a90009e0f5200cb
:1031cc00030036001e029000e40a9000050f780000
:1031dc001e029000440a90009e0f5200040036001c
:1031ec001e029000440a90001e0f5200020037008d
:1031fc000002eb00040f78001e02900034029000d5
:10320c009e0f5200060031001e0290000412900026
:10321c008402e8001e029000051298000900370095
:10322c001e02900004129000e00f520005003200c4
:10323c001e029000041290008402e9001e0290000d
:10324c00051298001e029000841290001e0290003d
:10325c0014129000848f52000f0039001e0290004f
:10326c00841290001e02900014129000040242007e
:10327c00848f5200060039001e0290001412900038
:10328c0004024200840278001e029000051298008d
:10329c0014002000010037000002eb00040078004d
:1032ac000080fa00000006001400fa004047980065
:1032bc00310798004207980053079800640798005c
:1032cc0075079800060f9800170f98003e029000a3
:1032dc00f401b300340798000e0b90009e0b900085
:1032ec00463add00ca32de00850272004632dd004d
:1032fc006e019000fe0190000400be0012f5070064
:10330c000002be00048fbe00042020000500200037
:10331c001e03be00840f5300858f5b0003003e002c
:10332c0014002000c457880032003700348020007d
:10333c00050020001e03be00840f5300858f5b0028
:10334c000d003e0044002000c45788001e02be0041
:10335c004e2bdd004222de0004027300c22ade0086
:10336c00048fbe00be029000e4ff2f0004826200b6
:10337c00340798001f003700f400220005002000dd
:10338c001e03be00840f5300858f5b000d003e00b2
:10339c0004012000c45788001e02be004c2bdd0027
:1033ac004422de0004027300c42ade00048fbe0037
:1033bc00be029000d4ff2f000482620034079800f4
:1033cc000c00370004042000c45788001e02be0005
:1033dc004a2bdd004622de0004027300c62ade0002
:1033ec00048fbe00be029000c4ff2f000482620056
:1033fc0034079800041c2000050020001e03be00aa
:10340c00840f5300858f5b0008003600c457800082
:10341c004322dd00c4578800be02900034fe2f000a
:10342c00048262003407980057003700041820000b
:10343c00050020001e03be00840f5300858f5b0027
:10344c0009003600c45780006722b90004027800d6
:10345c00c4578800be02900074fe2f0004826200e4
:10346c0034079800480037000414200005002000a1
:10347c001e03be00840f5300858f5b0009003600cd
:10348c00c45780006622b90004027800c457880033
:10349c00be029000b4fe2f00048262003407980034
:1034ac003900370004102000050020001e03be0068
:1034bc00840f5300858f5b0009003600c4578000d1
:1034cc006522b90004027800c4578800be0290003f
:1034dc00f4fe2f0004826200340798002a003700a3
:1034ec00040c2000050020001e03be00840f5300b6
:1034fc00858f5b0008003600c45780004222dd0037
:10350c00c4578800be02900034ff2f000482620072
:10351c00340798001c003700040820000500200028
:10352c001e03be00840f5300858f5b00090036001c
:10353c00c45780006322b90004027800c457880085
:10354c00be02900074ff2f000482620034079800c2
:10355c000d00370004042000050020001e03be00ef
:10356c00840f5300858f5b0007003600c457800022
:10357c0004024200c4578800be029000b4ff2f0022
:10358c000482620034079800c45780004222dd0098
:10359c00c45788004e429000e14f520004003a009c
:1035ac003e029000141188005e0390000611880002
:1035bc004e429000e24f520004003a003e0290004e
:1035cc00441188005e039000361188000080fa00d8
:1035dc00000006000c00fa0040079800214f9800ec
:1035ec000042eb00044f78002e4a9000e14f52004d
:1035fc0054003a008500a9004e0290002411880066
:10360c000002eb0034079800180037003e029000cf
:10361c000402e80034079800c4578000be029000f2
:10362c00848f52000300360034c0b300044f78007e
:10363c000e00370005118000040420000482620093
:10364c00e00f52000300320044c0b300044f780076
:10365c00060037000411800062026200e00f520085
:10366c0002003a0014c0b300044f78001e427800e8
:10367c00e04f5200e5ff3200200037003e02900080
:10368c000402e80034079800c4578000be02900082
:10369c00848f52000300360034c0b300044f78000e
:1036ac00160037000511800004042000048262001b
:1036bc00e00f52000300320044c0b300044f780006
:1036cc000e003700250480000410200004826200e4
:1036dc00e00f52000300320024c0b300044f780006
:1036ec00060037000411800061026200e00f5200f6
:1036fc000200320024c0b300044f78001e42780050
:10370c00e14f5200ddff32001e427800e24f5200c2
:10371c0005003a00241180000500200014079800d1
:10372c002507980007003700040020001511210020
:10373c001407980025079800d45780000402e8006d
:10374c00d45788002e4a9000e24f52004d003a00a8
:10375c008740a9004e029000541188000002eb0033
:10376c0034079800180037003e0290000402e8006d
:10377c0034079800c4578000be029000848f52001a
:10378c000300360034c0b300044f78000e0037003d
:10379c00351180000404200004826200e00f520006
:1037ac000300320044c0b300044f78000600370019
:1037bc003411800062026200e00f520002003a00f5
:1037cc0014c0b300044f78001e427800e04f520042
:1037dc00e5ff3200190037003e0290000402e800b9
:1037ec0034079800c4578000be029000848f5200aa
:1037fc000300360034c0b300044f78000f003700cc
:10380c00351180000404200004826200e00f520095
:10381c000300320044c0b300044f780007003700a7
:10382c00350480000440200004826200e00f520046
:10383c000200320024c0b300044f78001e4278000e
:10384c00e14f5200e4ff32001e427800e24f52007a
:10385c0005003a0054118000050020001407980060
:10386c0025079800070037000400200015112100df
:10387c001407980025079800e45780000402e8001c
:10388c00e45788001e029000ae0290000400be00b7
:10389c000080fa00000006001400fa00404798006f
:1038ac003107980042079800530798006407980066
:1038bc0075079800060f9800170f98004e0190009e
:1038cc00de0190006e009000fe0090009ef3070059
:1038dc000002be00048fbe001e0278004422dd00f0
:1038ec00445888006e029000fe02900052cd2d00cc
:1038fc00230320000400be0093f307000002be0067
:10390c001e1f12001e971a000082eb008082eb0033
:10391c001e0f42005e974a001e03be0014002000da
:10392c0005002000840f5300858f5b0003003e00d0
:10393c002400200005002000048fbe00f4ff2f009f
:10394c00050020001e03be00840f5300858f5b0012
:10395c00030036002400200005002000048fbe0068
:10396c004e429000e04f5200030032004e42900055
:10397c00e14f520004003a00be029000351088005e
:10398c001e027800241088000080fa000000060057
:10399c000600fa00404798000002eb00140798005c
:1039ac004e429000e04f5200030032004e42900015
:1039bc00e14f520013003a000002eb00040f7800b4
:1039cc000b0037001e0fe800445880009e02780060
:1039dc00848f52000600360004a02f0014079800b4
:1039ec00345880000402e800345888000500370081
:1039fc00451080000400240004826200e00f520095
:103a0c00f0ff3a001e029000040078000080fa00db
:103a1c00000006000600fa00404798000002eb0088
:103a2c00140798004e429000e04f52000300320001
:103a3c004e429000e14f520013003a000602a800db
:103a4c000002eb00040f78000b0037001e0fe8009b
:103a5c00445880009e027800848f52000600360085
:103a6c0004a02f0014079800345880000402e800ca
:103a7c003458880004003700341080006102620062
:103a8c00e00f5200f1ff3a001e0290000400780093
:103a9c000080fa00000006000600fa00404798007b
:103aac000002eb00140798004e429000e04f5200c9
:103abc00030032004e429000e14f520013003a00d6
:103acc000622a8000002eb00040f78000b00370060
:103adc001e0fe800445880009e027800848f52002c
:103aec000600360004a02f001407980034588000fc
:103afc000402e800345888000400370034108000b9
:103b0c0062026200e00f5200f1ff3a001e029000c8
:103b1c00040078000080fa00000006000600fa009d
:103b2c0040479800514798000002eb00140798009a
:103b3c005e429000e04f5200030032005e42900063
:103b4c00e14f520028003a004e4290000482fb00e4
:103b5c00141088000002eb00040f78000c003700f2
:103b6c001e0fe800445880009e027800848f52009b
:103b7c000700360004a02f0014079800345880006a
:103b8c000402e800345888000000000011003700df
:103b9c00451080000400240004826200e00f5200f3
:103bac00efff32000b0037001e0fe8004458800076
:103bbc009e027800848f52000600360004a02f006d
:103bcc0014079800345880000402e8003458880028
:103bdc0005003700451080000400240004826200b8
:103bec00e00f5200f0ff3a001e0290000400780033
:103bfc000080fa00000006000600fa00404798001a
:103c0c000002eb00140798004e429000e04f520067
:103c1c00030032004e429000e14f52002b003a005c
:103c2c000662a8000002eb00040f78000c003700bd
:103c3c001e0fe800445880009e027800848f5200ca
:103c4c000700360004a02f00140798003458800099
:103c5c000402e8003458880000000000100037000f
:103c6c003410800068026200e00f5200f0ff3a004e
:103c7c000b0037001e0fe800445880009e027800ad
:103c8c00848f52000600360004a02f001407980001
:103c9c00345880000402e8003458880004003700cf
:103cac004410800062026200e00f5200f1ff32000b
:103cbc001e029000e00f520004003a000510800034
:103ccc00f40f200004826200140798001e0290007a
:103cdc00040078000080fa00000006000600fa00dc
:103cec00404798000002eb00140798004e429000e9
:103cfc00e04f5200030032004e429000e14f520060
:103d0c0013003a000642a8000002eb00040f7800f2
:103d1c000b0037001e0fe800445880009e0278000c
:103d2c00848f52000600360004a02f001407980060
:103d3c00345880000402e80034588800040037002e
:103d4c003410800064026200e00f5200f1ff3a0070
:103d5c001e029000040078000080fa0000000600ab
:103d6c000600fa00404798000002eb00040f7800b0
:103d7c000002eb00140798004e429000e04f5200f6
:103d8c00030032004e429000e14f520012003a0004
:103d9c0006a2a9000682a8000b0037001e0fe8003f
:103dac00445880009e027800848f52000600360032
:103dbc0004a02f0014079800345880000402e80077
:103dcc003458880004003700341080007002620000
:103ddc00e00f5200f1ff3a001e0290000400780040
:103dec000080fa00000006000600fa004047980028
:103dfc000002eb00040f78000002eb00140798009f
:103e0c004e429000e04f5200030032004e429000b0
:103e1c00e14f520012003a0006a2a8000682a80048
:103e2c000b0037001e0fe800445880009e027800fb
:103e3c00848f52000600360004a02f00140798004f
:103e4c00345880000402e80034588800040037001d
:103e5c003410800070026200e00f5200f1ff3a0053
:103e6c001e029000040078000080fa00000006009a
:103e7c001001900090007800010051000000e90052
:103e8c00f000b200000006001001900090007800d5
:103e9c0002805000f000b200000006001170a60075
:103eac001a003700e40140009309e80090019000eb
:103ebc001001e800f200b2000310e1001000320023
:103ecc00100178006a11b800e801400082814100bd
:103edc006e8150009219780066014100b219780089
:103eec00b2197800b2197800b21978001001e80004
:103efc00f200b20002087800e60140009309e900e4
:103f0c00e60140009309e8001170a10000000600d2
:103f1c001170a600090037006e815000121878004d
:103f2c006601410032187800321878003218780097
:103f3c00321878001170a10008003700827f210030
:103f4c00021878000200200002187800021878008d
:103f5c0002187800021878003100370000000600c3
:103f6c00e40140009309e800900190001001e80082
:103f7c00f200b2000310e1000e00320010017800d4
:103f8c006a11b800e801400082814100b119780043
:103f9c00b1197800b1197800b1197800b11978000d
:103fac001001e800f200b20002087800e6014000bf
:103fbc009309e900e60140009309e80000000600bf
:103fcc0010019000900178000310e10008003a0005
:103fdc00837f210083187800030020008318780069
:103fec008318780083187800831878000c00370049
:103ffc006a11b8006801410000014100b218780054
:10400c00b2187800b2187800b2187800b21878009c
:10401c00100190000201e800f200b20012009800ba
:10402c00000006001130a7001300370010019000ab
:10403c00900178000310e1000f0032006a11b80003
:10404c006801410000014100ee815000b209780086
:10405c00e6814100b2197800b2197800b2197800e3
:10406c00b21978001130a000100190000201e80094
:10407c00f200b20012009800000006001130a100fe
:10408c006e815000300978006601410030197800cb
:10409c003019780030197800301978001130a000f0
:1040ac00000006000018eb000018eb000018eb00f5
:1040bc000008eb00000006000200fa00000f780078
:1040cc001e027800b4029000240290000400be008e
:1040dc00610007001e0278001402be000400be003e
:1040ec005d0007001e027800b402900024029000cc
:1040fc000400be008c0007001e0278001402be00f3
:10410c000400be00880007001e027800240b9000fb
:10411c00b40b90001e027800940a9000040a9000e0
:10412c001e007800f00190001e00780060019000e5
:10413c001e007800d00090001e007800004890000f
:10414c0059fc07000080fa00000006000c00fa0081
:10415c00300798004107980052079800de02900043
:10416c00f4ff20000482620054079800ce029000f5
:10417c0004002f000482620044079800ce029000d5
:10418c005e02900005027200440798000042eb00aa
:10419c00044f78003e0290001402be000400be00e2
:1041ac003e0007003e029000044a900084407800d4
:1041bc004e00900007fd07000002be001407980097
:1041cc00250798001e039000ae0390000400200009
:1041dc0015112100840f5300858f5b0002003a00fb
:1041ec0014c0b300044f78003e0290001402be00cd
:1041fc000400be00180007003e029000b4029000bc
:10420c00240290000400be002400070000000000ff
:10421c000000000000000000000000003e029000c2
:10422c00b4029000240290000400be000a000700b3
:10423c001e427800e04f52000300320054588000b8
:10424c000402e800545888001e42780004407800ac
:10425c000080fa000000060001600100c422b700d3
:10426c0000000600ca22b70000000600d022b700ea
:10427c0000000600d622b700000006000000000077
:10428c0000000600e222b70000000600e822b7009a
:10429c000000060000000000000006000080ea009c
:1042ac0001600100c422b60000000600ca22b6005c
:1042bc0000000600d022b60000000600d622b60090
:1042cc00000006000000000000000600e222b6001c
:1042dc0000000600e822b600000006000000000006
:1042ec000000060001600100c022b70000000600bb
:1042fc00c622b70000000600cc22b7000000060062
:10430c00d222b700000006000000000000000600ea
:10431c00de22b70000000600e422b7000000060011
:10432c0000000000000006000080ea0001600100af
:10433c00c022b60000000600c622b600000006002f
:10434c00cc22b60000000600d222b6000000060007
:10435c000000000000000600de22b600000006008f
:10436c00e422b60000000600000000000000060079
:10437c000400fa00100798001e029000c40290007e
:10438c00050f7800a44d80000402e800a44d8800bd
:10439c000080fa00000006000400fa0010079800e4
:1043ac001e029000c4029000050f7800a44d8000fe
:1043bc000402e800a44d88000080fa00000006000a
:1043cc000400fa00100798001e029000c40290002e
:1043dc00050f7800f4ff20001e0f6200a44d800032
:1043ec000402e800a44d88000080fa0000000600da
:1043fc000000fa0014002000645888000080fa00c5
:10440c00000006000000fa00a4528000a7528000b1
:10441c006650800085518000870178000601780085
:10442c0085007800c001200093f207000080fa009c
:10443c00000006000000fa000080fa0000000600f0
:10444c000000fa000080fa00000006000000fa00ec
:10445c000080fa00000006000200e00005003b00ae
:10446c00020040000800310000002000022bec008c
:10447c00050037000200400003003900f0ff2f0058
:10448c00022bec00000037000101b8006218b800e4
:10449c000100e00002003200f0ff2f00022bec00c4
:1044ac00cf10de0001007000000006000200e000ea
:1044bc0005003b0002004000080031000000200015
:1044cc00042bec000500370002004000030039000b
:1044dc00f0ff2f00042bec00000037000101b800a6
:1044ec007018b8000100e00002003200f0ff2f004d
:1044fc00042bec00cc10de00010070000000060064
:020000040000fa
:10450c00ce0900002a010000000000000a0b000088
:10451c00020000000000000000080000ce010000b6
:10452c00000000000c0b0000020000000000000066
:10453c00020b00000400000000000000060b00004d
:10454c000400000000000000f80a00000600000053
:08455c00000000000000000057
:020000040000fa
:10456400f03fb1000180b10006003500ee03090000
:1045740000000000403fb1000180b100fbff3d009e
:104584001000b000203fb000020035000080090098
:08459400000000000000060019
:020000040000fa
:0200000401f009
:04000000ecbb000055
:020000040000fa
:0200000401f009
:04000400f7ff000002
:020000040000fa
:0200000401f009
:040008004cff0000a9
:020000040000fa
:0200000401f009
:04000c00ffff0000f2
:020000040000fa
:0200000401f009
:04001000ffff0000ee
:020000040000fa
:0200000401f009
:04001400ffff0000ea
:020000040000fa
:0200000401f009
:04001800ffff0000e6
:00000001FF
