:020000040000fa
:080000000001040000000000f3
:020000040000fa
:100008009a0100009a0100009a0100009a0100007c
:100018009a0100009a0100009a0100009a0100006c
:100028009a0100009a0100009a0100009a0100005c
:100038009a0100009a0100009a0100009a0100004c
:100048009a0100009a0100009a0100006c1100005a
:100058009a0100009a0100009a0100009a0100002c
:100068009a0100009a0100009a0100009a0100001c
:100078009a0100009a0100009a0100009a0100000c
:100088009a0100009a0100009a010000220b00006a
:100098009a0100009a0100009a0100009a010000ec
:1000a8009a0100009a0100009a0100009a010000dc
:1000b800501100009a0100009a0100009a01000006
:1000c8009a0100009a0100009a0100009a010000bc
:1000d8009a0100009a0100009a0100009a010000ac
:1000e8009a0100009a0100009a0100009a0100009c
:0800f8009a0100009a010000ca
:020000040000fa
:100108009a0100009a0100009a0100009a0100007b
:100118009a0100009a0100009a0100009a0100006b
:100128009a0100009a0100009a0100009a0100005b
:100138009a0100009a0100009a0100009a0100004b
:100148009a0100009a0100009a0100006c11000059
:100158009a0100009a0100009a0100009a0100002b
:100168009a0100009a0100009a0100009a0100001b
:100178009a0100009a0100009a0100009a0100000b
:100188009a0100009a0100009a010000220b000069
:100198009a0100009a0100009a0100009a010000eb
:1001a8009a0100009a0100009a0100009a010000db
:1001b800501100009a0100009a0100009a01000005
:1001c8009a0100009a0100009a0100009a010000bb
:1001d8009a0100009a0100009a0100009a010000ab
:1001e8009a0100009a0100009a0100009a0100009b
:0801f8009a0100009a010000c9
:020000040000fa
:100200008fb120000e7f22000e0188000000000048
:10021000000020000000e000020032000001200089
:10022000200288000c000700001f220001002000af
:1002300011000700000020000000e0000200320072
:100240000000020000000000960c02000000000008
:100250000040da000000fe004440a9000004200035
:100260000000e0000300320000002000a001880030
:100270004440a8000000060091018800800078003a
:100280000000eb0015003700e280400032a0b4000f
:100290009101ba00e280400032a0b4009102ba009d
:1002a000e280400032a0b4000002eb00472bde00e9
:1002b000f507b200602ce10004003a000059eb00a1
:1002c0008301e900fdff3e00040037006128e100e2
:1002d000010032000082eb00040007001101ba00a7
:1002e0000200e000e8ff3a00000006003159ba00c1
:1002f0008301e9000c0032002159ba008301e900b2
:10030000080032000400e00003003a00e2804000f0
:1003100032a0b400f5ff370011d9ba008301e9001b
:10032000faff3a008100e800e180400032a0b4000a
:10033000000006000040da000000fe003200f80075
:10034000910188000008bb00410424006210e10014
:1003500004003200000220000010e1000a003a0010
:1003600051042400013b88000500fc0051052000d9
:10037000313b8800a10a2000313b880061e7a800da
:1003800000000000000000003200f900000006003c
:100390003200f80060042400003b8800f2ff3700c0
:1003a0003200f8009101880041002400013b8800e0
:1003b0000208bb00ecff37003200f8009101880012
:1003c00051002400013b8800030120003218bb00cb
:1003d0008301e900fdff3a00e3ff370003f0a200cc
:1003e000889fbe008a9fbe008c1f7800b500070062
:1003f000bc0033006450e1004f0032006420e10093
:100400005200320003826c0007003b000905d00057
:100410000306d000820f54000c065d000200390074
:1004200002003200890178000306780085825500b9
:1004300004003d000003fd008103fd008502ea0089
:100440008b854200840f720002003b0060001000a8
:10045000e08018006011b8000005eb007a28e10088
:100460000a00390006007800c75ddd00f707b2001a
:10047000878075002d003700828171000a017800a5
:10048000610560008180d1000080d3008502e90011
:10049000f9ff3b00060440008784480002003b004f
:1004a00060041400e0841c000988a30007003200e7
:1004b0008a81710082817100610164008904d10028
:1004c0000884d3008b05e800170037000978a300e3
:1004d00013003a000b00e000130034008b05e90024
:1004e0000804440089844c000a4474000978a3007d
:1004f0000d003a000b00e000070034008b05e90016
:100500000804440089844c0001003a000b002000dc
:100510000978a300f7ff32000001eb00020037006a
:10052000828171000a0178002b0007000cf0a700ff
:1005300001f0a000740037006420e10002003a00de
:10054000838f6c00740033000801be000200be00ff
:100550006d00370014002000b6003700f4ff2f00b4
:10056000b40037000001be00410007000470a7007e
:1005700003f0a10003f8a30013003a006509b100dd
:1005800010003200090035006928e1000200350042
:1005900001002800000005000000400081804800a4
:1005a0008502e900fcff3a0000000600f88f4200d7
:1005b000050035008100d1000080d3008502e800ed
:1005c000fcff3a00000006008000eb000000050080
:1005d0006011b800b2003700810020006180550032
:1005e0000b003d000b00200061fe2f000100e10028
:1005f0001d00340082817100610164008904d10012
:100600000884d3000000e800faff3a0071002000df
:100610006100640003007000020060000900320005
:1006200061044400e0844c000988a5000500320004
:100630008b05e8006808e10002003a008904d10057
:100640000884d300f20f20000258e10005003d00ad
:10065000c75ddd00f907b2008980750008007800e9
:10066000000006000bf827008b0078000000050052
:10067000c70ade00f107b200f50fb2000800320031
:10068000e1cf4200020032000170a000240005000a
:10069000810f7000010032000408050044000500cd
:1006a000810f700002003a00140005008502e90085
:1006b0000000400081c04800fcff3b000170a0002a
:1006c000240005000004be00e9ff07000003be008f
:1006d0000405be000200be00e5ff0700844f750060
:1006e000000006000200be006450e1000500360074
:1006f0006420e100020036000968a30001003a000e
:100700000800be000160a0004f0678004f05be0043
:100710004f04be0000000600f0ff2f00f1ff27008d
:10072000f9ff3700889fbe008a9fbe008c1f7800ab
:10073000e4ff0700ebff330003866c006450e10028
:10074000240032006420e100270032006150e10003
:10075000220032006120e100210032008b8542003e
:10076000eb07b1000134b800003ab80008044200b9
:1007700089844a00013ab8000030b80088804000ff
:1007800009014a0004003300000040008180480055
:10079000020149008b05e900c909dd0083017000f1
:1007a0000100320013002000c814de004814dd00f0
:1007b0004709de001200b200c808de00088470009d
:1007c00085ff070001f0a1000cf0a70001f0a000d8
:1007d000cdff37006120e100cfff32000801be00ed
:1007e0000200be00f7ff37006150e100fcff3a0055
:1007f000c9ff37006022b800060220000000d000c8
:100800008180d2000482d2008582d2000000a00044
:100810000202520083825a000300310002024200a9
:1008200083824a000000a1000603e900f3ff3a00ba
:1008300000000600889fbe008a9fbe00841f7800cb
:10084000a0ff07004f00780011003300f0ff2f00d9
:10085000838f6c0006003b00040565000a00a700ba
:100860000800370009f0a60010002000080037003b
:10087000820f5400838f5c000300390010002000b9
:1008800001003e000000200009f0a7000000ea007f
:100890004f05be004f04be000000e000000006004f
:1008a000889fbe008a9fbe00008270000402710013
:1008b00004827100260032000004be000200be0067
:1008c0006011b8006b092000950220000182cf0062
:1008d0000a0039000541b1000082cf00070039004d
:1008e0000541b1000982cf00040039000541b10083
:1008f0000882cf00010039000541b10005425200d5
:10090000120032000a003b00828171006101640024
:100910008100d1000080d3008984d3000884d300f3
:100920008b05e8000442e800f7ff3a0007003700b3
:100930000804440089844c0000004800818048007d
:100940008b05e9000442e900f9ff3a0022ff0700a5
:0c0950004f05be004f04be000000060072
:020000040000fa
:10095c00000000000080000000000000008000008b
:10096c00000000000080000000000000008000007b
:10097c00000000000080000000000000008000006b
:10098c00000000000080000000000000008000005b
:10099c00000000000000000000000000000000004b
:1009ac00000000000000000000000000000000003b
:1009bc00000000000000000000000000000000002b
:1009cc00000000000000000000000000000000001b
:020000040000fa
:1009dc000000fa00d51c800004f02f008482620015
:1009ec00264d800004f02f0004026300848f520017
:1009fc000a003600254d8000f40f200004826200ae
:100a0c00244d8800254d8000d61c800004f02f005a
:100a1c000402630004824200244d8800d51c80002f
:100a2c00f40f200084826200264d8000f40f200019
:100a3c0004026300848f52000a003600254d8000aa
:100a4c0004f02f0004826200244d8800254d8000a4
:100a5c00d61c8000f40f20000402630004824200c4
:100a6c00244d880054342c00244b880034122f0061
:100a7c00344b8800043a8000c44a880026000700e2
:100a8c00e9000700dc010700ea010700449c200094
:100a9c00940278000400280004826200e00f5200e7
:100aac000100320009020700144e8000e44a88005d
:100abc00e54a8000e44d800004824200e44a88004c
:100acc00e54a8000f44d800004824200e44a88002c
:100adc00e54a8000044e800004824200e44a88000b
:100aec00e54a8000c44d800004824200e44a88003c
:100afc00e54a8000b44d800004824200e44a88003c
:100b0c00e54a8000a44d800004824200e44a88003b
:100b1c000080fa00000006000a00fa001d003700f1
:100b2c008e00780040802000f50c07009e027800b3
:100b3c008407200004826200e80f52000400320097
:100b4c00c44d80000402e800c44d88001100370039
:100b5c009e02780084482100848f520003003a00e2
:100b6c000e007800160007000a0037009e0278007d
:100b7c0084602100848f520003003a000e0078003c
:100b8c006800070003003700a44d80000402e80051
:100b9c00a44d8800408020008b0c070000027800d8
:100bac00e00f5200deff3a0094458000e44d8800cf
:100bbc0054408000f44d88000080fa0000000600cc
:100bcc000400fa00100798001e029000c402900066
:100bdc00050f780004002f009e0262000400210023
:100bec00848f520004003200b44d80000402e800ef
:100bfc00b44d88001a003700f4ff20001e0f62006d
:100c0c00f40f20009e027800848f520003003e00f7
:100c1c001e0090001400070011003700f41f200084
:100c2c009e027800848f520003003e001e0090004c
:100c3c00240007000a003700f43f20009e027800d1
:100c4c00848f520003003e001e009000c20d07006e
:100c5c0003003700b44d80000402e800b44d880056
:100c6c000080fa00000006000400fa00100798004b
:100c7c001e029000c4029000050f7800f4ff2000c3
:100c8c001e0f62001e027800e10f520003003200ba
:100c9c00e30f520003003200040037000000fe0096
:100cac00060037003808070004003700b44d8000f8
:100cbc000402e800b44d8800000000000080fa0037
:100ccc00000006000400fa00100798001e029000b5
:100cdc00c4029000050f7800f4ff20001e0f620084
:100cec001e02900014029000840078001e00780010
:100cfc00440b07001e029000a40290001e02e800a4
:100d0c0085007800040078003e0b0700000000000e
:100d1c000000000000000000000000000080fa004d
:100d2c00000006000e00fa00600798006e029000aa
:100d3c00c4029000050f780004002f009e02620090
:100d4c0004002100848f520004003200b44d800056
:100d5c000402e800b44d88002e003700f4ff200098
:100d6c001e0f6200f48f20009e027800848f5200c8
:100d7c0004003600f49f20009e027800848f5200fd
:100d8c0004003600b44d80000402e800b44d880025
:100d9c002000370004802f001e0f4200c4002a00e0
:100dac00140798006e029000c402900004802f007b
:100dbc0004824200540798000002eb00440798009c
:100dcc001e02e80004007800370b070000027800d0
:100ddc00340798001e007800330b070000027800df
:100dec002407980000000000000000000000000034
:100dfc000e82e80084007800c08a2000280c0700ce
:100e0c00741b800068026200e00f520001003a007f
:100e1c008760a8000080fa00000006000000fa00bd
:100e2c000080fa00000006000000fa002504800093
:100e3c000404200004826200e00f5200a000320083
:100e4c0084c0a900044080000402e800044088002b
:100e5c00044080006f026200044088009a00070082
:100e6c000440800005002000f60020000700200050
:100e7c00860f5200878f5a0091003e0004600100db
:100e8c000f00370018003700210037002a00370008
:100e9c00330037003c003700450037004e00370068
:100eac0057003700600037006900370072003700c8
:100ebc007b0037007c0037007d0037007e00370058
:100ecc00f44a8000e74a8000d64a8000c54a800078
:100edc008701780006017800850078000000eb009f
:100eec008e0007007600370024962000140378004b
:100efc00054b80000002eb008001eb00060178003e
:100f0c008500780010002000840007006c0037007a
:100f1c00744b8000674b8000564b8000454b800023
:100f2c0087017800060178008500780020002000f9
:100f3c007a00070062003700b44b8000a74b80009a
:100f4c00964b8000854b8000870178000601780065
:100f5c008500780030002000700007005800370032
:100f6c00f44b8000e74b8000d64b8000c54b8000d3
:100f7c008701780006017800850078004000200089
:100f8c00660007004e003700344c8000274c800070
:100f9c00164c8000054c8000870178000601780013
:100fac0085007800500020005c00070044003700ea
:100fbc00544d8000474d8000364d8000254d8000fb
:100fcc0087017800060178008500780080002000f9
:100fdc00520007003a003700944d8000874d800086
:100fec00764d8000654d8000870178000601780001
:100ffc008500780090002000480007003000370082
:10100c00d44d8000c74d8000b64d8000a54d8000aa
:10101c00870178000601780085007800a000200088
:10102c003e00070026003700144e8000074e80005b
:10103c00f64d8000e54d80008701780006017800b0
:10104c0085007800b0002000340007001c00370039
:10105c00d44c8000c74c8000b64c8000a54c80005e
:10106c008701780006017800850078006000200078
:10107c002a00070012003700144d8000074d800035
:10108c00f64c8000e54c8000870178000601780062
:10109c008500780070002000200007000800370051
:1010ac00b70c070006003700c10c0700040037001e
:1010bc00c20c070002003700c30c07000000000040
:1010cc000080fa00000006000a00fa00c4802a0022
:1010dc00040f7800849820001402780014079800fc
:1010ec00a49820001402780024079800644c800017
:1010fc0034079800744c800044079800e1352000b8
:10110c000e007800ad0b0700444d80000402e8008f
:10111c00444d88000080fa00000006001400fa001c
:10112c00500798006107980072079800030f980009
:10113c00140f98005e0290006f0262005407980032
:10114c005e0290000440a000540798005e029000dc
:10115c000402420054079800de0290000460200054
:10116c0005027200540798005e0290004222dd00d6
:10117c00540798005e029000040f78009e027800dd
:10118c0004f02f0004826200040f78001e02780025
:10119c004322dd00040f78009e0278005e0390006d
:1011ac00f40f20000402630005027200040f7800a3
:1011bc001e0a9000140798000e0a9000240798004d
:1011cc007e029000340798006e029000440798004d
:1011dc008e007800c08a2000310b0700741b800041
:1011ec0068026200e00f520001003a008760a8001c
:1011fc000080fa00000006000000fa0025048000c0
:10120c000408200004826200e00f52000700320044
:10121c0084e0a900144e80000402e800144e8800fb
:10122c00144e8000a45888008829a8000080fa0079
:10123c00000006000000fa0014408000e00f52008d
:10124c0005003a00444c800061026200e00f52003d
:10125c00010032009cff0700444c80006142620098
:10126c000482fb00144088000080fa000000060095
:10127c000200fa00000f7800449c20009e027800c7
:10128c0095029000050a78001e027800a4029000d6
:10129c00449c2000150298001e027800b4029000b5
:1012ac00449c200025029800449c20008082eb0086
:1012bc00350298000060fe008829a9000002eb00ae
:1012cc00540888000080fa00000006000000fa00b4
:1012dc000002eb00944588000002eb0054408800ab
:1012ec000002eb00945888000002eb00a458880020
:1012fc000002eb00c44a88000002eb00d44a8800cc
:10130c000002eb00e44a88000002eb00f44a88007b
:10131c000002eb00044b88000002eb00244b880019
:10132c000002eb00344b88000002eb00444b8800b9
:10133c000002eb00544b88000002eb00644b880069
:10134c000002eb00744b88000002eb00844b880019
:10135c000002eb00944b88000002eb00a44b8800c9
:10136c000002eb00b44b88000002eb00c44b880079
:10137c000002eb00d44b88000002eb00e44b880029
:10138c000002eb00f44b88000002eb00044c8800d8
:10139c000002eb00144c88000002eb00244c880087
:1013ac000002eb00344c88000002eb00244d880056
:1013bc000002eb00344d88000002eb00444d880025
:1013cc000002eb00544d88000002eb00644d8800d5
:1013dc000002eb00744d88000002eb00844d880085
:1013ec000002eb00944d88000002eb00a44d880035
:1013fc000002eb00b44d88000002eb00c44d8800e5
:10140c000002eb00d44d88000002eb00e44d880094
:10141c000002eb00f44d88000002eb00044e880043
:10142c000002eb00144e88000002eb00b41c880094
:10143c0041e7a90041c7a90040e7a9004087a900de
:10144c004067a9004047a9004027a9004007a90010
:10145c0040c7a9000080fa00000006000000fa0056
:10146c00945880000402e80094588800449c2000a2
:10147c008002eb00050a7800449c20001500200037
:10148c0015029800449c200025002000250298009d
:10149c00449c2000350020003502980094588000b0
:1014ac00044b8800a4588000144e88008f60a9005b
:1014bc008760a9000405800004c0a10004d0a1002d
:1014cc0004e0a000040588000002eb00b41c8800b6
:1014dc009803a8009823a8009843a80098a3a800f4
:1014ec0040802000bf0a0700c08a2000bd0a070008
:1014fc0004402000841c880000000000851c800033
:10150c00040e20008482620004082000848f5200a4
:10151c00faff3a0014002000941c8800a439200023
:10152c00a41c88001480210084198800d487210011
:10153c00c41988000002eb00041888000480200005
:10154c00441888008400210084188800c47f21007e
:10155c00c4188800c47f210004198800c47f2100ae
:10156c004419880014002000741b880024002000fb
:10157c00f41a880034002000741a8800040c20002f
:10158c00241b8800040c2000a41a8800040c2000e2
:10159c00241a88000002eb00741c88000002eb0087
:1015ac00f41b88000002eb00841c88000000000083
:1015bc00851c8000040e200004826200e00f5200a3
:1015cc00fbff3a008f60a80054fb250084088800bc
:1015dc0024f42000640888000002eb003408880022
:1015ec0084c0a9008cc0a90011e1a800d4fb25007f
:1015fc0094088800546222007408880084e0a900d2
:10160c008ce0a90013e1a8000002eb00a44c8800b8
:10161c0014e42800b44c88000002eb00c44c880091
:10162c0014042000d44c880044062000e44c8800ac
:10163c000080fa00000006003600f800809fbe0013
:10164c00829fbe00849fbe00869fbe00889fbe0006
:10165c004400f8004200f8000a00fa008760a90074
:10166c00954d8000b41c800005027200944d8800da
:10167c00751c80000408200004826200e00f5200f8
:10168c0024003200741c800061026200e00f5200e2
:10169c000f003a00644d80000402e800644d88009d
:1016ac00e13820000e00780028028000190280002a
:1016bc00e709070019028800280288002e02900012
:1016cc00a44a88001e029000b44a8800100037001b
:1016dc00744d80000402e800744d8800e13820004d
:1016ec000e0078002802800019028000d80907003b
:1016fc0019028800280288000e0078002802800059
:10170c0019028000dafe07001902880028028800fe
:10171c009603a900f51b80000408200004826200d7
:10172c00e00f52000b003200844d80000402e800f0
:10173c00844d8800e1372000408020002802800082
:10174c0019028000a50907001902880028028800e8
:10175c009623a900741b800068026200e00f5200ff
:10176c0014003a00c08a2000280280001902800070
:10177c0095090700190288002802880000027800e9
:10178c00e00f52000b003200e1362000c08a20002e
:10179c002802800019028000f20907001902880053
:1017ac00280288009643a900d44d80000402e8006a
:1017bc00d44d8800b51c8000040220000482620015
:1017cc00e00f520009003200054e8000b41c80006e
:1017dc0005027200044e8800344d80000402e800bb
:1017ec00344d880096a3a9000800370045178000e7
:1017fc000400220004826200e00f5200020032005a
:10180c00e9a2a90001003700e9a2a800d51c8000bc
:10181c0004f02f0084826200264d800004f02f001b
:10182c0004026300848f52000a003600254d8000ac
:10183c00f40f200004826200244d8800254d8000a6
:10184c00d61c800004f02f000402630004824200c6
:10185c00244d8800d51c8000f40f20008482620087
:10186c00264d8000f40f200004026300848f520088
:10187c000a003600254d800004f02f00048262001f
:10188c00244d8800254d8000d61c8000f40f2000cc
:10189c000402630004824200244d88000080fa0098
:1018ac004200f9004400f9004f04be004f03be0093
:1018bc004f02be004f01be004f00be003600f900c3
:1018cc00004006000e00fa005007980061079800cf
:1018dc0084002000040f78006e029000140798001a
:1018ec005e029000e00f5200030032000082eb0019
:1018fc0024079800020037000002eb002407980030
:10190c00e13420000e007800ac090700544d800033
:10191c000402e800544d88000080fa000000060024
:10192c000000fa0004012000244f88000100070089
:10193c00feff37000000fa00244f80000502200053
:10194c00850f52000900320005032000850f52005c
:10195c0009003200f00f52000a003a006b01070038
:10196c0004022000244f88000900370018fc0700ef
:10197c0030010700060037000700070014fc0700c1
:10198c000300370004012000244f880000000000f1
:10199c000080fa00000006000200fa00889fbe00da
:1019ac00444f8000e00f5200080032000002eb00b0
:1019bc00444f880060a5200004040700e452800016
:1019cc0004588800e45280000458880035048000d4
:1019dc000404200004826200e00f52006e0032000a
:1019ec0086c0a90020a32000f8030700e0a0200077
:1019fc00f603070060a52000f4030700a0a7200051
:101a0c00f2030700e0a92000f003070020ac20003f
:101a1c00ee030700c4518000040f78001e0278000a
:101a2c00050020000400be00e6fa07000004be001a
:101a3c001e027800050020000400be00e1fa070039
:101a4c000002be000401be0000002800b1532400b7
:101a5c005ffa07000002be000403be000802be00cd
:101a6c000601be00209f20004e0007000002be00b1
:101a7c000400be00b8fa07000002be0004027800a1
:101a8c00344f8800344f8000c44b8800354f8000a1
:101a9c00044b2000848f520002003600044b2000bf
:101aac00344f8800344f8000b44b880020a32000b2
:101abc000504070000027800e00f5200020032001b
:101acc008a49a800010037008a49a90020a32000f8
:101adc000b04070000027800e00f520002003200f5
:101aec008a69a800010037008a49a900344f800098
:101afc000401780001002100c09c2000630907004c
:101b0c0004548000544b880024558000644b88009a
:101b1c0044568000744b8800449c200014027800ca
:101b2c0061026200e00f520006003200444b80005c
:101b3c000402e800444b8800a49820008002eb00cb
:101b4c00050a780020a32000ed03070000027800ae
:101b5c00e00f5200020032008a69a8000100370031
:101b6c008a69a900e0a02000d703070000027800d2
:101b7c00e00f5200020032008a29a8000100370051
:101b8c008a49a900344f800004017800010021002b
:101b9c00c09c20003d0907004f04be000080fa00e5
:101bac00000006001600fa00889fbe00600798002f
:101bbc0072079800030f9800140f9800250f9800d7
:101bcc006e029000b40a9000240a90007e019000ee
:101bdc008e0990000400be00cffa07000002be0080
:101bec00048fbe006e029000b4029000240290009c
:101bfc007e0190008e0990000400be00f5f90700ec
:101c0c000002be006e039000240398003503980078
:101c1c006e02900024039000b40390006e029000ba
:101c2c00d40290004402900018c0b3000401be001e
:101c3c000600be0046fa070000027800e00f5200d2
:101c4c0001003c000044eb00e04f54000700320060
:101c5c006e029000d4029000440290006e0390003b
:101c6c002403980035039800160037006e0290008c
:101c7c0024039000b40390006e029000f4029000d4
:101c8c006402900018c0b3000401be000600be0040
:101c9c002dfa070000027800e00f52000100350019
:101cac000044eb00e04f5400060032006e0290003e
:101cbc00f4029000640290006e03900024039800dc
:101ccc00350398006e029000040b9000940b90006a
:101cdc006e029000b4029000240290000401be0039
:101cec000600be008cfa07000002be002407980014
:101cfc00350798006e029000440c9000d40c9000b4
:101d0c006e0290001402be000401be001e0890007a
:101d1c00ae089000aef907000002be000401be0040
:101d2c000800be007cfa07000002be0044079800c1
:101d3c00550798006e0290001e0b9000ae0b9000a1
:101d4c00068abe007e0090008e08900002fa070002
:101d5c000002be0004027800d44b88001e00be00b6
:101d6c00fdf907000002be0004027800e44b880075
:101d7c002e009000be009000f7f907000002be0094
:101d8c0004027800f44b88004e009000de009000b6
:101d9c00f1f907000002be0004027800044c880030
:101dac002e019000be0190001e00be0089f90700b4
:101dbc000002be004e019000de0190000400be0047
:101dcc0083f907000002be0018c0b3006011b80010
:101ddc000400be00dcf9070000027800e00f52009e
:101dec00010035000044eb00e04f540003003200ca
:101dfc000400200005f823000a0037002e01900093
:101e0c00be0190001e00be0072f907000002be0069
:101e1c004e019000de0190000400be006cf907003a
:101e2c000002be000400be004f04be000080fa0099
:101e3c00000006000800fa000002eb00040f780016
:101e4c00350480000404200004826200e00f52007c
:101e5c002c00320086c0a900a0a72000db020700de
:101e6c00e0a92000d902070020ac2000d70207000f
:101e7c00045480001407980024558000240798000f
:101e8c0044568000340798009e029000049620006f
:101e9c00848f5200170036009e02900074a220001e
:101eac00848f520013003e00ae0290000496200076
:101ebc00848f52000f003600ae02900074a22000f6
:101ecc00848f52000b003e00be0290002462200062
:101edc00848f520007003600be029000946e2000e2
:101eec00848f520003003e0004032000244f88001e
:101efc00040037001e027800e40f52000100340089
:101f0c008969a8000080fa00000006000000fa00b1
:101f1c00340580000400a0000410a0000420a000e0
:101f2c00340588008260a9008880a9009080a800f0
:101f3c00c404800004c0a10004d0a00004e0a000f0
:101f4c00c404880004002c0004168800b44f200040
:101f5c00341688000002eb00641688000002eb00c7
:101f6c0094168800f4142000f41688000002eb008c
:101f7c00241788000002eb00544f88000002eb008d
:101f8c00444f880044002000a5002000644e8800c7
:101f9c00754e880084002000a5002000844e880027
:101fac00954e880014c0b30004007800d4e9b70043
:101fbc00f4532000b44e88000002eb00c44e88009d
:101fcc0004002a00d44e880004242400f5002000cc
:101fdc00e44e8800f54e880004682900850920002d
:101fec00044f8800154f8800c09c20000208070091
:101ffc008969a900d4f92d00040988000002eb00be
:10200c00c408880086c0a900440d2300e408880099
:10201c00f4cf270004158800e4fd20001415880077
:10202c0084442e0024158800242e2e00341588009c
:10203c0074302e004415880084cf2100541588007c
:10204c008560a9008d60a800a1e2a800f4282c00ee
:10205c0055d7230054508800655088006022b80082
:10206c00944f8800a54f88006022b800b44f8800b8
:10207c00c54f8800d4cc2c00c5d423001450880044
:10208c0025508800d4cc2c00c5d4230034508800b3
:10209c00455088000400250035742400d44f880076
:1020ac00e54f88006022b800f44f88000550880086
:1020bc000002eb00344f8800344f8000040178009c
:1020cc0001002100c09c2000f0070700142720000d
:1020dc00b45088000002eb00c450880004002800b3
:1020ec00d45088000002eb00e45088000400280063
:1020fc00f45088000002eb000451880004772100a2
:10210c001451880084132000d45188000002eb0085
:10211c00e451880004002800f45188000002eb0010
:10212c000452880004002800145288000002eb00be
:10213c002452880044b520004452880044ce20002c
:10214c0034528800e4032000f45288000002eb00b3
:10215c000453880004002800145388000002eb008c
:10216c002453880004002800345388000002eb003c
:10217c0044538800b4222000545388008413200058
:10218c00145488000002eb0024548800040028003a
:10219c00345488000002eb004454880004002800ea
:1021ac00545488000002eb0064548800841320000f
:1021bc00345588000002eb004455880004002800c8
:1021cc00545588000002eb00645588000400280078
:1021dc00745588000002eb0084558800841320009d
:1021ec00545688000002eb00645688000400280056
:1021fc00745688000002eb00845688000400280006
:10220c00945688000002eb00a456880004002100bc
:10221c00945788000002eb00a457880004002800a3
:10222c00b45788000002eb00c45788000400280053
:10223c00d45788000002eb00e45788000002eb0042
:10224c0034578800140020005457880083fc070082
:10225c0000242400f1002000710807000060fe003b
:10226c00c4e2a80000242400f10020006c08070040
:10227c000060fe00e982a80000242400f100200088
:10228c00670807000060fe00e9a2a8000080fa00c1
:10229c0000000600801f7800841f78000000fa0000
:1022ac0014002000444f8800544f8000d452880002
:1022bc008880a9000002eb00644f88000080fa00bf
:1022cc004f0278004f00780000400600801f780015
:1022dc00849fbe00869fbe000000fa008560a900a6
:1022ec00151580000408200004826200e00f5200e3
:1022fc003900320096518000a751800004148000f0
:10230c00050020000602420087824a009451880092
:10231c00a5518800765080008750800014148000ee
:10232c00050020000602420087824a007450880093
:10233c0085508800d6538000e75380002414800019
:10234c00050020000602420087824a00d453880010
:10235c00e5538800f6548000075580003414800043
:10236c00050020000602420087824a00f4548800cf
:10237c0005558800165680002756800044148000ae
:10238c00050020000602420087824a00145688008d
:10239c002556880054148000544f8800b652800093
:1023ac00c752800054148000050020000602420031
:1023bc0087824a00b4528800c5528800654f80005d
:1023cc0054148000848f52003b0031005414800060
:1023dc00644f88003800370096518000a751800068
:1023ec0084148000050020000602420087824a0007
:1023fc0094518800a5518800765080008750800049
:10240c0094148000050020000602420087824a00d6
:10241c007450880085508800d6538000e7538000a4
:10242c00a4148000050020000602420087824a00a6
:10243c00d4538800e5538800f6548000075580007b
:10244c00b4148000050020000602420087824a0076
:10245c00f4548800055588001656800027568000d5
:10246c00c4148000050020000602420087824a0046
:10247c001456880025568800d4148000544f8800c8
:10248c00b6528000c7528000d41480000500200092
:10249c000602420087824a00b4528800c552880066
:1024ac00d4148000644f8800e4148000744f8800ba
:1024bc00f4148000844f8800f45780000402e80074
:1024cc00f4578800f5578000f4032000848f5200e5
:1024dc005800360074508000855080004e2bdd0073
:1024ec004222de0004027300c22ade00745088000f
:1024fc00855088007450800085508000040278005c
:10250c00945088006022b800745088008550880070
:10251c0094518000a55180004e2bdd004222de003c
:10252c0004027300c22ade0094518800a551880071
:10253c0094518000a551800004027800b4518800a9
:10254c006022b80094518800a5518800d4538000b3
:10255c00e55380004e2bdd004222de0004027300a6
:10256c00c22ade00d4538800e5538800d45380007f
:10257c00e553800004027800f45388006022b80010
:10258c00d4538800e5538800f4548000055580002e
:10259c004e2bdd004222de0004027300c22ade0054
:1025ac00f454880005558800f454800005558000cb
:1025bc0004027800145588006022b800f454880096
:1025cc000555880014568000255680004e2bdd00e2
:1025dc004222de0004027300c22ade001456880078
:1025ec002556880014568000255680000402780079
:1025fc00345688006022b80014568800255688008e
:10260c00b4528000c55280004e2bdd004222de0009
:10261c0004027300c22ade00b4528800c55288003e
:10262c006022b800b4528800c55288000002eb004a
:10263c00f4578800b4518000844b8800945080007b
:10264c00944b8800d4528000a44b88000080fa0080
:10265c004f03be004f02be004f0078000040060042
:10266c001200fa0010079800210798003207980012
:10267c00034f980054079800650798007607980058
:10268c00070f98000002eb00040f78001e03900067
:10269c006022b800048bbe001e0290008002eb008a
:1026ac00250298001e0290008002eb003502980073
:1026bc001e029000ae029000450298001e0290008f
:1026cc00be029000550298000e4a9000ef4f520047
:1026dc000d0036001e0290000500280065029800cf
:1026ec001e0290008002eb00750298001e02900002
:1026fc0005002800050a98001e0290008002eb00dd
:10270c00150a98001f0037000e4a90000482fb0047
:10271c000404b0004222dd00040f78001e00780093
:10272c00e104070000027800840278001e02900089
:10273c00750298001e02e80004007800da04070015
:10274c00000278009e029000e40298001e82e800cd
:10275c0004007800d404070000027800840278009a
:10276c001e029000150a98009e02780063824200b7
:10277c0004007800cc040700000278009e02900050
:10278c00840a98001e029000de029000250a980030
:10279c001e029000ee029000350a98001e02900076
:1027ac00fe029000550a98001e0290008e0a9000be
:1027bc00650a98001e0290008002eb00750a9800d2
:1027cc001e0290008002eb00051298001e02900081
:1027dc00ceba9700151298000080fa00000006008f
:1027ec001000fa0010079800210798003207980093
:1027fc00034f9800540798006507980076079800d7
:10280c000002eb00040f78001e0290008002eb0027
:10281c00250298001e029000de02900035029800fe
:10282c001e029000ee029000450298001e029000dd
:10283c00fe029000550298001e029000ae0290001d
:10284c00650298001e029000be029000750298006e
:10285c000e4a9000e74f52000d0036001e02900009
:10286c0005002800050a98001e0290008002eb006b
:10287c00150a98001e02900005002800250a9800f1
:10288c001e0290008002eb00350a98001f003700f2
:10289c000e4a90000482fb000405b0004222dd00c9
:1028ac00040f78001e0078007f04070000027800f7
:1028bc00840278001e029000150a98001e02e8009f
:1028cc000400780078040700000278009e02900053
:1028dc00840a98001e82e800040078007204070045
:1028ec0000027800840278001e029000350a9800dd
:1028fc009e02780063824200040078006a0407009c
:10290c00000278009e029000a40a98000080fa0051
:10291c00000006000400fa00100798001e02900048
:10292c00740390001e029000e40290001e029000be
:10293c001402780006017800850078000400780005
:10294c007006070000027800040f78001e02900049
:10295c00940a90001e029000040a90000501780071
:10296c00840078001e0078005106070000027800f1
:10297c00040f78001e029000b40a90001e02900012
:10298c00240a900005017800840078001e0078006d
:10299c004706070000027800040f78001e02900022
:1029ac0024029000e00f520003003a001e02900037
:1029bc00d4029000050f78001e0290009e02780051
:1029cc00150298000080fa00000006000400fa00ce
:1029dc00100798001e029000140b90001e0290002d
:1029ec00840a90001e0290002402900006017800d8
:1029fc0085007800040078002d060700000278009e
:102a0c00040f78001e029000f40290001e02900049
:102a1c006402900005017800840078001e007800a4
:102a2c002306070000027800040f78001e029000b5
:102a3c00d40290001e029000440290000501780020
:102a4c00840078001e0078002e0607000002780033
:102a5c00040f78001e0290009e0278003502980048
:102a6c000080fa00000006000400fa00000f780055
:102a7c00110798001e027800b40290001e0290000c
:102a8c00848f5200030031001e027800b4029000c3
:102a9c00150798001e027800c40290001e029000d8
:102aac00848f5200030036001e027800c40290008e
:102abc00150798001e0278009e029000050a780007
:102acc000080fa00000006000200fa00000f7800f7
:102adc001e027800b40290001e027800240a9000b6
:102aec00848f5200020036001400200001003700d1
:102afc000002eb00040078000080fa0000000600e1
:102b0c000200fa00000f78001e027800b402900058
:102b1c001e027800340a9000848f520002003100ab
:102b2c0014002000010037000002eb0004007800c4
:102b3c000080fa00000006000400fa00100798005c
:102b4c001e029000d40a90001e029000440a9000cd
:102b5c000001eb008500780004007800d405070024
:102b6c0000027800040f78001e029000640a9000a6
:102b7c009e0f5200030036001e029000e40a9000e3
:102b8c00050f780004f02f009e0252001e029000e8
:102b9c00440a9000848f5200040036001e029000fc
:102bac00440a90001e0f42000200370004f02f0070
:102bbc00040f78001e029000340290009e0f520009
:102bcc00060036001e029000740a90008402e80091
:102bdc001e029000750a9800090037001e02900032
:102bec00740a9000e00f5200050032001e029000a3
:102bfc00740a90008402e9001e029000750a980085
:102c0c001e029000f40a90001e0290001412900014
:102c1c00848f52000f0039001e029000f40a9000bd
:102c2c001e0290001412900004024200848f520085
:102c3c00060039001e02900014129000040242009b
:102c4c00840278001e029000750a9800140020007f
:102c5c00010037000002eb00040078000080fa004d
:102c6c00000006000400fa00100798001e029000f5
:102c7c00d40a90001e029000440a90000001eb0060
:102c8c0085007800040078008905070000027800b0
:102c9c00040f78001e029000640a90009e0f5200f0
:102cac00030036001e029000e40a9000050f780025
:102cbc001e029000440a90009e0f52000400360041
:102ccc001e029000440a90001e0f520002003700b2
:102cdc000002eb00040f78001e02900034029000fa
:102cec009e0f5200060031001e029000041290004c
:102cfc008402e8001e0290000512980009003700bb
:102d0c001e02900004129000e00f520005003200e9
:102d1c001e029000041290008402e9001e02900032
:102d2c00051298001e029000841290001e02900062
:102d3c0014129000848f52000f0039001e02900074
:102d4c00841290001e0290001412900004024200a3
:102d5c00848f5200060039001e029000141290005d
:102d6c0004024200840278001e02900005129800b2
:102d7c0014002000010037000002eb000400780072
:102d8c000080fa00000006000000fa00e24a280069
:102d9c00010120000001200067030700e24a28001f
:102dac00010120001001200063030700e24a280003
:102dbc0001012000200120005f030700e24a2800e7
:102dcc0001012000300120005b030700e24a2800cb
:102ddc00010120004001200057030700e24a2800af
:102dec00010120005001200053030700e24c280091
:102dfc0001012000600120004f030700e24c280075
:102e0c0001012000700120004b0307000080fa0034
:102e1c00000006001400fa004047980031079800a3
:102e2c0042079800530798006407980075079800ac
:102e3c00060f9800170f98003e029000f401b300a3
:102e4c00340798000e0b90009e0b9000463add0064
:102e5c00ca32de00850272004632dd006e0190003f
:102e6c00fe0190000400be005ff607000002be00e9
:102e7c00048fbe0004202000050020001e03be00ad
:102e8c00840f5300858f5b0003003e00140020006c
:102e9c0024588800320037003480200005002000c0
:102eac001e03be00840f5300858f5b000d003e0097
:102ebc0044002000245888001e02be004e2bdd006a
:102ecc004222de0004027300c22ade00048fbe0020
:102edc00be029000e4ff2f000482620034079800c9
:102eec001f003700f4002200050020001e03be0066
:102efc00840f5300858f5b000d003e000401200001
:102f0c00245888001e02be004c2bdd004422de003b
:102f1c0004027300c42ade00048fbe00be029000bf
:102f2c00d4ff2f0004826200340798000c00370095
:102f3c0004042000245888001e02be004a2bdd0029
:102f4c004622de0004027300c62ade00048fbe0097
:102f5c00be029000c4ff2f00048262003407980068
:102f6c00041c2000050020001e03be00840f53002b
:102f7c00858f5b0008003600245880004322dd005a
:102f8c0024588800be02900034fe2f000482620098
:102f9c003407980057003700041820000500200063
:102fac001e03be00840f5300858f5b0009003600a2
:102fbc00245880006722b900040278002458880045
:102fcc00be02900074fe2f00048262003407980049
:102fdc004800370004142000050020001e03be002a
:102fec00840f5300858f5b00090036002458800045
:102ffc006622b9000402780024588800be029000b2
:10300c00b4fe2f00048262003407980039003700a8
:10301c0004102000050020001e03be00840f530086
:10302c00858f5b0009003600245880006522b900aa
:10303c000402780024588800be029000f4fe2f0091
:10304c0004826200340798002a003700040c200028
:10305c00050020001e03be00840f5300858f5b000b
:10306c0008003600245880004222dd0024588800d5
:10307c00be02900034ff2f000482620034079800d7
:10308c001c00370004082000050020001e03be00b1
:10309c00840f5300858f5b00090036002458800094
:1030ac006322b9000402780024588800be02900004
:1030bc0074ff2f0004826200340798000d00370063
:1030cc0004042000050020001e03be00840f5300e2
:1030dc00858f5b00070036002458800004024200f4
:1030ec0024588800be029000b4ff2f0004826200b6
:1030fc0034079800245880004222dd0024588800b0
:10310c004e429000e14f520004003a003e02900003
:10311c00141188005e039000061188004e42900046
:10312c00e24f520004003a003e0290004411880025
:10313c005e039000361188000080fa000000060043
:10314c000c00fa0040079800214f98000042eb0059
:10315c00044f78002e4a9000e14f520054003a0080
:10316c008500a9004e029000241188000002eb009b
:10317c0034079800180037003e0290000402e80063
:10318c003407980024588000be029000848f5200af
:10319c000300360034c0b300044f78000e00370033
:1031ac00051180000404200004826200e00f52002c
:1031bc000300320044c0b300044f7800060037000f
:1031cc000411800062026200e00f520002003a001b
:1031dc0014c0b300044f78001e427800e04f520038
:1031ec00e5ff3200200037003e0290000402e800a8
:1031fc003407980024588000be029000848f52003f
:10320c000300360034c0b300044f780016003700ba
:10321c00051180000404200004826200e00f5200bb
:10322c000300320044c0b300044f78000e00370096
:10323c00250480000410200004826200e00f52007c
:10324c000300320024c0b300044f7800060037009e
:10325c000411800061026200e00f52000200320093
:10326c0024c0b300044f78001e427800e14f520096
:10327c00ddff32001e427800e24f520005003a009a
:10328c0024118000050020001407980025079800e1
:10329c0007003700040020001511210014079800c6
:1032ac0025079800345880000402e8003458880040
:1032bc002e4a9000e24f52004d003a008740a90080
:1032cc004e029000541188000002eb003407980065
:1032dc00180037003e0290000402e8003407980002
:1032ec0024588000be029000848f520003003600e8
:1032fc0034c0b300044f78000e0037003511800045
:10330c000404200004826200e00f5200030032002b
:10331c0044c0b300044f780006003700341180001d
:10332c0062026200e00f520002003a0014c0b300c7
:10333c00044f78001e427800e04f5200e5ff320047
:10334c00190037003e0290000402e8003407980090
:10335c0024588000be029000848f52000300360077
:10336c0034c0b300044f78000f00370035118000d3
:10337c000404200004826200e00f520003003200bb
:10338c0044c0b300044f78000700370035048000b8
:10339c000440200004826200e00f52000200320060
:1033ac0024c0b300044f78001e427800e14f520055
:1033bc00e4ff32001e427800e24f520005003a0052
:1033cc005411800005002000140798002507980070
:1033dc000700370004002000151121001407980085
:1033ec0025079800445880000402e80044588800df
:1033fc001e029000ae0290000400be000080fa0095
:10340c00000006001400fa004047980031079800ad
:10341c0042079800530798006407980075079800b6
:10342c00060f9800170f98004e019000de019000d7
:10343c006e009000fe009000ebf407000002be004e
:10344c00048fbe001e0278004422dd0084588800e0
:10345c006e029000fe02900052cd2d00230320003e
:10346c000400be00e0f407000002be001e1f1200a4
:10347c001e971a000082eb008082eb001e0f4200a8
:10348c005e974a001e03be001400200005002000b9
:10349c00840f5300858f5b0003003e002400200046
:1034ac0005002000048fbe00f4ff2f000500200053
:1034bc001e03be00840f5300858f5b000300360093
:1034cc002400200005002000048fbe004e42900016
:1034dc00e04f5200030032004e429000e14f520088
:1034ec0004003a00be029000351088001e027800dd
:1034fc00241088000080fa00000006000600fa0084
:10350c00404798000002eb00140798004e429000d0
:10351c00e04f5200030032004e429000e14f520047
:10352c0013003a000002eb00040f78000b00370088
:10353c001e0fe800845880009e027800848f520091
:10354c000600360004102000140798007458800000
:10355c000402e8007458880005003700451080000c
:10356c000400240004826200e00f5200f0ff3a00d5
:10357c001e029000040078000080fa000000060093
:10358c000600fa00404798000002eb001407980070
:10359c004e429000e04f5200030032004e42900029
:1035ac00e14f520013003a000602a8000002eb00a3
:1035bc00040f78000b0037001e0fe80084588000c1
:1035cc009e027800848f52000600360004202000f2
:1035dc0014079800745880000402e800745888009e
:1035ec00040037003410800061026200e00f5200ca
:1035fc00f1ff3a001e029000040078000080fa00ef
:10360c00000006000600fa00404798000002eb009c
:10361c00140798004e429000e04f52000300320015
:10362c004e429000e14f520013003a000622a800cf
:10363c000002eb00040f78000b0037001e0fe800af
:10364c00845880009e027800848f52000600360059
:10365c000440200014079800745880000402e8000d
:10366c007458880004003700341080006202620035
:10367c00e00f5200f1ff3a001e02900004007800a7
:10368c000080fa00000006000600fa00404798008f
:10369c00514798000002eb00140798005e4290001e
:1036ac00e04f5200030032005e429000e14f5200a6
:1036bc0028003a004e4290000482fb00141088004f
:1036cc000002eb00040f78000c0037001e0fe8001e
:1036dc00845880009e027800848f520007003600c8
:1036ec000480200014079800745880000402e8003d
:1036fc00745888000000000011003700451080004d
:10370c000400240004826200e00f5200efff32003c
:10371c000b0037001e0fe800845880009e027800d2
:10372c00848f520006003600048020001407980095
:10373c00745880000402e8007458880005003700b3
:10374c00451080000400240004826200e00f520047
:10375c00f0ff3a001e029000040078000080fa008e
:10376c00000006000600fa00404798000002eb003b
:10377c00140798004e429000e04f520003003200b4
:10378c004e429000e14f52002b003a000662a80016
:10379c000002eb00040f78000c0037001e0fe8004d
:1037ac00845880009e027800848f520007003600f7
:1037bc000400210014079800745880000402e800eb
:1037cc00745888000000000010003700341080008e
:1037dc0068026200e00f5200f0ff3a000b00370065
:1037ec001e0fe800845880009e027800848f5200df
:1037fc00060036000400210014079800745880005d
:10380c000402e8007458880004003700441080005b
:10381c0062026200e00f5200f1ff32001e029000c3
:10382c00e00f520004003a0005108000f40f200055
:10383c0004826200140798001e02900004007800b5
:10384c000080fa00000006000600fa0040479800cd
:10385c000002eb00140798004e429000e04f52001b
:10386c00030032004e429000e14f520013003a0028
:10387c000642a8000002eb00040f78000b00370092
:10388c001e0fe800845880009e027800848f52003e
:10389c0006003600040022001407980074588000bb
:1038ac000402e800745888000400370034108000cb
:1038bc0064026200e00f5200f1ff3a001e02900019
:1038cc00040078000080fa00000006000600fa00f0
:1038dc00404798000002eb00040f78000002eb0058
:1038ec00140798004e429000e04f52000300320043
:1038fc004e429000e14f520012003a0006a2a9007d
:10390c000682a8000b0037001e0fe80084588000c8
:10391c009e027800848f52000600360004002400ba
:10392c0014079800745880000402e800745888004a
:10393c00040037003410800070026200e00f520067
:10394c00f1ff3a001e029000040078000080fa009b
:10395c00000006000600fa00404798000002eb0049
:10396c00040f78000002eb00140798004e42900000
:10397c00e04f5200030032004e429000e14f5200e3
:10398c0012003a0006a2a8000682a8000b0037001d
:10399c001e0fe800845880009e027800848f52002d
:1039ac0006003600040028001407980074588000a4
:1039bc000402e800745888000400370034108000ba
:1039cc0070026200e00f5200f1ff3a001e029000fc
:1039dc00040078000080fa00000006000c00fa00d9
:1039ec00000f7800120798002307980034079800fe
:1039fc0045079800214f9800364f98000080fa0038
:103a0c00000006000800fa00200798003107980013
:103a1c00ae029000f47f2000848f520020003e0004
:103a2c0004002f00f5072000048fbe00053b80002a
:103a3c000400280004826200e00f5200fbff3a00f1
:103a4c002e02900004024200050020003e014200bc
:103a5c00ae814a000202be00220020000400be001b
:103a6c0033f20700053b800004002800048262004a
:103a7c00e00f5200fbff3a003e0390002e02900034
:103a8c0004024200050020003e014200ae814a00c3
:103a9c000202be00060178000400be003df20700e1
:103aac000080fa00000006000200fa00000f780007
:103abc00f67f20009e037800868f53001a003e008c
:103acc00073b80000600280006836300e00f5300cc
:103adc00fbff3a001e037800060343006133b90074
:103aec0004002f00f50f20008600d0000401d00048
:103afc00028240004220a80085824b004200a900af
:103b0c004220ae004200a8000482d300a60180002f
:103b1c0085037800a701880004027800140278005d
:103b2c00a6018800010037000082eb000400780039
:103b3c000080fa00000006002a00fa002017980006
:103b4c0031179800421798004e129000140278001a
:103b5c00240798004e1290000482e80014027800aa
:103b6c00340798004e129000640242001402780050
:103b7c00440798004e12900066024200140278002e
:103b8c00540798004e12900068024200140278000c
:103b9c00640798004e1290006a02420014027800ea
:103bac00740798004e1290006c02420014027800c8
:103bbc00040f98004e1290006e024200140278001e
:103bcc00140f98004e1290007002420014027800fc
:103bdc00240f98004e1290007202420014027800da
:103bec00340f98004e1290007402420014027800b8
:103bfc00440f98004e129000760242001402780096
:103c0c00540f98004e129000780242001402780073
:103c1c00640f98004e1290007a0242001402780051
:103c2c00740f98004e1290007c024200140278002f
:103c3c00041798004e1290007e0242001402780085
:103c4c0014179800ae129000f4072000848f5200d5
:103c5c0019003e0004002f00f5072000048fbe0061
:103c6c002e1290004522dd00050020001e0f4200a0
:103c7c005e974a00053b8000040028000482620025
:103c8c00e00f5200fbff3a00020220001e00be00b3
:103c9c00a7f10700053b80000400280004826200a5
:103cac00e00f5200fbff3a00640247000401780069
:103cbc001e00be00bdf107000080fa0000000600e7
:103ccc000a00fa0020079800310798004207980074
:103cdc002e0390004433dd0016079800073b80004c
:103cec000600280006836300e00f5300fbff3a0038
:103cfc003e039000e00f53002b0032003e03900077
:103d0c00f00f530002003600060120003607980021
:103d1c00ae039000f6072000868f530022003e0071
:103d2c000003eb00060f78001b0037001e03780021
:103d3c0006034300ce039000068043001e03900050
:103d4c001e034300060343006133b90004002f0037
:103d5c00f50f20008600d0000401d0000283400043
:103d6c004220a80085834b004200a9004220ae00ef
:103d7c004200a8000683d300a1018000070178004f
:103d8c00a20188000603780016037800a1018800c0
:103d9c00060878001e0fe8003e0390009e03780092
:103dac00868f5300e1ff39000080fa000000060006
:103dbc001001900090007800010051000000e90013
:103dcc00f000b20000000600100190009000780096
:103ddc0002805000f000b200000006001170a60036
:103dec001a003700e40140009309e80090019000ac
:103dfc001001e800f200b2000310e10010003200e4
:103e0c00100178006a11b800e8014000828141007d
:103e1c006e8150009219780066014100b219780049
:103e2c00b2197800b2197800b21978001001e800c4
:103e3c00f200b20002087800e60140009309e900a4
:103e4c00e60140009309e8001170a1000000060093
:103e5c001170a600090037006e815000121878000e
:103e6c006601410032187800321878003218780058
:103e7c00321878001170a10008003700827f2100f1
:103e8c00021878000200200002187800021878004e
:103e9c000218780002187800310037000000060084
:103eac00e40140009309e800900190001001e80043
:103ebc00f200b2000310e1000e0032001001780095
:103ecc006a11b800e801400082814100b119780004
:103edc00b1197800b1197800b1197800b1197800ce
:103eec001001e800f200b20002087800e601400080
:103efc009309e900e60140009309e8000000060080
:103f0c0010019000900178000310e10008003a00c5
:103f1c00837f210083187800030020008318780029
:103f2c008318780083187800831878000c00370009
:103f3c006a11b8006801410000014100b218780014
:103f4c00b2187800b2187800b2187800b21878005d
:103f5c00100190000201e800f200b200120098007b
:103f6c00000006001130a70013003700100190006c
:103f7c00900178000310e1000f0032006a11b800c4
:103f8c006801410000014100ee815000b209780047
:103f9c00e6814100b2197800b2197800b2197800a4
:103fac00b21978001130a000100190000201e80055
:103fbc00f200b20012009800000006001130a100bf
:103fcc006e8150003009780066014100301978008c
:103fdc003019780030197800301978001130a000b1
:103fec00000006000018eb000018eb000018eb00b6
:103ffc000008eb00000006000200fa00000f780039
:10400c001e027800b4029000240290000400be004e
:10401c00610007001e0278001402be000400be00fe
:10402c005d0007001e027800b4029000240290008c
:10403c000400be008c0007001e0278001402be00b3
:10404c000400be00880007001e027800240b9000bc
:10405c00b40b90001e027800940a9000040a9000a1
:10406c001e007800f00190001e00780060019000a6
:10407c001e007800d00090001e00780000489000d0
:10408c0064fb07000080fa00000006000c00fa0038
:10409c00300798004107980052079800de02900004
:1040ac00f4ff20000482620054079800ce029000b6
:1040bc0004002f000482620044079800ce02900096
:1040cc005e02900005027200440798000042eb006b
:1040dc00044f78003e0290001402be000400be00a3
:1040ec003e0007003e029000044a90008440780095
:1040fc004e00900012fc07000002be00140798004e
:10410c00250798001e039000ae03900004002000c9
:10411c0015112100840f5300858f5b0002003a00bb
:10412c0014c0b300044f78003e0290001402be008d
:10413c000400be00180007003e029000b40290007c
:10414c00240290000400be002400070000000000c0
:10415c000000000000000000000000003e02900083
:10416c00b4029000240290000400be000a00070074
:10417c001e427800e04f520003003200b458800019
:10418c000402e800b45888001e427800044078000d
:10419c000080fa000000060001600100c422b70094
:1041ac0000000600ca22b70000000600d022b700ab
:1041bc0000000600d622b700000006000000000038
:1041cc0000000600e222b70000000600e822b7005b
:1041dc000000060000000000000006000080ea005d
:1041ec0001600100c422b60000000600ca22b6001d
:1041fc0000000600d022b60000000600d622b60051
:10420c00000006000000000000000600e222b600dc
:10421c0000000600e822b6000000060000000000c6
:10422c000000060001600100c022b700000006007b
:10423c00c622b70000000600cc22b7000000060022
:10424c00d222b700000006000000000000000600ab
:10425c00de22b70000000600e422b70000000600d2
:10426c0000000000000006000080ea000160010070
:10427c00c022b60000000600c622b60000000600f0
:10428c00cc22b60000000600d222b60000000600c8
:10429c000000000000000600de22b6000000060050
:1042ac00e422b6000000060000000000000006003a
:1042bc000200e00005003b00020040000800310055
:1042cc00000020000a2bec00050037000200400023
:1042dc0003003900f0ff2f000a2bec000000370020
:1042ec000101b8006218b8000100e00002003200c1
:1042fc00f0ff2f000a2bec00cf10de000100700045
:10430c00000006000200e00005003b000200400037
:10431c0008003100000020000c2bec0005003700d9
:10432c000200400003003900f0ff2f000c2bec00c2
:10433c00000037000101b8007018b8000100e0005f
:10434c0002003200f0ff2f000c2bec00cc10de0032
:10435c0001007000000006000400fa00100798002d
:10436c001e029000c4029000050f7800b44d80002e
:10437c000402e800b44d88000080fa00000006003a
:10438c000000fa001458800007588000a6508000e6
:10439c00c5518000870178000601780085007800ff
:1043ac00c00120005df307000080fa000000060049
:1043bc000000fa000080fa00000006000000fa007d
:1043cc000080fa00000006000000fa000080fa00ed
:0443dc0000000600d7
:020000040000fa
:1043e000cc0900003801000000000000160b00009e
:1043f00002000000000000000a0b000004000000a2
:10440000000000000e0b000004000000000000008f
:10441000040b00000600000000000000000800007f
:0c442000cc0100000000000000000000c3
:020000040000fa
:10442c00f03fb1000180b10006003500ee03090039
:10443c0000000000403fb1000180b100fbff3d00d7
:10444c001000b000203fb0000200350000800900d1
:08445c00000000000000060052
:020000040000fa
:0200000400fffb
:10e000000000000000000000000000000000000010
:10e010000000000000000000000000000000000000
:10e0200000000000000000000000000000000000f0
:10e0300000000000000000000000000000000000e0
:020000040000fa
:0200000401f009
:04000000ecbb000055
:020000040000fa
:0200000401f009
:04000400f7ff000002
:020000040000fa
:0200000401f009
:040008004cff0000a9
:020000040000fa
:0200000401f009
:04000c00ffff0000f2
:020000040000fa
:0200000401f009
:04001000ffff0000ee
:020000040000fa
:0200000401f009
:04001400ffff0000ea
:020000040000fa
:0200000401f009
:04001800ffff0000e6
:00000001FF
